{
  "_format": "hh-sol-artifact-1",
  "contractName": "temp",
  "sourceName": "contracts/temp.sol",
  "abi": [
    {
      "anonymous": false,
      "inputs": [
        {
          "indexed": true,
          "internalType": "bytes32",
          "name": "productHash",
          "type": "bytes32"
        },
        {
          "indexed": true,
          "internalType": "address",
          "name": "owner",
          "type": "address"
        }
      ],
      "name": "GetOwnerOfProd",
      "type": "event"
    },
    {
      "anonymous": false,
      "inputs": [
        {
          "indexed": true,
          "internalType": "address",
          "name": "sender",
          "type": "address"
        },
        {
          "indexed": true,
          "internalType": "address",
          "name": "reciever",
          "type": "address"
        },
        {
          "indexed": false,
          "internalType": "string",
          "name": "message",
          "type": "string"
        }
      ],
      "name": "NotificationSent",
      "type": "event"
    },
    {
      "anonymous": false,
      "inputs": [
        {
          "indexed": true,
          "internalType": "address",
          "name": "ownerAddress",
          "type": "address"
        },
        {
          "indexed": false,
          "internalType": "string",
          "name": "ownerName",
          "type": "string"
        }
      ],
      "name": "OwnerRegistered",
      "type": "event"
    },
    {
      "anonymous": false,
      "inputs": [
        {
          "indexed": true,
          "internalType": "address",
          "name": "ownerAddress",
          "type": "address"
        },
        {
          "indexed": false,
          "internalType": "bytes32",
          "name": "productHash",
          "type": "bytes32"
        },
        {
          "indexed": false,
          "internalType": "bool",
          "name": "verified",
          "type": "bool"
        },
        {
          "indexed": true,
          "internalType": "uint256",
          "name": "timestamp",
          "type": "uint256"
        }
      ],
      "name": "OwnerVerified",
      "type": "event"
    },
    {
      "anonymous": false,
      "inputs": [
        {
          "indexed": true,
          "internalType": "bytes32",
          "name": "productHash",
          "type": "bytes32"
        },
        {
          "indexed": false,
          "internalType": "string",
          "name": "newDescription",
          "type": "string"
        }
      ],
      "name": "ProductDescriptionChanged",
      "type": "event"
    },
    {
      "anonymous": false,
      "inputs": [
        {
          "indexed": true,
          "internalType": "bytes32",
          "name": "productHash",
          "type": "bytes32"
        },
        {
          "indexed": false,
          "internalType": "bool",
          "name": "forSale",
          "type": "bool"
        }
      ],
      "name": "ProductForSaleSet",
      "type": "event"
    },
    {
      "anonymous": false,
      "inputs": [
        {
          "indexed": true,
          "internalType": "bytes32",
          "name": "productHash",
          "type": "bytes32"
        },
        {
          "indexed": false,
          "internalType": "uint256",
          "name": "newPrice",
          "type": "uint256"
        }
      ],
      "name": "ProductPriceChanged",
      "type": "event"
    },
    {
      "anonymous": false,
      "inputs": [
        {
          "indexed": true,
          "internalType": "bytes32",
          "name": "productHash",
          "type": "bytes32"
        },
        {
          "indexed": false,
          "internalType": "address",
          "name": "ownerAddress",
          "type": "address"
        }
      ],
      "name": "ProductRegistered",
      "type": "event"
    },
    {
      "anonymous": false,
      "inputs": [
        {
          "indexed": true,
          "internalType": "address",
          "name": "seller",
          "type": "address"
        },
        {
          "indexed": true,
          "internalType": "address",
          "name": "buyer",
          "type": "address"
        },
        {
          "indexed": true,
          "internalType": "bytes32",
          "name": "productHash",
          "type": "bytes32"
        },
        {
          "indexed": false,
          "internalType": "uint256",
          "name": "price",
          "type": "uint256"
        }
      ],
      "name": "ProductSold",
      "type": "event"
    },
    {
      "inputs": [
        {
          "internalType": "address",
          "name": "",
          "type": "address"
        }
      ],
      "name": "OwnersList",
      "outputs": [
        {
          "internalType": "string",
          "name": "ownerName",
          "type": "string"
        },
        {
          "internalType": "address payable",
          "name": "ownerAddress",
          "type": "address"
        }
      ],
      "stateMutability": "view",
      "type": "function"
    },
    {
      "inputs": [
        {
          "internalType": "bytes32",
          "name": "",
          "type": "bytes32"
        }
      ],
      "name": "ProductsList",
      "outputs": [
        {
          "internalType": "bytes32",
          "name": "productHash",
          "type": "bytes32"
        },
        {
          "internalType": "string",
          "name": "description",
          "type": "string"
        },
        {
          "internalType": "uint256",
          "name": "price",
          "type": "uint256"
        },
        {
          "internalType": "bool",
          "name": "isForSale",
          "type": "bool"
        },
        {
          "internalType": "address payable",
          "name": "owner",
          "type": "address"
        }
      ],
      "stateMutability": "view",
      "type": "function"
    },
    {
      "inputs": [
        {
          "internalType": "address",
          "name": "reciever",
          "type": "address"
        }
      ],
      "name": "SendEther",
      "outputs": [],
      "stateMutability": "payable",
      "type": "function"
    },
    {
      "inputs": [
        {
          "internalType": "address",
          "name": "seller",
          "type": "address"
        },
        {
          "internalType": "bytes32[]",
          "name": "productHashes",
          "type": "bytes32[]"
        },
        {
          "internalType": "uint256",
          "name": "totalPrice",
          "type": "uint256"
        }
      ],
      "name": "buyManyProducts",
      "outputs": [],
      "stateMutability": "payable",
      "type": "function"
    },
    {
      "inputs": [
        {
          "internalType": "address",
          "name": "seller",
          "type": "address"
        },
        {
          "internalType": "bytes32",
          "name": "productHash",
          "type": "bytes32"
        }
      ],
      "name": "buyProduct",
      "outputs": [
        {
          "internalType": "bool",
          "name": "",
          "type": "bool"
        }
      ],
      "stateMutability": "payable",
      "type": "function"
    },
    {
      "inputs": [
        {
          "internalType": "address",
          "name": "ownerAddress",
          "type": "address"
        },
        {
          "internalType": "uint256",
          "name": "number",
          "type": "uint256"
        }
      ],
      "name": "generateHash",
      "outputs": [
        {
          "internalType": "bytes32",
          "name": "",
          "type": "bytes32"
        }
      ],
      "stateMutability": "pure",
      "type": "function"
    },
    {
      "inputs": [
        {
          "internalType": "address",
          "name": "ownerAddress",
          "type": "address"
        }
      ],
      "name": "getAllProductsByOwner",
      "outputs": [
        {
          "components": [
            {
              "internalType": "bytes32",
              "name": "productHash",
              "type": "bytes32"
            },
            {
              "internalType": "string",
              "name": "description",
              "type": "string"
            },
            {
              "internalType": "uint256",
              "name": "price",
              "type": "uint256"
            },
            {
              "internalType": "bool",
              "name": "isForSale",
              "type": "bool"
            },
            {
              "internalType": "address payable",
              "name": "owner",
              "type": "address"
            }
          ],
          "internalType": "struct temp.Product[]",
          "name": "",
          "type": "tuple[]"
        }
      ],
      "stateMutability": "view",
      "type": "function"
    },
    {
      "inputs": [],
      "name": "ownerCount",
      "outputs": [
        {
          "internalType": "uint256",
          "name": "",
          "type": "uint256"
        }
      ],
      "stateMutability": "view",
      "type": "function"
    },
    {
      "inputs": [],
      "name": "productCount",
      "outputs": [
        {
          "internalType": "uint256",
          "name": "",
          "type": "uint256"
        }
      ],
      "stateMutability": "view",
      "type": "function"
    },
    {
      "inputs": [
        {
          "internalType": "address",
          "name": "ownerAddress",
          "type": "address"
        },
        {
          "internalType": "string",
          "name": "ownerName",
          "type": "string"
        }
      ],
      "name": "registerOwner",
      "outputs": [
        {
          "internalType": "bool",
          "name": "",
          "type": "bool"
        }
      ],
      "stateMutability": "nonpayable",
      "type": "function"
    },
    {
      "inputs": [
        {
          "internalType": "address",
          "name": "ownerAddress",
          "type": "address"
        },
        {
          "internalType": "string",
          "name": "desc",
          "type": "string"
        },
        {
          "internalType": "uint256",
          "name": "price",
          "type": "uint256"
        }
      ],
      "name": "registerProduct",
      "outputs": [
        {
          "internalType": "bool",
          "name": "",
          "type": "bool"
        }
      ],
      "stateMutability": "nonpayable",
      "type": "function"
    },
    {
      "inputs": [
        {
          "internalType": "bytes32",
          "name": "productHash",
          "type": "bytes32"
        }
      ],
      "name": "setProductForSale",
      "outputs": [
        {
          "internalType": "bool",
          "name": "",
          "type": "bool"
        }
      ],
      "stateMutability": "nonpayable",
      "type": "function"
    },
    {
      "inputs": [
        {
          "internalType": "address",
          "name": "ownerAddress",
          "type": "address"
        },
        {
          "internalType": "bytes32",
          "name": "productHash",
          "type": "bytes32"
        }
      ],
      "name": "verifyOwner",
      "outputs": [
        {
          "internalType": "bool",
          "name": "",
          "type": "bool"
        }
      ],
      "stateMutability": "view",
      "type": "function"
    }
  ],
  "bytecode": "0x60806040525f80555f600155348015610016575f80fd5b50612bd0806100245f395ff3fe6080604052600436106100c1575f3560e01c80639623136a1161007e578063dee3c92811610058578063dee3c928146102a4578063e0f6ef87146102e4578063e909da211461030e578063f82ef67e1461032a576100c1565b80639623136a146101ef578063c0c4a20f1461022b578063d562966f14610268576100c1565b80630db02622146100c5578063522eae7b146100ef57806352a051bc1461011f57806355442bae1461013b57806360750a4f146101775780636886d552146101b3575b5f80fd5b3480156100d0575f80fd5b506100d9610366565b6040516100e6919061197f565b60405180910390f35b61010960048036038101906101049190611a36565b61036c565b6040516101169190611a8e565b60405180910390f35b61013960048036038101906101349190611aa7565b6106dc565b005b348015610146575f80fd5b50610161600480360381019061015c9190611aa7565b610765565b60405161016e9190611cd7565b60405180910390f35b348015610182575f80fd5b5061019d60048036038101906101989190611d21565b610a66565b6040516101aa9190611d6e565b60405180910390f35b3480156101be575f80fd5b506101d960048036038101906101d49190611eb3565b610aa3565b6040516101e69190611a8e565b60405180910390f35b3480156101fa575f80fd5b5061021560048036038101906102109190611f0d565b610d7e565b6040516102229190611a8e565b60405180910390f35b348015610236575f80fd5b50610251600480360381019061024c9190611aa7565b61108b565b60405161025f929190611fd0565b60405180910390f35b348015610273575f80fd5b5061028e60048036038101906102899190611ffe565b611150565b60405161029b9190611a8e565b60405180910390f35b3480156102af575f80fd5b506102ca60048036038101906102c59190611ffe565b6112d7565b6040516102db959493929190612029565b60405180910390f35b3480156102ef575f80fd5b506102f86113bb565b604051610305919061197f565b60405180910390f35b61032860048036038101906103239190612145565b6113c0565b005b348015610335575f80fd5b50610350600480360381019061034b9190611a36565b61161c565b60405161035d9190611a8e565b60405180910390f35b60015481565b5f8273ffffffffffffffffffffffffffffffffffffffff1660035f8481526020019081526020015f2060030160019054906101000a900473ffffffffffffffffffffffffffffffffffffffff1673ffffffffffffffffffffffffffffffffffffffff161461040f576040517f08c379a0000000000000000000000000000000000000000000000000000000008152600401610406906121fb565b60405180910390fd5b5f73ffffffffffffffffffffffffffffffffffffffff1660025f8573ffffffffffffffffffffffffffffffffffffffff1673ffffffffffffffffffffffffffffffffffffffff1681526020019081526020015f206001015f9054906101000a900473ffffffffffffffffffffffffffffffffffffffff1673ffffffffffffffffffffffffffffffffffffffff16036104dc576040517f08c379a00000000000000000000000000000000000000000000000000000000081526004016104d390612263565b60405180910390fd5b60035f8381526020019081526020015f206003015f9054906101000a900460ff1661053c576040517f08c379a0000000000000000000000000000000000000000000000000000000008152600401610533906122cb565b60405180910390fd5b61054683836117bb565b3360035f8481526020019081526020015f2060030160016101000a81548173ffffffffffffffffffffffffffffffffffffffff021916908373ffffffffffffffffffffffffffffffffffffffff1602179055505f60035f8481526020019081526020015f206003015f6101000a81548160ff02191690831515021790555060025f3373ffffffffffffffffffffffffffffffffffffffff1673ffffffffffffffffffffffffffffffffffffffff1681526020019081526020015f2060020182908060018154018082558091505060019003905f5260205f20015f90919091909150558273ffffffffffffffffffffffffffffffffffffffff166108fc3490811502906040515f60405180830381858888f1935050505015801561066b573d5f803e3d5ffd5b50813373ffffffffffffffffffffffffffffffffffffffff168473ffffffffffffffffffffffffffffffffffffffff167ff7cffcad6931cf18fda74a4607f3fd0cb400aeae1431c4a9b54b1db30eee738a346040516106ca919061197f565b60405180910390a46001905092915050565b5f341161071e576040517f08c379a000000000000000000000000000000000000000000000000000000000815260040161071590612333565b60405180910390fd5b8073ffffffffffffffffffffffffffffffffffffffff166108fc3490811502906040515f60405180830381858888f19350505050158015610761573d5f803e3d5ffd5b5050565b60605f73ffffffffffffffffffffffffffffffffffffffff1660025f8473ffffffffffffffffffffffffffffffffffffffff1673ffffffffffffffffffffffffffffffffffffffff1681526020019081526020015f206001015f9054906101000a900473ffffffffffffffffffffffffffffffffffffffff1673ffffffffffffffffffffffffffffffffffffffff1603610834576040517f08c379a000000000000000000000000000000000000000000000000000000000815260040161082b9061239b565b60405180910390fd5b5f60025f8473ffffffffffffffffffffffffffffffffffffffff1673ffffffffffffffffffffffffffffffffffffffff1681526020019081526020015f2060020190505f818054905067ffffffffffffffff81111561089657610895611d8f565b5b6040519080825280602002602001820160405280156108cf57816020015b6108bc6118bb565b8152602001906001900390816108b45790505b5090505f5b8280549050811015610a5b5760035f8483815481106108f6576108f56123b9565b5b905f5260205f20015481526020019081526020015f206040518060a00160405290815f820154815260200160018201805461093090612413565b80601f016020809104026020016040519081016040528092919081815260200182805461095c90612413565b80156109a75780601f1061097e576101008083540402835291602001916109a7565b820191905f5260205f20905b81548152906001019060200180831161098a57829003601f168201915b5050505050815260200160028201548152602001600382015f9054906101000a900460ff161515151581526020016003820160019054906101000a900473ffffffffffffffffffffffffffffffffffffffff1673ffffffffffffffffffffffffffffffffffffffff1673ffffffffffffffffffffffffffffffffffffffff1681525050828281518110610a3d57610a3c6123b9565b5b60200260200101819052508080610a5390612470565b9150506108d4565b508092505050919050565b5f828283610a7491906124b7565b604051602001610a8592919061255d565b60405160208183030381529060405280519060200120905092915050565b5f8073ffffffffffffffffffffffffffffffffffffffff168373ffffffffffffffffffffffffffffffffffffffff1603610b12576040517f08c379a0000000000000000000000000000000000000000000000000000000008152600401610b09906125d2565b60405180910390fd5b5f73ffffffffffffffffffffffffffffffffffffffff1660025f8573ffffffffffffffffffffffffffffffffffffffff1673ffffffffffffffffffffffffffffffffffffffff1681526020019081526020015f206001015f9054906101000a900473ffffffffffffffffffffffffffffffffffffffff1673ffffffffffffffffffffffffffffffffffffffff1614610bdf576040517f08c379a0000000000000000000000000000000000000000000000000000000008152600401610bd69061263a565b60405180910390fd5b60015f815480929190610bf190612470565b919050555060405180606001604052808381526020018473ffffffffffffffffffffffffffffffffffffffff1681526020015f67ffffffffffffffff811115610c3d57610c3c611d8f565b5b604051908082528060200260200182016040528015610c6b5781602001602082028036833780820191505090505b5081525060025f8573ffffffffffffffffffffffffffffffffffffffff1673ffffffffffffffffffffffffffffffffffffffff1681526020019081526020015f205f820151815f019081610cbf91906127f5565b506020820151816001015f6101000a81548173ffffffffffffffffffffffffffffffffffffffff021916908373ffffffffffffffffffffffffffffffffffffffff1602179055506040820151816002019080519060200190610d22929190611901565b509050508273ffffffffffffffffffffffffffffffffffffffff167f5f66e430b448d83d46a65ab17a365f04c0c8f1a66ac20bcc38dfde7f2d67514183604051610d6c91906128c4565b60405180910390a26001905092915050565b5f8073ffffffffffffffffffffffffffffffffffffffff168473ffffffffffffffffffffffffffffffffffffffff1603610ded576040517f08c379a0000000000000000000000000000000000000000000000000000000008152600401610de49061292e565b60405180910390fd5b5f73ffffffffffffffffffffffffffffffffffffffff1660025f8673ffffffffffffffffffffffffffffffffffffffff1673ffffffffffffffffffffffffffffffffffffffff1681526020019081526020015f206001015f9054906101000a900473ffffffffffffffffffffffffffffffffffffffff1673ffffffffffffffffffffffffffffffffffffffff1603610eba576040517f08c379a0000000000000000000000000000000000000000000000000000000008152600401610eb19061239b565b60405180910390fd5b5f80815480929190610ecb90612470565b91905055505f845f54604051602001610ee592919061255d565b6040516020818303038152906040528051906020012090505f6040518060a001604052808381526020018681526020018581526020015f151581526020018773ffffffffffffffffffffffffffffffffffffffff1681525090508060035f8481526020019081526020015f205f820151815f01556020820151816001019081610f6e91906127f5565b50604082015181600201556060820151816003015f6101000a81548160ff02191690831515021790555060808201518160030160016101000a81548173ffffffffffffffffffffffffffffffffffffffff021916908373ffffffffffffffffffffffffffffffffffffffff16021790555090505060025f8773ffffffffffffffffffffffffffffffffffffffff1673ffffffffffffffffffffffffffffffffffffffff1681526020019081526020015f2060020182908060018154018082558091505060019003905f5260205f20015f9091909190915055817fc9484fe818367891478f62bbffa32d87f515bbcb8e28e2106e62c73335747baa87604051611076919061295b565b60405180910390a26001925050509392505050565b6002602052805f5260405f205f91509050805f0180546110aa90612413565b80601f01602080910402602001604051908101604052809291908181526020018280546110d690612413565b80156111215780601f106110f857610100808354040283529160200191611121565b820191905f5260205f20905b81548152906001019060200180831161110457829003601f168201915b505050505090806001015f9054906101000a900473ffffffffffffffffffffffffffffffffffffffff16905082565b5f3373ffffffffffffffffffffffffffffffffffffffff1660035f8481526020019081526020015f2060030160019054906101000a900473ffffffffffffffffffffffffffffffffffffffff1673ffffffffffffffffffffffffffffffffffffffff16146111f3576040517f08c379a00000000000000000000000000000000000000000000000000000000081526004016111ea906129e4565b60405180910390fd5b5f801b60035f8481526020019081526020015f205f01540361124a576040517f08c379a000000000000000000000000000000000000000000000000000000000815260040161124190612a4c565b60405180910390fd5b600160035f8481526020019081526020015f206003015f6101000a81548160ff021916908315150217905550817fd98f6f58fc8adebda4634cbb1a786370cbd3632ec5638326be4b17cb6070726d60035f8581526020019081526020015f206003015f9054906101000a900460ff166040516112c69190611a8e565b60405180910390a260019050919050565b6003602052805f5260405f205f91509050805f0154908060010180546112fc90612413565b80601f016020809104026020016040519081016040528092919081815260200182805461132890612413565b80156113735780601f1061134a57610100808354040283529160200191611373565b820191905f5260205f20905b81548152906001019060200180831161135657829003601f168201915b505050505090806002015490806003015f9054906101000a900460ff16908060030160019054906101000a900473ffffffffffffffffffffffffffffffffffffffff16905085565b5f5481565b803414611402576040517f08c379a00000000000000000000000000000000000000000000000000000000081526004016113f990612ab4565b60405180910390fd5b5f5b82518110156115d2575f838281518110611421576114206123b9565b5b602002602001015190505f60035f8381526020019081526020015f2090508573ffffffffffffffffffffffffffffffffffffffff168160030160019054906101000a900473ffffffffffffffffffffffffffffffffffffffff1673ffffffffffffffffffffffffffffffffffffffff16146114d1576040517f08c379a00000000000000000000000000000000000000000000000000000000081526004016114c890612b1c565b60405180910390fd5b6114db86836117bb565b3360035f8481526020019081526020015f2060030160016101000a81548173ffffffffffffffffffffffffffffffffffffffff021916908373ffffffffffffffffffffffffffffffffffffffff1602179055505f60035f8481526020019081526020015f206003015f6101000a81548160ff02191690831515021790555060025f3373ffffffffffffffffffffffffffffffffffffffff1673ffffffffffffffffffffffffffffffffffffffff1681526020019081526020015f2060020182908060018154018082558091505060019003905f5260205f20015f9091909190915055505080806115ca90612470565b915050611404565b508273ffffffffffffffffffffffffffffffffffffffff166108fc3490811502906040515f60405180830381858888f19350505050158015611616573d5f803e3d5ffd5b50505050565b5f8073ffffffffffffffffffffffffffffffffffffffff1660025f8573ffffffffffffffffffffffffffffffffffffffff1673ffffffffffffffffffffffffffffffffffffffff1681526020019081526020015f206001015f9054906101000a900473ffffffffffffffffffffffffffffffffffffffff1673ffffffffffffffffffffffffffffffffffffffff16036116ea576040517f08c379a00000000000000000000000000000000000000000000000000000000081526004016116e19061239b565b60405180910390fd5b5f801b60035f8481526020019081526020015f205f015403611741576040517f08c379a000000000000000000000000000000000000000000000000000000000815260040161173890612a4c565b60405180910390fd5b8273ffffffffffffffffffffffffffffffffffffffff1660035f8481526020019081526020015f2060030160019054906101000a900473ffffffffffffffffffffffffffffffffffffffff1673ffffffffffffffffffffffffffffffffffffffff16036117b157600190506117b5565b5f90505b92915050565b5f60025f8473ffffffffffffffffffffffffffffffffffffffff1673ffffffffffffffffffffffffffffffffffffffff1681526020019081526020015f2060020190505f5b81805490508110156118b557828282815481106118205761181f6123b9565b5b905f5260205f200154036118a25781600183805490506118409190612b3a565b81548110611851576118506123b9565b5b905f5260205f20015482828154811061186d5761186c6123b9565b5b905f5260205f2001819055508180548061188a57611889612b6d565b5b600190038181905f5260205f20015f905590556118b5565b80806118ad90612470565b915050611800565b50505050565b6040518060a001604052805f8019168152602001606081526020015f81526020015f151581526020015f73ffffffffffffffffffffffffffffffffffffffff1681525090565b828054828255905f5260205f2090810192821561193b579160200282015b8281111561193a57825182559160200191906001019061191f565b5b509050611948919061194c565b5090565b5b80821115611963575f815f90555060010161194d565b5090565b5f819050919050565b61197981611967565b82525050565b5f6020820190506119925f830184611970565b92915050565b5f604051905090565b5f80fd5b5f80fd5b5f73ffffffffffffffffffffffffffffffffffffffff82169050919050565b5f6119d2826119a9565b9050919050565b6119e2816119c8565b81146119ec575f80fd5b50565b5f813590506119fd816119d9565b92915050565b5f819050919050565b611a1581611a03565b8114611a1f575f80fd5b50565b5f81359050611a3081611a0c565b92915050565b5f8060408385031215611a4c57611a4b6119a1565b5b5f611a59858286016119ef565b9250506020611a6a85828601611a22565b9150509250929050565b5f8115159050919050565b611a8881611a74565b82525050565b5f602082019050611aa15f830184611a7f565b92915050565b5f60208284031215611abc57611abb6119a1565b5b5f611ac9848285016119ef565b91505092915050565b5f81519050919050565b5f82825260208201905092915050565b5f819050602082019050919050565b611b0481611a03565b82525050565b5f81519050919050565b5f82825260208201905092915050565b5f5b83811015611b41578082015181840152602081019050611b26565b5f8484015250505050565b5f601f19601f8301169050919050565b5f611b6682611b0a565b611b708185611b14565b9350611b80818560208601611b24565b611b8981611b4c565b840191505092915050565b611b9d81611967565b82525050565b611bac81611a74565b82525050565b5f611bbc826119a9565b9050919050565b611bcc81611bb2565b82525050565b5f60a083015f830151611be75f860182611afb565b5060208301518482036020860152611bff8282611b5c565b9150506040830151611c146040860182611b94565b506060830151611c276060860182611ba3565b506080830151611c3a6080860182611bc3565b508091505092915050565b5f611c508383611bd2565b905092915050565b5f602082019050919050565b5f611c6e82611ad2565b611c788185611adc565b935083602082028501611c8a85611aec565b805f5b85811015611cc55784840389528151611ca68582611c45565b9450611cb183611c58565b925060208a01995050600181019050611c8d565b50829750879550505050505092915050565b5f6020820190508181035f830152611cef8184611c64565b905092915050565b611d0081611967565b8114611d0a575f80fd5b50565b5f81359050611d1b81611cf7565b92915050565b5f8060408385031215611d3757611d366119a1565b5b5f611d44858286016119ef565b9250506020611d5585828601611d0d565b9150509250929050565b611d6881611a03565b82525050565b5f602082019050611d815f830184611d5f565b92915050565b5f80fd5b5f80fd5b7f4e487b71000000000000000000000000000000000000000000000000000000005f52604160045260245ffd5b611dc582611b4c565b810181811067ffffffffffffffff82111715611de457611de3611d8f565b5b80604052505050565b5f611df6611998565b9050611e028282611dbc565b919050565b5f67ffffffffffffffff821115611e2157611e20611d8f565b5b611e2a82611b4c565b9050602081019050919050565b828183375f83830152505050565b5f611e57611e5284611e07565b611ded565b905082815260208101848484011115611e7357611e72611d8b565b5b611e7e848285611e37565b509392505050565b5f82601f830112611e9a57611e99611d87565b5b8135611eaa848260208601611e45565b91505092915050565b5f8060408385031215611ec957611ec86119a1565b5b5f611ed6858286016119ef565b925050602083013567ffffffffffffffff811115611ef757611ef66119a5565b5b611f0385828601611e86565b9150509250929050565b5f805f60608486031215611f2457611f236119a1565b5b5f611f31868287016119ef565b935050602084013567ffffffffffffffff811115611f5257611f516119a5565b5b611f5e86828701611e86565b9250506040611f6f86828701611d0d565b9150509250925092565b5f82825260208201905092915050565b5f611f9382611b0a565b611f9d8185611f79565b9350611fad818560208601611b24565b611fb681611b4c565b840191505092915050565b611fca81611bb2565b82525050565b5f6040820190508181035f830152611fe88185611f89565b9050611ff76020830184611fc1565b9392505050565b5f60208284031215612013576120126119a1565b5b5f61202084828501611a22565b91505092915050565b5f60a08201905061203c5f830188611d5f565b818103602083015261204e8187611f89565b905061205d6040830186611970565b61206a6060830185611a7f565b6120776080830184611fc1565b9695505050505050565b5f67ffffffffffffffff82111561209b5761209a611d8f565b5b602082029050602081019050919050565b5f80fd5b5f6120c26120bd84612081565b611ded565b905080838252602082019050602084028301858111156120e5576120e46120ac565b5b835b8181101561210e57806120fa8882611a22565b8452602084019350506020810190506120e7565b5050509392505050565b5f82601f83011261212c5761212b611d87565b5b813561213c8482602086016120b0565b91505092915050565b5f805f6060848603121561215c5761215b6119a1565b5b5f612169868287016119ef565b935050602084013567ffffffffffffffff81111561218a576121896119a5565b5b61219686828701612118565b92505060406121a786828701611d0d565b9150509250925092565b7f53656c6c6572206973206e6f7420746865206f776e65720000000000000000005f82015250565b5f6121e5601783611f79565b91506121f0826121b1565b602082019050919050565b5f6020820190508181035f830152612212816121d9565b9050919050565b7f53656c6c6572206e6f74207265676973746572656400000000000000000000005f82015250565b5f61224d601583611f79565b915061225882612219565b602082019050919050565b5f6020820190508181035f83015261227a81612241565b9050919050565b7f50726f64756374206973206e6f7420666f722073616c650000000000000000005f82015250565b5f6122b5601783611f79565b91506122c082612281565b602082019050919050565b5f6020820190508181035f8301526122e2816122a9565b9050919050565b7f416d6f756e742073686f756c642062652067726561746572207468616e2030005f82015250565b5f61231d601f83611f79565b9150612328826122e9565b602082019050919050565b5f6020820190508181035f83015261234a81612311565b9050919050565b7f4f776e6572206e6f7420726567697374657265640000000000000000000000005f82015250565b5f612385601483611f79565b915061239082612351565b602082019050919050565b5f6020820190508181035f8301526123b281612379565b9050919050565b7f4e487b71000000000000000000000000000000000000000000000000000000005f52603260045260245ffd5b7f4e487b71000000000000000000000000000000000000000000000000000000005f52602260045260245ffd5b5f600282049050600182168061242a57607f821691505b60208210810361243d5761243c6123e6565b5b50919050565b7f4e487b71000000000000000000000000000000000000000000000000000000005f52601160045260245ffd5b5f61247a82611967565b91507fffffffffffffffffffffffffffffffffffffffffffffffffffffffffffffffff82036124ac576124ab612443565b5b600182019050919050565b5f6124c182611967565b91506124cc83611967565b92508282026124da81611967565b915082820484148315176124f1576124f0612443565b5b5092915050565b5f8160601b9050919050565b5f61250e826124f8565b9050919050565b5f61251f82612504565b9050919050565b612537612532826119c8565b612515565b82525050565b5f819050919050565b61255761255282611967565b61253d565b82525050565b5f6125688285612526565b6014820191506125788284612546565b6020820191508190509392505050565b7f496e76616c6964206164647265737300000000000000000000000000000000005f82015250565b5f6125bc600f83611f79565b91506125c782612588565b602082019050919050565b5f6020820190508181035f8301526125e9816125b0565b9050919050565b7f4f776e657220616c7265616479207265676973746572656400000000000000005f82015250565b5f612624601883611f79565b915061262f826125f0565b602082019050919050565b5f6020820190508181035f83015261265181612618565b9050919050565b5f819050815f5260205f209050919050565b5f6020601f8301049050919050565b5f82821b905092915050565b5f600883026126b47fffffffffffffffffffffffffffffffffffffffffffffffffffffffffffffffff82612679565b6126be8683612679565b95508019841693508086168417925050509392505050565b5f819050919050565b5f6126f96126f46126ef84611967565b6126d6565b611967565b9050919050565b5f819050919050565b612712836126df565b61272661271e82612700565b848454612685565b825550505050565b5f90565b61273a61272e565b612745818484612709565b505050565b5b818110156127685761275d5f82612732565b60018101905061274b565b5050565b601f8211156127ad5761277e81612658565b6127878461266a565b81016020851015612796578190505b6127aa6127a28561266a565b83018261274a565b50505b505050565b5f82821c905092915050565b5f6127cd5f19846008026127b2565b1980831691505092915050565b5f6127e583836127be565b9150826002028217905092915050565b6127fe82611b0a565b67ffffffffffffffff81111561281757612816611d8f565b5b6128218254612413565b61282c82828561276c565b5f60209050601f83116001811461285d575f841561284b578287015190505b61285585826127da565b8655506128bc565b601f19841661286b86612658565b5f5b828110156128925784890151825560018201915060208501945060208101905061286d565b868310156128af57848901516128ab601f8916826127be565b8355505b6001600288020188555050505b505050505050565b5f6020820190508181035f8301526128dc8184611f89565b905092915050565b7f496e76616c6964206f776e6572206164647265737300000000000000000000005f82015250565b5f612918601583611f79565b9150612923826128e4565b602082019050919050565b5f6020820190508181035f8301526129458161290c565b9050919050565b612955816119c8565b82525050565b5f60208201905061296e5f83018461294c565b92915050565b7f4f6e6c7920746865206f776e65722063616e20736574207468652070726f64755f8201527f637420666f722073616c65000000000000000000000000000000000000000000602082015250565b5f6129ce602b83611f79565b91506129d982612974565b604082019050919050565b5f6020820190508181035f8301526129fb816129c2565b9050919050565b7f50726f6475637420646f6573206e6f74206578697374000000000000000000005f82015250565b5f612a36601683611f79565b9150612a4182612a02565b602082019050919050565b5f6020820190508181035f830152612a6381612a2a565b9050919050565b7f696e636f7272656374207061796d656e7420616d6f756e7400000000000000005f82015250565b5f612a9e601883611f79565b9150612aa982612a6a565b602082019050919050565b5f6020820190508181035f830152612acb81612a92565b9050919050565b7f73656c6c657220646f6573206e6f74206f776e207468652070726f64756374005f82015250565b5f612b06601f83611f79565b9150612b1182612ad2565b602082019050919050565b5f6020820190508181035f830152612b3381612afa565b9050919050565b5f612b4482611967565b9150612b4f83611967565b9250828203905081811115612b6757612b66612443565b5b92915050565b7f4e487b71000000000000000000000000000000000000000000000000000000005f52603160045260245ffdfea2646970667358221220edb346928ca52984def25bbfec01a6273aa282ca2cdd71e4a35c1c7ae03b91bc64736f6c63430008140033",
  "linkReferences": {},
  "deployedLinkReferences": {}
}