{
  "_format": "hh-sol-artifact-1",
  "contractName": "temp",
  "sourceName": "contracts/temp.sol",
  "abi": [
    {
      "anonymous": false,
      "inputs": [
        {
          "indexed": true,
          "internalType": "bytes32",
          "name": "productHash",
          "type": "bytes32"
        },
        {
          "indexed": true,
          "internalType": "address",
          "name": "owner",
          "type": "address"
        }
      ],
      "name": "GetOwnerOfProd",
      "type": "event"
    },
    {
      "anonymous": false,
      "inputs": [
        {
          "indexed": true,
          "internalType": "address",
          "name": "sender",
          "type": "address"
        },
        {
          "indexed": true,
          "internalType": "address",
          "name": "reciever",
          "type": "address"
        },
        {
          "indexed": false,
          "internalType": "string",
          "name": "message",
          "type": "string"
        }
      ],
      "name": "NotificationSent",
      "type": "event"
    },
    {
      "anonymous": false,
      "inputs": [
        {
          "indexed": true,
          "internalType": "address",
          "name": "ownerAddress",
          "type": "address"
        },
        {
          "indexed": false,
          "internalType": "string",
          "name": "ownerName",
          "type": "string"
        }
      ],
      "name": "OwnerRegistered",
      "type": "event"
    },
    {
      "anonymous": false,
      "inputs": [
        {
          "indexed": true,
          "internalType": "address",
          "name": "ownerAddress",
          "type": "address"
        },
        {
          "indexed": false,
          "internalType": "bytes32",
          "name": "productHash",
          "type": "bytes32"
        },
        {
          "indexed": false,
          "internalType": "bool",
          "name": "verified",
          "type": "bool"
        },
        {
          "indexed": true,
          "internalType": "uint256",
          "name": "timestamp",
          "type": "uint256"
        }
      ],
      "name": "OwnerVerified",
      "type": "event"
    },
    {
      "anonymous": false,
      "inputs": [
        {
          "indexed": true,
          "internalType": "bytes32",
          "name": "productHash",
          "type": "bytes32"
        },
        {
          "indexed": false,
          "internalType": "string",
          "name": "newDescription",
          "type": "string"
        }
      ],
      "name": "ProductDescriptionChanged",
      "type": "event"
    },
    {
      "anonymous": false,
      "inputs": [
        {
          "indexed": true,
          "internalType": "bytes32",
          "name": "productHash",
          "type": "bytes32"
        },
        {
          "indexed": false,
          "internalType": "bool",
          "name": "forSale",
          "type": "bool"
        }
      ],
      "name": "ProductForSaleSet",
      "type": "event"
    },
    {
      "anonymous": false,
      "inputs": [
        {
          "indexed": true,
          "internalType": "bytes32",
          "name": "productHash",
          "type": "bytes32"
        },
        {
          "indexed": false,
          "internalType": "uint256",
          "name": "newPrice",
          "type": "uint256"
        }
      ],
      "name": "ProductPriceChanged",
      "type": "event"
    },
    {
      "anonymous": false,
      "inputs": [
        {
          "indexed": true,
          "internalType": "bytes32",
          "name": "productHash",
          "type": "bytes32"
        },
        {
          "indexed": false,
          "internalType": "address",
          "name": "ownerAddress",
          "type": "address"
        }
      ],
      "name": "ProductRegistered",
      "type": "event"
    },
    {
      "anonymous": false,
      "inputs": [
        {
          "indexed": true,
          "internalType": "address",
          "name": "seller",
          "type": "address"
        },
        {
          "indexed": true,
          "internalType": "address",
          "name": "buyer",
          "type": "address"
        },
        {
          "indexed": true,
          "internalType": "bytes32",
          "name": "productHash",
          "type": "bytes32"
        },
        {
          "indexed": false,
          "internalType": "uint256",
          "name": "price",
          "type": "uint256"
        }
      ],
      "name": "ProductSold",
      "type": "event"
    },
    {
      "inputs": [
        {
          "internalType": "address",
          "name": "",
          "type": "address"
        }
      ],
      "name": "OwnersList",
      "outputs": [
        {
          "internalType": "string",
          "name": "ownerName",
          "type": "string"
        },
        {
          "internalType": "address payable",
          "name": "ownerAddress",
          "type": "address"
        }
      ],
      "stateMutability": "view",
      "type": "function"
    },
    {
      "inputs": [
        {
          "internalType": "bytes32",
          "name": "",
          "type": "bytes32"
        }
      ],
      "name": "ProductsList",
      "outputs": [
        {
          "internalType": "bytes32",
          "name": "productHash",
          "type": "bytes32"
        },
        {
          "internalType": "string",
          "name": "description",
          "type": "string"
        },
        {
          "internalType": "uint256",
          "name": "price",
          "type": "uint256"
        },
        {
          "internalType": "bool",
          "name": "isForSale",
          "type": "bool"
        },
        {
          "internalType": "address payable",
          "name": "owner",
          "type": "address"
        }
      ],
      "stateMutability": "view",
      "type": "function"
    },
    {
      "inputs": [
        {
          "internalType": "address",
          "name": "reciever",
          "type": "address"
        }
      ],
      "name": "SendEther",
      "outputs": [],
      "stateMutability": "payable",
      "type": "function"
    },
    {
      "inputs": [
        {
          "internalType": "address",
          "name": "seller",
          "type": "address"
        },
        {
          "internalType": "bytes32[]",
          "name": "productHashes",
          "type": "bytes32[]"
        },
        {
          "internalType": "uint256",
          "name": "totalPrice",
          "type": "uint256"
        }
      ],
      "name": "buyManyProducts",
      "outputs": [],
      "stateMutability": "payable",
      "type": "function"
    },
    {
      "inputs": [
        {
          "internalType": "address",
          "name": "seller",
          "type": "address"
        },
        {
          "internalType": "bytes32",
          "name": "productHash",
          "type": "bytes32"
        }
      ],
      "name": "buyProduct",
      "outputs": [
        {
          "internalType": "bool",
          "name": "",
          "type": "bool"
        }
      ],
      "stateMutability": "payable",
      "type": "function"
    },
    {
      "inputs": [
        {
          "internalType": "address",
          "name": "ownerAddress",
          "type": "address"
        },
        {
          "internalType": "uint256",
          "name": "number",
          "type": "uint256"
        }
      ],
      "name": "generateHash",
      "outputs": [
        {
          "internalType": "bytes32",
          "name": "",
          "type": "bytes32"
        }
      ],
      "stateMutability": "pure",
      "type": "function"
    },
    {
      "inputs": [
        {
          "internalType": "address",
          "name": "ownerAddress",
          "type": "address"
        }
      ],
      "name": "getAllProductsByOwner",
      "outputs": [
        {
          "components": [
            {
              "internalType": "bytes32",
              "name": "productHash",
              "type": "bytes32"
            },
            {
              "internalType": "string",
              "name": "description",
              "type": "string"
            },
            {
              "internalType": "uint256",
              "name": "price",
              "type": "uint256"
            },
            {
              "internalType": "bool",
              "name": "isForSale",
              "type": "bool"
            },
            {
              "internalType": "address payable",
              "name": "owner",
              "type": "address"
            }
          ],
          "internalType": "struct temp.Product[]",
          "name": "",
          "type": "tuple[]"
        }
      ],
      "stateMutability": "view",
      "type": "function"
    },
    {
      "inputs": [],
      "name": "ownerCount",
      "outputs": [
        {
          "internalType": "uint256",
          "name": "",
          "type": "uint256"
        }
      ],
      "stateMutability": "view",
      "type": "function"
    },
    {
      "inputs": [],
      "name": "productCount",
      "outputs": [
        {
          "internalType": "uint256",
          "name": "",
          "type": "uint256"
        }
      ],
      "stateMutability": "view",
      "type": "function"
    },
    {
      "inputs": [
        {
          "internalType": "address",
          "name": "ownerAddress",
          "type": "address"
        },
        {
          "internalType": "string",
          "name": "ownerName",
          "type": "string"
        }
      ],
      "name": "registerOwner",
      "outputs": [
        {
          "internalType": "bool",
          "name": "",
          "type": "bool"
        }
      ],
      "stateMutability": "nonpayable",
      "type": "function"
    },
    {
      "inputs": [
        {
          "internalType": "address",
          "name": "ownerAddress",
          "type": "address"
        },
        {
          "internalType": "string",
          "name": "desc",
          "type": "string"
        },
        {
          "internalType": "uint256",
          "name": "price",
          "type": "uint256"
        }
      ],
      "name": "registerProduct",
      "outputs": [
        {
          "internalType": "bool",
          "name": "",
          "type": "bool"
        }
      ],
      "stateMutability": "nonpayable",
      "type": "function"
    },
    {
      "inputs": [
        {
          "internalType": "bytes32",
          "name": "productHash",
          "type": "bytes32"
        }
      ],
      "name": "setProductForSale",
      "outputs": [
        {
          "internalType": "bool",
          "name": "",
          "type": "bool"
        }
      ],
      "stateMutability": "nonpayable",
      "type": "function"
    },
    {
      "inputs": [
        {
          "internalType": "address",
          "name": "ownerAddress",
          "type": "address"
        },
        {
          "internalType": "bytes32",
          "name": "productHash",
          "type": "bytes32"
        }
      ],
      "name": "verifyOwner",
      "outputs": [
        {
          "internalType": "bool",
          "name": "",
          "type": "bool"
        }
      ],
      "stateMutability": "view",
      "type": "function"
    }
  ],
  "bytecode": "0x608060405260008055600060015534801561001957600080fd5b50612b81806100296000396000f3fe6080604052600436106100c25760003560e01c80639623136a1161007f578063dee3c92811610059578063dee3c928146102ad578063e0f6ef87146102ee578063e909da2114610319578063f82ef67e14610335576100c2565b80639623136a146101f5578063c0c4a20f14610232578063d562966f14610270576100c2565b80630db02622146100c7578063522eae7b146100f257806352a051bc1461012257806355442bae1461013e57806360750a4f1461017b5780636886d552146101b8575b600080fd5b3480156100d357600080fd5b506100dc610372565b6040516100e991906124c1565b60405180910390f35b61010c60048036038101906101079190611cb4565b610378565b604051610119919061225f565b60405180910390f35b61013c60048036038101906101379190611c18565b610701565b005b34801561014a57600080fd5b5061016560048036038101906101609190611c18565b61078e565b604051610172919061223d565b60405180910390f35b34801561018757600080fd5b506101a2600480360381019061019d9190611dbf565b610aa1565b6040516101af919061227a565b60405180910390f35b3480156101c457600080fd5b506101df60048036038101906101da9190611cf4565b610adf565b6040516101ec919061225f565b60405180910390f35b34801561020157600080fd5b5061021c60048036038101906102179190611d50565b610dce565b604051610229919061225f565b60405180910390f35b34801561023e57600080fd5b5061025960048036038101906102549190611c18565b6110f8565b604051610267929190612311565b60405180910390f35b34801561027c57600080fd5b5061029760048036038101906102929190611dff565b6111c4565b6040516102a4919061225f565b60405180910390f35b3480156102b957600080fd5b506102d460048036038101906102cf9190611dff565b611359565b6040516102e5959493929190612295565b60405180910390f35b3480156102fa57600080fd5b50610303611444565b60405161031091906124c1565b60405180910390f35b610333600480360381019061032e9190611c45565b61144a565b005b34801561034157600080fd5b5061035c60048036038101906103579190611cb4565b6116b9565b604051610369919061225f565b60405180910390f35b60015481565b60008273ffffffffffffffffffffffffffffffffffffffff166003600084815260200190815260200160002060030160019054906101000a900473ffffffffffffffffffffffffffffffffffffffff1673ffffffffffffffffffffffffffffffffffffffff161461041e576040517f08c379a000000000000000000000000000000000000000000000000000000000815260040161041590612481565b60405180910390fd5b600073ffffffffffffffffffffffffffffffffffffffff16600260008573ffffffffffffffffffffffffffffffffffffffff1673ffffffffffffffffffffffffffffffffffffffff16815260200190815260200160002060010160009054906101000a900473ffffffffffffffffffffffffffffffffffffffff1673ffffffffffffffffffffffffffffffffffffffff1614156104f0576040517f08c379a00000000000000000000000000000000000000000000000000000000081526004016104e790612441565b60405180910390fd5b6003600083815260200190815260200160002060030160009054906101000a900460ff16610553576040517f08c379a000000000000000000000000000000000000000000000000000000000815260040161054a90612461565b60405180910390fd5b61055d8383611866565b336003600084815260200190815260200160002060030160016101000a81548173ffffffffffffffffffffffffffffffffffffffff021916908373ffffffffffffffffffffffffffffffffffffffff16021790555060006003600084815260200190815260200160002060030160006101000a81548160ff021916908315150217905550600260003373ffffffffffffffffffffffffffffffffffffffff1673ffffffffffffffffffffffffffffffffffffffff1681526020019081526020016000206002018290806001815401808255809150506001900390600052602060002001600090919091909150558273ffffffffffffffffffffffffffffffffffffffff166108fc349081150290604051600060405180830381858888f19350505050158015610690573d6000803e3d6000fd5b50813373ffffffffffffffffffffffffffffffffffffffff168473ffffffffffffffffffffffffffffffffffffffff167ff7cffcad6931cf18fda74a4607f3fd0cb400aeae1431c4a9b54b1db30eee738a346040516106ef91906124c1565b60405180910390a46001905092915050565b60003411610744576040517f08c379a000000000000000000000000000000000000000000000000000000000815260040161073b906123e1565b60405180910390fd5b8073ffffffffffffffffffffffffffffffffffffffff166108fc349081150290604051600060405180830381858888f1935050505015801561078a573d6000803e3d6000fd5b5050565b6060600073ffffffffffffffffffffffffffffffffffffffff16600260008473ffffffffffffffffffffffffffffffffffffffff1673ffffffffffffffffffffffffffffffffffffffff16815260200190815260200160002060010160009054906101000a900473ffffffffffffffffffffffffffffffffffffffff1673ffffffffffffffffffffffffffffffffffffffff161415610862576040517f08c379a000000000000000000000000000000000000000000000000000000000815260040161085990612401565b60405180910390fd5b6000600260008473ffffffffffffffffffffffffffffffffffffffff1673ffffffffffffffffffffffffffffffffffffffff16815260200190815260200160002060020190506000818054905067ffffffffffffffff8111156108c8576108c761288e565b5b60405190808252806020026020018201604052801561090157816020015b6108ee611974565b8152602001906001900390816108e65790505b50905060005b8280549050811015610a96576003600084838154811061092a5761092961285f565b5b906000526020600020015481526020019081526020016000206040518060a001604052908160008201548152602001600182018054610968906126f8565b80601f0160208091040260200160405190810160405280929190818152602001828054610994906126f8565b80156109e15780601f106109b6576101008083540402835291602001916109e1565b820191906000526020600020905b8154815290600101906020018083116109c457829003601f168201915b50505050508152602001600282015481526020016003820160009054906101000a900460ff161515151581526020016003820160019054906101000a900473ffffffffffffffffffffffffffffffffffffffff1673ffffffffffffffffffffffffffffffffffffffff1673ffffffffffffffffffffffffffffffffffffffff1681525050828281518110610a7857610a7761285f565b5b60200260200101819052508080610a8e9061275b565b915050610907565b508092505050919050565b6000828283610ab091906125c4565b604051602001610ac19291906121f6565b60405160208183030381529060405280519060200120905092915050565b60008073ffffffffffffffffffffffffffffffffffffffff168373ffffffffffffffffffffffffffffffffffffffff161415610b50576040517f08c379a0000000000000000000000000000000000000000000000000000000008152600401610b4790612361565b60405180910390fd5b600073ffffffffffffffffffffffffffffffffffffffff16600260008573ffffffffffffffffffffffffffffffffffffffff1673ffffffffffffffffffffffffffffffffffffffff16815260200190815260200160002060010160009054906101000a900473ffffffffffffffffffffffffffffffffffffffff1673ffffffffffffffffffffffffffffffffffffffff1614610c21576040517f08c379a0000000000000000000000000000000000000000000000000000000008152600401610c1890612381565b60405180910390fd5b60016000815480929190610c349061275b565b919050555060405180606001604052808381526020018473ffffffffffffffffffffffffffffffffffffffff168152602001600067ffffffffffffffff811115610c8157610c8061288e565b5b604051908082528060200260200182016040528015610caf5781602001602082028036833780820191505090505b50815250600260008573ffffffffffffffffffffffffffffffffffffffff1673ffffffffffffffffffffffffffffffffffffffff1681526020019081526020016000206000820151816000019080519060200190610d0e9291906119be565b5060208201518160010160006101000a81548173ffffffffffffffffffffffffffffffffffffffff021916908373ffffffffffffffffffffffffffffffffffffffff1602179055506040820151816002019080519060200190610d72929190611a44565b509050508273ffffffffffffffffffffffffffffffffffffffff167f5f66e430b448d83d46a65ab17a365f04c0c8f1a66ac20bcc38dfde7f2d67514183604051610dbc91906122ef565b60405180910390a26001905092915050565b60008073ffffffffffffffffffffffffffffffffffffffff168473ffffffffffffffffffffffffffffffffffffffff161415610e3f576040517f08c379a0000000000000000000000000000000000000000000000000000000008152600401610e3690612421565b60405180910390fd5b600073ffffffffffffffffffffffffffffffffffffffff16600260008673ffffffffffffffffffffffffffffffffffffffff1673ffffffffffffffffffffffffffffffffffffffff16815260200190815260200160002060010160009054906101000a900473ffffffffffffffffffffffffffffffffffffffff1673ffffffffffffffffffffffffffffffffffffffff161415610f11576040517f08c379a0000000000000000000000000000000000000000000000000000000008152600401610f0890612401565b60405180910390fd5b600080815480929190610f239061275b565b9190505550600084600054604051602001610f3f9291906121f6565b60405160208183030381529060405280519060200120905060006040518060a001604052808381526020018681526020018581526020016000151581526020018773ffffffffffffffffffffffffffffffffffffffff1681525090508060036000848152602001908152602001600020600082015181600001556020820151816001019080519060200190610fd59291906119be565b506040820151816002015560608201518160030160006101000a81548160ff02191690831515021790555060808201518160030160016101000a81548173ffffffffffffffffffffffffffffffffffffffff021916908373ffffffffffffffffffffffffffffffffffffffff160217905550905050600260008773ffffffffffffffffffffffffffffffffffffffff1673ffffffffffffffffffffffffffffffffffffffff168152602001908152602001600020600201829080600181540180825580915050600190039060005260206000200160009091909190915055817fc9484fe818367891478f62bbffa32d87f515bbcb8e28e2106e62c73335747baa876040516110e39190612222565b60405180910390a26001925050509392505050565b600260205280600052604060002060009150905080600001805461111b906126f8565b80601f0160208091040260200160405190810160405280929190818152602001828054611147906126f8565b80156111945780601f1061116957610100808354040283529160200191611194565b820191906000526020600020905b81548152906001019060200180831161117757829003601f168201915b5050505050908060010160009054906101000a900473ffffffffffffffffffffffffffffffffffffffff16905082565b60003373ffffffffffffffffffffffffffffffffffffffff166003600084815260200190815260200160002060030160019054906101000a900473ffffffffffffffffffffffffffffffffffffffff1673ffffffffffffffffffffffffffffffffffffffff161461126a576040517f08c379a0000000000000000000000000000000000000000000000000000000008152600401611261906123a1565b60405180910390fd5b6000801b600360008481526020019081526020016000206000015414156112c6576040517f08c379a00000000000000000000000000000000000000000000000000000000081526004016112bd90612341565b60405180910390fd5b60016003600084815260200190815260200160002060030160006101000a81548160ff021916908315150217905550817fd98f6f58fc8adebda4634cbb1a786370cbd3632ec5638326be4b17cb6070726d6003600085815260200190815260200160002060030160009054906101000a900460ff16604051611348919061225f565b60405180910390a260019050919050565b6003602052806000526040600020600091509050806000015490806001018054611382906126f8565b80601f01602080910402602001604051908101604052809291908181526020018280546113ae906126f8565b80156113fb5780601f106113d0576101008083540402835291602001916113fb565b820191906000526020600020905b8154815290600101906020018083116113de57829003601f168201915b5050505050908060020154908060030160009054906101000a900460ff16908060030160019054906101000a900473ffffffffffffffffffffffffffffffffffffffff16905085565b60005481565b80341461148c576040517f08c379a0000000000000000000000000000000000000000000000000000000008152600401611483906123c1565b60405180910390fd5b60005b825181101561166c5760008382815181106114ad576114ac61285f565b5b6020026020010151905060006003600083815260200190815260200160002090508573ffffffffffffffffffffffffffffffffffffffff168160030160019054906101000a900473ffffffffffffffffffffffffffffffffffffffff1673ffffffffffffffffffffffffffffffffffffffff1614611560576040517f08c379a0000000000000000000000000000000000000000000000000000000008152600401611557906124a1565b60405180910390fd5b61156a8683611866565b336003600084815260200190815260200160002060030160016101000a81548173ffffffffffffffffffffffffffffffffffffffff021916908373ffffffffffffffffffffffffffffffffffffffff16021790555060006003600084815260200190815260200160002060030160006101000a81548160ff021916908315150217905550600260003373ffffffffffffffffffffffffffffffffffffffff1673ffffffffffffffffffffffffffffffffffffffff168152602001908152602001600020600201829080600181540180825580915050600190039060005260206000200160009091909190915055505080806116649061275b565b91505061148f565b508273ffffffffffffffffffffffffffffffffffffffff166108fc349081150290604051600060405180830381858888f193505050501580156116b3573d6000803e3d6000fd5b50505050565b60008073ffffffffffffffffffffffffffffffffffffffff16600260008573ffffffffffffffffffffffffffffffffffffffff1673ffffffffffffffffffffffffffffffffffffffff16815260200190815260200160002060010160009054906101000a900473ffffffffffffffffffffffffffffffffffffffff1673ffffffffffffffffffffffffffffffffffffffff16141561178c576040517f08c379a000000000000000000000000000000000000000000000000000000000815260040161178390612401565b60405180910390fd5b6000801b600360008481526020019081526020016000206000015414156117e8576040517f08c379a00000000000000000000000000000000000000000000000000000000081526004016117df90612341565b60405180910390fd5b8273ffffffffffffffffffffffffffffffffffffffff166003600084815260200190815260200160002060030160019054906101000a900473ffffffffffffffffffffffffffffffffffffffff1673ffffffffffffffffffffffffffffffffffffffff16141561185b5760019050611860565b600090505b92915050565b6000600260008473ffffffffffffffffffffffffffffffffffffffff1673ffffffffffffffffffffffffffffffffffffffff168152602001908152602001600020600201905060005b818054905081101561196e57828282815481106118cf576118ce61285f565b5b9060005260206000200154141561195b5781600183805490506118f2919061261e565b815481106119035761190261285f565b5b90600052602060002001548282815481106119215761192061285f565b5b9060005260206000200181905550818054806119405761193f612830565b5b6001900381819060005260206000200160009055905561196e565b80806119669061275b565b9150506118af565b50505050565b6040518060a00160405280600080191681526020016060815260200160008152602001600015158152602001600073ffffffffffffffffffffffffffffffffffffffff1681525090565b8280546119ca906126f8565b90600052602060002090601f0160209004810192826119ec5760008555611a33565b82601f10611a0557805160ff1916838001178555611a33565b82800160010185558215611a33579182015b82811115611a32578251825591602001919060010190611a17565b5b509050611a409190611a91565b5090565b828054828255906000526020600020908101928215611a80579160200282015b82811115611a7f578251825591602001919060010190611a64565b5b509050611a8d9190611aae565b5090565b5b80821115611aaa576000816000905550600101611a92565b5090565b5b80821115611ac7576000816000905550600101611aaf565b5090565b6000611ade611ad984612501565b6124dc565b90508083825260208201905082856020860282011115611b0157611b006128c2565b5b60005b85811015611b315781611b178882611bc0565b845260208401935060208301925050600181019050611b04565b5050509392505050565b6000611b4e611b498461252d565b6124dc565b905082815260208101848484011115611b6a57611b696128c7565b5b611b758482856126b6565b509392505050565b600081359050611b8c81612b06565b92915050565b600082601f830112611ba757611ba66128bd565b5b8135611bb7848260208601611acb565b91505092915050565b600081359050611bcf81612b1d565b92915050565b600082601f830112611bea57611be96128bd565b5b8135611bfa848260208601611b3b565b91505092915050565b600081359050611c1281612b34565b92915050565b600060208284031215611c2e57611c2d6128d1565b5b6000611c3c84828501611b7d565b91505092915050565b600080600060608486031215611c5e57611c5d6128d1565b5b6000611c6c86828701611b7d565b935050602084013567ffffffffffffffff811115611c8d57611c8c6128cc565b5b611c9986828701611b92565b9250506040611caa86828701611c03565b9150509250925092565b60008060408385031215611ccb57611cca6128d1565b5b6000611cd985828601611b7d565b9250506020611cea85828601611bc0565b9150509250929050565b60008060408385031215611d0b57611d0a6128d1565b5b6000611d1985828601611b7d565b925050602083013567ffffffffffffffff811115611d3a57611d396128cc565b5b611d4685828601611bd5565b9150509250929050565b600080600060608486031215611d6957611d686128d1565b5b6000611d7786828701611b7d565b935050602084013567ffffffffffffffff811115611d9857611d976128cc565b5b611da486828701611bd5565b9250506040611db586828701611c03565b9150509250925092565b60008060408385031215611dd657611dd56128d1565b5b6000611de485828601611b7d565b9250506020611df585828601611c03565b9150509250929050565b600060208284031215611e1557611e146128d1565b5b6000611e2384828501611bc0565b91505092915050565b6000611e38838361214b565b905092915050565b611e4981612664565b82525050565b611e5881612664565b82525050565b611e6781612652565b82525050565b611e7e611e7982612652565b6127a4565b82525050565b6000611e8f8261256e565b611e998185612591565b935083602082028501611eab8561255e565b8060005b85811015611ee75784840389528151611ec88582611e2c565b9450611ed383612584565b925060208a01995050600181019050611eaf565b50829750879550505050505092915050565b611f0281612676565b82525050565b611f1181612676565b82525050565b611f2081612682565b82525050565b611f2f81612682565b82525050565b6000611f4082612579565b611f4a81856125a2565b9350611f5a8185602086016126c5565b611f63816128d6565b840191505092915050565b6000611f7982612579565b611f8381856125b3565b9350611f938185602086016126c5565b611f9c816128d6565b840191505092915050565b6000611fb46016836125b3565b9150611fbf826128f4565b602082019050919050565b6000611fd7600f836125b3565b9150611fe28261291d565b602082019050919050565b6000611ffa6018836125b3565b915061200582612946565b602082019050919050565b600061201d602b836125b3565b91506120288261296f565b604082019050919050565b60006120406018836125b3565b915061204b826129be565b602082019050919050565b6000612063601f836125b3565b915061206e826129e7565b602082019050919050565b60006120866014836125b3565b915061209182612a10565b602082019050919050565b60006120a96015836125b3565b91506120b482612a39565b602082019050919050565b60006120cc6015836125b3565b91506120d782612a62565b602082019050919050565b60006120ef6017836125b3565b91506120fa82612a8b565b602082019050919050565b60006121126017836125b3565b915061211d82612ab4565b602082019050919050565b6000612135601f836125b3565b915061214082612add565b602082019050919050565b600060a0830160008301516121636000860182611f17565b506020830151848203602086015261217b8282611f35565b915050604083015161219060408601826121c1565b5060608301516121a36060860182611ef9565b5060808301516121b66080860182611e40565b508091505092915050565b6121ca816126ac565b82525050565b6121d9816126ac565b82525050565b6121f06121eb826126ac565b6127c8565b82525050565b60006122028285611e6d565b60148201915061221282846121df565b6020820191508190509392505050565b60006020820190506122376000830184611e5e565b92915050565b600060208201905081810360008301526122578184611e84565b905092915050565b60006020820190506122746000830184611f08565b92915050565b600060208201905061228f6000830184611f26565b92915050565b600060a0820190506122aa6000830188611f26565b81810360208301526122bc8187611f6e565b90506122cb60408301866121d0565b6122d86060830185611f08565b6122e56080830184611e4f565b9695505050505050565b600060208201905081810360008301526123098184611f6e565b905092915050565b6000604082019050818103600083015261232b8185611f6e565b905061233a6020830184611e4f565b9392505050565b6000602082019050818103600083015261235a81611fa7565b9050919050565b6000602082019050818103600083015261237a81611fca565b9050919050565b6000602082019050818103600083015261239a81611fed565b9050919050565b600060208201905081810360008301526123ba81612010565b9050919050565b600060208201905081810360008301526123da81612033565b9050919050565b600060208201905081810360008301526123fa81612056565b9050919050565b6000602082019050818103600083015261241a81612079565b9050919050565b6000602082019050818103600083015261243a8161209c565b9050919050565b6000602082019050818103600083015261245a816120bf565b9050919050565b6000602082019050818103600083015261247a816120e2565b9050919050565b6000602082019050818103600083015261249a81612105565b9050919050565b600060208201905081810360008301526124ba81612128565b9050919050565b60006020820190506124d660008301846121d0565b92915050565b60006124e66124f7565b90506124f2828261272a565b919050565b6000604051905090565b600067ffffffffffffffff82111561251c5761251b61288e565b5b602082029050602081019050919050565b600067ffffffffffffffff8211156125485761254761288e565b5b612551826128d6565b9050602081019050919050565b6000819050602082019050919050565b600081519050919050565b600081519050919050565b6000602082019050919050565b600082825260208201905092915050565b600082825260208201905092915050565b600082825260208201905092915050565b60006125cf826126ac565b91506125da836126ac565b9250817fffffffffffffffffffffffffffffffffffffffffffffffffffffffffffffffff0483118215151615612613576126126127d2565b5b828202905092915050565b6000612629826126ac565b9150612634836126ac565b925082821015612647576126466127d2565b5b828203905092915050565b600061265d8261268c565b9050919050565b600061266f8261268c565b9050919050565b60008115159050919050565b6000819050919050565b600073ffffffffffffffffffffffffffffffffffffffff82169050919050565b6000819050919050565b82818337600083830152505050565b60005b838110156126e35780820151818401526020810190506126c8565b838111156126f2576000848401525b50505050565b6000600282049050600182168061271057607f821691505b6020821081141561272457612723612801565b5b50919050565b612733826128d6565b810181811067ffffffffffffffff821117156127525761275161288e565b5b80604052505050565b6000612766826126ac565b91507fffffffffffffffffffffffffffffffffffffffffffffffffffffffffffffffff821415612799576127986127d2565b5b600182019050919050565b60006127af826127b6565b9050919050565b60006127c1826128e7565b9050919050565b6000819050919050565b7f4e487b7100000000000000000000000000000000000000000000000000000000600052601160045260246000fd5b7f4e487b7100000000000000000000000000000000000000000000000000000000600052602260045260246000fd5b7f4e487b7100000000000000000000000000000000000000000000000000000000600052603160045260246000fd5b7f4e487b7100000000000000000000000000000000000000000000000000000000600052603260045260246000fd5b7f4e487b7100000000000000000000000000000000000000000000000000000000600052604160045260246000fd5b600080fd5b600080fd5b600080fd5b600080fd5b600080fd5b6000601f19601f8301169050919050565b60008160601b9050919050565b7f50726f6475637420646f6573206e6f7420657869737400000000000000000000600082015250565b7f496e76616c696420616464726573730000000000000000000000000000000000600082015250565b7f4f776e657220616c726561647920726567697374657265640000000000000000600082015250565b7f4f6e6c7920746865206f776e65722063616e20736574207468652070726f647560008201527f637420666f722073616c65000000000000000000000000000000000000000000602082015250565b7f696e636f7272656374207061796d656e7420616d6f756e740000000000000000600082015250565b7f416d6f756e742073686f756c642062652067726561746572207468616e203000600082015250565b7f4f776e6572206e6f742072656769737465726564000000000000000000000000600082015250565b7f496e76616c6964206f776e657220616464726573730000000000000000000000600082015250565b7f53656c6c6572206e6f7420726567697374657265640000000000000000000000600082015250565b7f50726f64756374206973206e6f7420666f722073616c65000000000000000000600082015250565b7f53656c6c6572206973206e6f7420746865206f776e6572000000000000000000600082015250565b7f73656c6c657220646f6573206e6f74206f776e207468652070726f6475637400600082015250565b612b0f81612652565b8114612b1a57600080fd5b50565b612b2681612682565b8114612b3157600080fd5b50565b612b3d816126ac565b8114612b4857600080fd5b5056fea26469706673582212207c803f4c3db88cbe0f8abfd464d298fb1c2f3790fbf2484f26d06aa2c5677bfd64736f6c63430008070033",
  "linkReferences": {},
  "deployedLinkReferences": {}
}