{
  "contracts/RskStarterLogs.sol": {
    "RskStarterLogs": {
      "abi": [
        {
          "anonymous": false,
          "inputs": [
            {
              "indexed": true,
              "internalType": "address",
              "name": "source",
              "type": "address"
            },
            {
              "indexed": true,
              "internalType": "bool",
              "name": "isLoud",
              "type": "bool"
            },
            {
              "indexed": false,
              "internalType": "string",
              "name": "text",
              "type": "string"
            }
          ],
          "name": "RskStarterLog",
          "type": "event"
        },
        {
          "inputs": [],
          "name": "count",
          "outputs": [
            {
              "internalType": "uint256",
              "name": "",
              "type": "uint256"
            }
          ],
          "stateMutability": "view",
          "type": "function"
        },
        {
          "inputs": [
            {
              "internalType": "bool",
              "name": "isLoud",
              "type": "bool"
            },
            {
              "internalType": "string",
              "name": "text",
              "type": "string"
            }
          ],
          "name": "doTheThing",
          "outputs": [],
          "stateMutability": "nonpayable",
          "type": "function"
        }
      ],
      "evm": {
        "bytecode": {
          "linkReferences": {},
          "object": "608060405234801561001057600080fd5b50610470806100206000396000f3fe608060405234801561001057600080fd5b50600436106100365760003560e01c806306661abd1461003b578063cfb9643b14610059575b600080fd5b610043610075565b6040516100509190610234565b60405180910390f35b610073600480360381019061006e919061016e565b61007b565b005b60005481565b600160008082825461008d91906102c1565b925050819055508115153373ffffffffffffffffffffffffffffffffffffffff167f8cf17ecc057d4ef76609fe19892c5bba3e4a24112588f3ac6453531efced80ab836040516100dd9190610212565b60405180910390a35050565b60006100fc6100f784610274565b61024f565b90508281526020810184848401111561011857610117610403565b5b61012384828561032d565b509392505050565b60008135905061013a81610423565b92915050565b600082601f830112610155576101546103fe565b5b81356101658482602086016100e9565b91505092915050565b600080604083850312156101855761018461040d565b5b60006101938582860161012b565b925050602083013567ffffffffffffffff8111156101b4576101b3610408565b5b6101c085828601610140565b9150509250929050565b60006101d5826102a5565b6101df81856102b0565b93506101ef81856020860161033c565b6101f881610412565b840191505092915050565b61020c81610323565b82525050565b6000602082019050818103600083015261022c81846101ca565b905092915050565b60006020820190506102496000830184610203565b92915050565b600061025961026a565b9050610265828261036f565b919050565b6000604051905090565b600067ffffffffffffffff82111561028f5761028e6103cf565b5b61029882610412565b9050602081019050919050565b600081519050919050565b600082825260208201905092915050565b60006102cc82610323565b91506102d783610323565b9250827fffffffffffffffffffffffffffffffffffffffffffffffffffffffffffffffff0382111561030c5761030b6103a0565b5b828201905092915050565b60008115159050919050565b6000819050919050565b82818337600083830152505050565b60005b8381101561035a57808201518184015260208101905061033f565b83811115610369576000848401525b50505050565b61037882610412565b810181811067ffffffffffffffff82111715610397576103966103cf565b5b80604052505050565b7f4e487b7100000000000000000000000000000000000000000000000000000000600052601160045260246000fd5b7f4e487b7100000000000000000000000000000000000000000000000000000000600052604160045260246000fd5b600080fd5b600080fd5b600080fd5b600080fd5b6000601f19601f8301169050919050565b61042c81610317565b811461043757600080fd5b5056fea264697066735822122060a6191f70d339c110d1d38c9f6b2c6e1277aa84955a5758eded917d42d22ee164736f6c63430008070033",
          "opcodes": "PUSH1 0x80 PUSH1 0x40 MSTORE CALLVALUE DUP1 ISZERO PUSH2 0x10 JUMPI PUSH1 0x0 DUP1 REVERT JUMPDEST POP PUSH2 0x470 DUP1 PUSH2 0x20 PUSH1 0x0 CODECOPY PUSH1 0x0 RETURN INVALID PUSH1 0x80 PUSH1 0x40 MSTORE CALLVALUE DUP1 ISZERO PUSH2 0x10 JUMPI PUSH1 0x0 DUP1 REVERT JUMPDEST POP PUSH1 0x4 CALLDATASIZE LT PUSH2 0x36 JUMPI PUSH1 0x0 CALLDATALOAD PUSH1 0xE0 SHR DUP1 PUSH4 0x6661ABD EQ PUSH2 0x3B JUMPI DUP1 PUSH4 0xCFB9643B EQ PUSH2 0x59 JUMPI JUMPDEST PUSH1 0x0 DUP1 REVERT JUMPDEST PUSH2 0x43 PUSH2 0x75 JUMP JUMPDEST PUSH1 0x40 MLOAD PUSH2 0x50 SWAP2 SWAP1 PUSH2 0x234 JUMP JUMPDEST PUSH1 0x40 MLOAD DUP1 SWAP2 SUB SWAP1 RETURN JUMPDEST PUSH2 0x73 PUSH1 0x4 DUP1 CALLDATASIZE SUB DUP2 ADD SWAP1 PUSH2 0x6E SWAP2 SWAP1 PUSH2 0x16E JUMP JUMPDEST PUSH2 0x7B JUMP JUMPDEST STOP JUMPDEST PUSH1 0x0 SLOAD DUP2 JUMP JUMPDEST PUSH1 0x1 PUSH1 0x0 DUP1 DUP3 DUP3 SLOAD PUSH2 0x8D SWAP2 SWAP1 PUSH2 0x2C1 JUMP JUMPDEST SWAP3 POP POP DUP2 SWAP1 SSTORE POP DUP2 ISZERO ISZERO CALLER PUSH20 0xFFFFFFFFFFFFFFFFFFFFFFFFFFFFFFFFFFFFFFFF AND PUSH32 0x8CF17ECC057D4EF76609FE19892C5BBA3E4A24112588F3AC6453531EFCED80AB DUP4 PUSH1 0x40 MLOAD PUSH2 0xDD SWAP2 SWAP1 PUSH2 0x212 JUMP JUMPDEST PUSH1 0x40 MLOAD DUP1 SWAP2 SUB SWAP1 LOG3 POP POP JUMP JUMPDEST PUSH1 0x0 PUSH2 0xFC PUSH2 0xF7 DUP5 PUSH2 0x274 JUMP JUMPDEST PUSH2 0x24F JUMP JUMPDEST SWAP1 POP DUP3 DUP2 MSTORE PUSH1 0x20 DUP2 ADD DUP5 DUP5 DUP5 ADD GT ISZERO PUSH2 0x118 JUMPI PUSH2 0x117 PUSH2 0x403 JUMP JUMPDEST JUMPDEST PUSH2 0x123 DUP5 DUP3 DUP6 PUSH2 0x32D JUMP JUMPDEST POP SWAP4 SWAP3 POP POP POP JUMP JUMPDEST PUSH1 0x0 DUP2 CALLDATALOAD SWAP1 POP PUSH2 0x13A DUP2 PUSH2 0x423 JUMP JUMPDEST SWAP3 SWAP2 POP POP JUMP JUMPDEST PUSH1 0x0 DUP3 PUSH1 0x1F DUP4 ADD SLT PUSH2 0x155 JUMPI PUSH2 0x154 PUSH2 0x3FE JUMP JUMPDEST JUMPDEST DUP2 CALLDATALOAD PUSH2 0x165 DUP5 DUP3 PUSH1 0x20 DUP7 ADD PUSH2 0xE9 JUMP JUMPDEST SWAP2 POP POP SWAP3 SWAP2 POP POP JUMP JUMPDEST PUSH1 0x0 DUP1 PUSH1 0x40 DUP4 DUP6 SUB SLT ISZERO PUSH2 0x185 JUMPI PUSH2 0x184 PUSH2 0x40D JUMP JUMPDEST JUMPDEST PUSH1 0x0 PUSH2 0x193 DUP6 DUP3 DUP7 ADD PUSH2 0x12B JUMP JUMPDEST SWAP3 POP POP PUSH1 0x20 DUP4 ADD CALLDATALOAD PUSH8 0xFFFFFFFFFFFFFFFF DUP2 GT ISZERO PUSH2 0x1B4 JUMPI PUSH2 0x1B3 PUSH2 0x408 JUMP JUMPDEST JUMPDEST PUSH2 0x1C0 DUP6 DUP3 DUP7 ADD PUSH2 0x140 JUMP JUMPDEST SWAP2 POP POP SWAP3 POP SWAP3 SWAP1 POP JUMP JUMPDEST PUSH1 0x0 PUSH2 0x1D5 DUP3 PUSH2 0x2A5 JUMP JUMPDEST PUSH2 0x1DF DUP2 DUP6 PUSH2 0x2B0 JUMP JUMPDEST SWAP4 POP PUSH2 0x1EF DUP2 DUP6 PUSH1 0x20 DUP7 ADD PUSH2 0x33C JUMP JUMPDEST PUSH2 0x1F8 DUP2 PUSH2 0x412 JUMP JUMPDEST DUP5 ADD SWAP2 POP POP SWAP3 SWAP2 POP POP JUMP JUMPDEST PUSH2 0x20C DUP2 PUSH2 0x323 JUMP JUMPDEST DUP3 MSTORE POP POP JUMP JUMPDEST PUSH1 0x0 PUSH1 0x20 DUP3 ADD SWAP1 POP DUP2 DUP2 SUB PUSH1 0x0 DUP4 ADD MSTORE PUSH2 0x22C DUP2 DUP5 PUSH2 0x1CA JUMP JUMPDEST SWAP1 POP SWAP3 SWAP2 POP POP JUMP JUMPDEST PUSH1 0x0 PUSH1 0x20 DUP3 ADD SWAP1 POP PUSH2 0x249 PUSH1 0x0 DUP4 ADD DUP5 PUSH2 0x203 JUMP JUMPDEST SWAP3 SWAP2 POP POP JUMP JUMPDEST PUSH1 0x0 PUSH2 0x259 PUSH2 0x26A JUMP JUMPDEST SWAP1 POP PUSH2 0x265 DUP3 DUP3 PUSH2 0x36F JUMP JUMPDEST SWAP2 SWAP1 POP JUMP JUMPDEST PUSH1 0x0 PUSH1 0x40 MLOAD SWAP1 POP SWAP1 JUMP JUMPDEST PUSH1 0x0 PUSH8 0xFFFFFFFFFFFFFFFF DUP3 GT ISZERO PUSH2 0x28F JUMPI PUSH2 0x28E PUSH2 0x3CF JUMP JUMPDEST JUMPDEST PUSH2 0x298 DUP3 PUSH2 0x412 JUMP JUMPDEST SWAP1 POP PUSH1 0x20 DUP2 ADD SWAP1 POP SWAP2 SWAP1 POP JUMP JUMPDEST PUSH1 0x0 DUP2 MLOAD SWAP1 POP SWAP2 SWAP1 POP JUMP JUMPDEST PUSH1 0x0 DUP3 DUP3 MSTORE PUSH1 0x20 DUP3 ADD SWAP1 POP SWAP3 SWAP2 POP POP JUMP JUMPDEST PUSH1 0x0 PUSH2 0x2CC DUP3 PUSH2 0x323 JUMP JUMPDEST SWAP2 POP PUSH2 0x2D7 DUP4 PUSH2 0x323 JUMP JUMPDEST SWAP3 POP DUP3 PUSH32 0xFFFFFFFFFFFFFFFFFFFFFFFFFFFFFFFFFFFFFFFFFFFFFFFFFFFFFFFFFFFFFFFF SUB DUP3 GT ISZERO PUSH2 0x30C JUMPI PUSH2 0x30B PUSH2 0x3A0 JUMP JUMPDEST JUMPDEST DUP3 DUP3 ADD SWAP1 POP SWAP3 SWAP2 POP POP JUMP JUMPDEST PUSH1 0x0 DUP2 ISZERO ISZERO SWAP1 POP SWAP2 SWAP1 POP JUMP JUMPDEST PUSH1 0x0 DUP2 SWAP1 POP SWAP2 SWAP1 POP JUMP JUMPDEST DUP3 DUP2 DUP4 CALLDATACOPY PUSH1 0x0 DUP4 DUP4 ADD MSTORE POP POP POP JUMP JUMPDEST PUSH1 0x0 JUMPDEST DUP4 DUP2 LT ISZERO PUSH2 0x35A JUMPI DUP1 DUP3 ADD MLOAD DUP2 DUP5 ADD MSTORE PUSH1 0x20 DUP2 ADD SWAP1 POP PUSH2 0x33F JUMP JUMPDEST DUP4 DUP2 GT ISZERO PUSH2 0x369 JUMPI PUSH1 0x0 DUP5 DUP5 ADD MSTORE JUMPDEST POP POP POP POP JUMP JUMPDEST PUSH2 0x378 DUP3 PUSH2 0x412 JUMP JUMPDEST DUP2 ADD DUP2 DUP2 LT PUSH8 0xFFFFFFFFFFFFFFFF DUP3 GT OR ISZERO PUSH2 0x397 JUMPI PUSH2 0x396 PUSH2 0x3CF JUMP JUMPDEST JUMPDEST DUP1 PUSH1 0x40 MSTORE POP POP POP JUMP JUMPDEST PUSH32 0x4E487B7100000000000000000000000000000000000000000000000000000000 PUSH1 0x0 MSTORE PUSH1 0x11 PUSH1 0x4 MSTORE PUSH1 0x24 PUSH1 0x0 REVERT JUMPDEST PUSH32 0x4E487B7100000000000000000000000000000000000000000000000000000000 PUSH1 0x0 MSTORE PUSH1 0x41 PUSH1 0x4 MSTORE PUSH1 0x24 PUSH1 0x0 REVERT JUMPDEST PUSH1 0x0 DUP1 REVERT JUMPDEST PUSH1 0x0 DUP1 REVERT JUMPDEST PUSH1 0x0 DUP1 REVERT JUMPDEST PUSH1 0x0 DUP1 REVERT JUMPDEST PUSH1 0x0 PUSH1 0x1F NOT PUSH1 0x1F DUP4 ADD AND SWAP1 POP SWAP2 SWAP1 POP JUMP JUMPDEST PUSH2 0x42C DUP2 PUSH2 0x317 JUMP JUMPDEST DUP2 EQ PUSH2 0x437 JUMPI PUSH1 0x0 DUP1 REVERT JUMPDEST POP JUMP INVALID LOG2 PUSH5 0x6970667358 0x22 SLT KECCAK256 PUSH1 0xA6 NOT 0x1F PUSH17 0xD339C110D1D38C9F6B2C6E1277AA84955A JUMPI PC 0xED 0xED SWAP2 PUSH30 0x42D22EE164736F6C63430008070033000000000000000000000000000000 "
        },
        "methodIdentifiers": {
          "count()": "06661abd",
          "doTheThing(bool,string)": "cfb9643b"
        }
      }
    }
  }
}