{
  "_format": "hh-sol-artifact-1",
  "contractName": "RskStarter",
  "sourceName": "contracts/RskStarter.sol",
  "abi": [
    {
      "inputs": [
        {
          "internalType": "address",
          "name": "rskStarterLogsAddress",
          "type": "address"
        }
      ],
      "stateMutability": "nonpayable",
      "type": "constructor"
    },
    {
      "inputs": [
        {
          "internalType": "string",
          "name": "text",
          "type": "string"
        }
      ],
      "name": "shout",
      "outputs": [],
      "stateMutability": "nonpayable",
      "type": "function"
    },
    {
      "inputs": [
        {
          "internalType": "string",
          "name": "text",
          "type": "string"
        }
      ],
      "name": "speak",
      "outputs": [],
      "stateMutability": "nonpayable",
      "type": "function"
    }
  ],
  "bytecode": "0x608060405234801561000f575f80fd5b5060405161051d38038061051d833981810160405281019061003191906100d4565b805f806101000a81548173ffffffffffffffffffffffffffffffffffffffff021916908373ffffffffffffffffffffffffffffffffffffffff160217905550506100ff565b5f80fd5b5f73ffffffffffffffffffffffffffffffffffffffff82169050919050565b5f6100a38261007a565b9050919050565b6100b381610099565b81146100bd575f80fd5b50565b5f815190506100ce816100aa565b92915050565b5f602082840312156100e9576100e8610076565b5b5f6100f6848285016100c0565b91505092915050565b6104118061010c5f395ff3fe608060405234801561000f575f80fd5b5060043610610034575f3560e01c80635d15bcbe14610038578063625d205514610054575b5f80fd5b610052600480360381019061004d91906102d2565b610070565b005b61006e600480360381019061006991906102d2565b6100fa565b005b5f8054906101000a900473ffffffffffffffffffffffffffffffffffffffff1673ffffffffffffffffffffffffffffffffffffffff1663cfb9643b5f836040518363ffffffff1660e01b81526004016100ca9291906103ad565b5f604051808303815f87803b1580156100e1575f80fd5b505af11580156100f3573d5f803e3d5ffd5b5050505050565b5f8054906101000a900473ffffffffffffffffffffffffffffffffffffffff1673ffffffffffffffffffffffffffffffffffffffff1663cfb9643b6001836040518363ffffffff1660e01b81526004016101559291906103ad565b5f604051808303815f87803b15801561016c575f80fd5b505af115801561017e573d5f803e3d5ffd5b5050505050565b5f604051905090565b5f80fd5b5f80fd5b5f80fd5b5f80fd5b5f601f19601f8301169050919050565b7f4e487b71000000000000000000000000000000000000000000000000000000005f52604160045260245ffd5b6101e48261019e565b810181811067ffffffffffffffff82111715610203576102026101ae565b5b80604052505050565b5f610215610185565b905061022182826101db565b919050565b5f67ffffffffffffffff8211156102405761023f6101ae565b5b6102498261019e565b9050602081019050919050565b828183375f83830152505050565b5f61027661027184610226565b61020c565b9050828152602081018484840111156102925761029161019a565b5b61029d848285610256565b509392505050565b5f82601f8301126102b9576102b8610196565b5b81356102c9848260208601610264565b91505092915050565b5f602082840312156102e7576102e661018e565b5b5f82013567ffffffffffffffff81111561030457610303610192565b5b610310848285016102a5565b91505092915050565b5f8115159050919050565b61032d81610319565b82525050565b5f81519050919050565b5f82825260208201905092915050565b5f5b8381101561036a57808201518184015260208101905061034f565b5f8484015250505050565b5f61037f82610333565b610389818561033d565b935061039981856020860161034d565b6103a28161019e565b840191505092915050565b5f6040820190506103c05f830185610324565b81810360208301526103d28184610375565b9050939250505056fea2646970667358221220df45f90a4428e76fd6ae8f3c1615e153822f242f8f0fd451c605083aee6b48a064736f6c63430008140033",
  "linkReferences": {},
  "deployedLinkReferences": {}
}