{
  "_format": "hh-sol-artifact-1",
  "contractName": "RskStarter",
  "sourceName": "contracts/RskStarter.sol",
  "abi": [
    {
      "inputs": [
        {
          "internalType": "address",
          "name": "rskStarterLogsAddress",
          "type": "address"
        }
      ],
      "stateMutability": "nonpayable",
      "type": "constructor"
    },
    {
      "inputs": [
        {
          "internalType": "string",
          "name": "text",
          "type": "string"
        }
      ],
      "name": "shout",
      "outputs": [],
      "stateMutability": "nonpayable",
      "type": "function"
    },
    {
      "inputs": [
        {
          "internalType": "string",
          "name": "text",
          "type": "string"
        }
      ],
      "name": "speak",
      "outputs": [],
      "stateMutability": "nonpayable",
      "type": "function"
    }
  ],
  "bytecode": "0x608060405234801561001057600080fd5b506040516105583803806105588339818101604052810190610032919061008d565b806000806101000a81548173ffffffffffffffffffffffffffffffffffffffff021916908373ffffffffffffffffffffffffffffffffffffffff16021790555050610108565b600081519050610087816100f1565b92915050565b6000602082840312156100a3576100a26100ec565b5b60006100b184828501610078565b91505092915050565b60006100c5826100cc565b9050919050565b600073ffffffffffffffffffffffffffffffffffffffff82169050919050565b600080fd5b6100fa816100ba565b811461010557600080fd5b50565b610441806101176000396000f3fe608060405234801561001057600080fd5b50600436106100365760003560e01c80635d15bcbe1461003b578063625d205514610057575b600080fd5b61005560048036038101906100509190610205565b610073565b005b610071600480360381019061006c9190610205565b610104565b005b60008054906101000a900473ffffffffffffffffffffffffffffffffffffffff1673ffffffffffffffffffffffffffffffffffffffff1663cfb9643b6000836040518363ffffffff1660e01b81526004016100cf929190610296565b600060405180830381600087803b1580156100e957600080fd5b505af11580156100fd573d6000803e3d6000fd5b5050505050565b60008054906101000a900473ffffffffffffffffffffffffffffffffffffffff1673ffffffffffffffffffffffffffffffffffffffff1663cfb9643b6001836040518363ffffffff1660e01b8152600401610160929190610296565b600060405180830381600087803b15801561017a57600080fd5b505af115801561018e573d6000803e3d6000fd5b5050505050565b60006101a86101a3846102eb565b6102c6565b9050828152602081018484840111156101c4576101c36103eb565b5b6101cf848285610344565b509392505050565b600082601f8301126101ec576101eb6103e6565b5b81356101fc848260208601610195565b91505092915050565b60006020828403121561021b5761021a6103f5565b5b600082013567ffffffffffffffff811115610239576102386103f0565b5b610245848285016101d7565b91505092915050565b61025781610338565b82525050565b60006102688261031c565b6102728185610327565b9350610282818560208601610353565b61028b816103fa565b840191505092915050565b60006040820190506102ab600083018561024e565b81810360208301526102bd818461025d565b90509392505050565b60006102d06102e1565b90506102dc8282610386565b919050565b6000604051905090565b600067ffffffffffffffff821115610306576103056103b7565b5b61030f826103fa565b9050602081019050919050565b600081519050919050565b600082825260208201905092915050565b60008115159050919050565b82818337600083830152505050565b60005b83811015610371578082015181840152602081019050610356565b83811115610380576000848401525b50505050565b61038f826103fa565b810181811067ffffffffffffffff821117156103ae576103ad6103b7565b5b80604052505050565b7f4e487b7100000000000000000000000000000000000000000000000000000000600052604160045260246000fd5b600080fd5b600080fd5b600080fd5b600080fd5b6000601f19601f830116905091905056fea26469706673582212204ffd48c9f2a12c14492526504c1a7d51ef96f69b016c1a5a9e35edb48d01f19a64736f6c63430008070033",
  "linkReferences": {},
  "deployedLinkReferences": {}
}