{
  "_format": "hh-sol-artifact-1",
  "contractName": "Transaction",
  "sourceName": "contracts/Transaction.sol",
  "abi": [
    {
      "anonymous": false,
      "inputs": [
        {
          "indexed": true,
          "internalType": "bytes32",
          "name": "productHash",
          "type": "bytes32"
        },
        {
          "indexed": true,
          "internalType": "address",
          "name": "owner",
          "type": "address"
        }
      ],
      "name": "GetOwnerOfProd",
      "type": "event"
    },
    {
      "anonymous": false,
      "inputs": [
        {
          "indexed": true,
          "internalType": "address",
          "name": "sender",
          "type": "address"
        },
        {
          "indexed": true,
          "internalType": "address",
          "name": "reciever",
          "type": "address"
        },
        {
          "indexed": false,
          "internalType": "string",
          "name": "message",
          "type": "string"
        }
      ],
      "name": "NotificationSent",
      "type": "event"
    },
    {
      "anonymous": false,
      "inputs": [
        {
          "indexed": true,
          "internalType": "address",
          "name": "ownerAddress",
          "type": "address"
        },
        {
          "indexed": false,
          "internalType": "string",
          "name": "ownerName",
          "type": "string"
        }
      ],
      "name": "OwnerRegistered",
      "type": "event"
    },
    {
      "anonymous": false,
      "inputs": [
        {
          "indexed": true,
          "internalType": "address",
          "name": "ownerAddress",
          "type": "address"
        },
        {
          "indexed": false,
          "internalType": "bytes32",
          "name": "productHash",
          "type": "bytes32"
        },
        {
          "indexed": false,
          "internalType": "bool",
          "name": "verified",
          "type": "bool"
        },
        {
          "indexed": true,
          "internalType": "uint256",
          "name": "timestamp",
          "type": "uint256"
        }
      ],
      "name": "OwnerVerified",
      "type": "event"
    },
    {
      "anonymous": false,
      "inputs": [
        {
          "indexed": true,
          "internalType": "bytes32",
          "name": "productHash",
          "type": "bytes32"
        },
        {
          "indexed": false,
          "internalType": "string",
          "name": "newDescription",
          "type": "string"
        }
      ],
      "name": "ProductDescriptionChanged",
      "type": "event"
    },
    {
      "anonymous": false,
      "inputs": [
        {
          "indexed": true,
          "internalType": "bytes32",
          "name": "productHash",
          "type": "bytes32"
        },
        {
          "indexed": false,
          "internalType": "bool",
          "name": "forSale",
          "type": "bool"
        }
      ],
      "name": "ProductForSaleSet",
      "type": "event"
    },
    {
      "anonymous": false,
      "inputs": [
        {
          "indexed": true,
          "internalType": "bytes32",
          "name": "productHash",
          "type": "bytes32"
        },
        {
          "indexed": false,
          "internalType": "uint256",
          "name": "newPrice",
          "type": "uint256"
        }
      ],
      "name": "ProductPriceChanged",
      "type": "event"
    },
    {
      "anonymous": false,
      "inputs": [
        {
          "indexed": true,
          "internalType": "bytes32",
          "name": "productHash",
          "type": "bytes32"
        },
        {
          "indexed": false,
          "internalType": "address",
          "name": "ownerAddress",
          "type": "address"
        }
      ],
      "name": "ProductRegistered",
      "type": "event"
    },
    {
      "anonymous": false,
      "inputs": [
        {
          "indexed": true,
          "internalType": "address",
          "name": "seller",
          "type": "address"
        },
        {
          "indexed": true,
          "internalType": "address",
          "name": "buyer",
          "type": "address"
        },
        {
          "indexed": true,
          "internalType": "bytes32",
          "name": "productHash",
          "type": "bytes32"
        },
        {
          "indexed": false,
          "internalType": "uint256",
          "name": "price",
          "type": "uint256"
        }
      ],
      "name": "ProductSold",
      "type": "event"
    },
    {
      "inputs": [
        {
          "internalType": "address",
          "name": "",
          "type": "address"
        }
      ],
      "name": "OwnersList",
      "outputs": [
        {
          "internalType": "string",
          "name": "ownerName",
          "type": "string"
        },
        {
          "internalType": "address payable",
          "name": "ownerAddress",
          "type": "address"
        }
      ],
      "stateMutability": "view",
      "type": "function"
    },
    {
      "inputs": [
        {
          "internalType": "bytes32",
          "name": "",
          "type": "bytes32"
        }
      ],
      "name": "ProductsList",
      "outputs": [
        {
          "internalType": "bytes32",
          "name": "productHash",
          "type": "bytes32"
        },
        {
          "internalType": "string",
          "name": "description",
          "type": "string"
        },
        {
          "internalType": "uint256",
          "name": "price",
          "type": "uint256"
        },
        {
          "internalType": "bool",
          "name": "isForSale",
          "type": "bool"
        },
        {
          "internalType": "address payable",
          "name": "owner",
          "type": "address"
        }
      ],
      "stateMutability": "view",
      "type": "function"
    },
    {
      "inputs": [
        {
          "internalType": "address",
          "name": "seller",
          "type": "address"
        },
        {
          "internalType": "address",
          "name": "buyer",
          "type": "address"
        },
        {
          "internalType": "bytes32",
          "name": "productHash",
          "type": "bytes32"
        },
        {
          "internalType": "uint256",
          "name": "timestamp",
          "type": "uint256"
        }
      ],
      "name": "buyProduct",
      "outputs": [
        {
          "internalType": "bool",
          "name": "",
          "type": "bool"
        }
      ],
      "stateMutability": "payable",
      "type": "function"
    },
    {
      "inputs": [
        {
          "internalType": "bytes32",
          "name": "productHash",
          "type": "bytes32"
        },
        {
          "internalType": "string",
          "name": "newDescription",
          "type": "string"
        }
      ],
      "name": "changeDescription",
      "outputs": [
        {
          "internalType": "bool",
          "name": "",
          "type": "bool"
        }
      ],
      "stateMutability": "nonpayable",
      "type": "function"
    },
    {
      "inputs": [
        {
          "internalType": "bytes32",
          "name": "productHash",
          "type": "bytes32"
        },
        {
          "internalType": "uint256",
          "name": "newPrice",
          "type": "uint256"
        }
      ],
      "name": "changePrice",
      "outputs": [
        {
          "internalType": "bool",
          "name": "",
          "type": "bool"
        }
      ],
      "stateMutability": "nonpayable",
      "type": "function"
    },
    {
      "inputs": [
        {
          "internalType": "address",
          "name": "ownerAddress",
          "type": "address"
        },
        {
          "internalType": "uint256",
          "name": "number",
          "type": "uint256"
        }
      ],
      "name": "generateHash",
      "outputs": [
        {
          "internalType": "bytes32",
          "name": "",
          "type": "bytes32"
        }
      ],
      "stateMutability": "pure",
      "type": "function"
    },
    {
      "inputs": [
        {
          "internalType": "address",
          "name": "ownerAddress",
          "type": "address"
        }
      ],
      "name": "getAllProductsByOwner",
      "outputs": [
        {
          "components": [
            {
              "internalType": "bytes32",
              "name": "productHash",
              "type": "bytes32"
            },
            {
              "internalType": "string",
              "name": "description",
              "type": "string"
            },
            {
              "internalType": "uint256",
              "name": "price",
              "type": "uint256"
            },
            {
              "internalType": "bool",
              "name": "isForSale",
              "type": "bool"
            },
            {
              "internalType": "address payable",
              "name": "owner",
              "type": "address"
            }
          ],
          "internalType": "struct Transaction.Product[]",
          "name": "",
          "type": "tuple[]"
        }
      ],
      "stateMutability": "view",
      "type": "function"
    },
    {
      "inputs": [
        {
          "internalType": "address",
          "name": "user",
          "type": "address"
        }
      ],
      "name": "getNotifications",
      "outputs": [
        {
          "components": [
            {
              "internalType": "address",
              "name": "sender",
              "type": "address"
            },
            {
              "internalType": "address",
              "name": "reciever",
              "type": "address"
            },
            {
              "internalType": "string",
              "name": "message",
              "type": "string"
            }
          ],
          "internalType": "struct Transaction.NotificationInfo[]",
          "name": "",
          "type": "tuple[]"
        }
      ],
      "stateMutability": "view",
      "type": "function"
    },
    {
      "inputs": [
        {
          "internalType": "bytes32",
          "name": "productHash",
          "type": "bytes32"
        }
      ],
      "name": "getOwnerOfProduct",
      "outputs": [
        {
          "internalType": "address",
          "name": "",
          "type": "address"
        }
      ],
      "stateMutability": "nonpayable",
      "type": "function"
    },
    {
      "inputs": [
        {
          "internalType": "address",
          "name": "",
          "type": "address"
        },
        {
          "internalType": "uint256",
          "name": "",
          "type": "uint256"
        }
      ],
      "name": "notificationsList",
      "outputs": [
        {
          "internalType": "address",
          "name": "sender",
          "type": "address"
        },
        {
          "internalType": "address",
          "name": "reciever",
          "type": "address"
        },
        {
          "internalType": "string",
          "name": "message",
          "type": "string"
        }
      ],
      "stateMutability": "view",
      "type": "function"
    },
    {
      "inputs": [],
      "name": "ownerCount",
      "outputs": [
        {
          "internalType": "uint256",
          "name": "",
          "type": "uint256"
        }
      ],
      "stateMutability": "view",
      "type": "function"
    },
    {
      "inputs": [],
      "name": "productCount",
      "outputs": [
        {
          "internalType": "uint256",
          "name": "",
          "type": "uint256"
        }
      ],
      "stateMutability": "view",
      "type": "function"
    },
    {
      "inputs": [
        {
          "internalType": "address",
          "name": "ownerAddress",
          "type": "address"
        },
        {
          "internalType": "string",
          "name": "ownerName",
          "type": "string"
        }
      ],
      "name": "registerOwner",
      "outputs": [
        {
          "internalType": "bool",
          "name": "",
          "type": "bool"
        }
      ],
      "stateMutability": "nonpayable",
      "type": "function"
    },
    {
      "inputs": [
        {
          "internalType": "address",
          "name": "ownerAddress",
          "type": "address"
        },
        {
          "internalType": "string",
          "name": "desc",
          "type": "string"
        },
        {
          "internalType": "uint256",
          "name": "price",
          "type": "uint256"
        }
      ],
      "name": "registerProduct",
      "outputs": [
        {
          "internalType": "bool",
          "name": "",
          "type": "bool"
        }
      ],
      "stateMutability": "nonpayable",
      "type": "function"
    },
    {
      "inputs": [
        {
          "internalType": "bytes32",
          "name": "productHash",
          "type": "bytes32"
        }
      ],
      "name": "sellerScan",
      "outputs": [
        {
          "components": [
            {
              "internalType": "bytes32",
              "name": "productHash",
              "type": "bytes32"
            },
            {
              "internalType": "string",
              "name": "description",
              "type": "string"
            },
            {
              "internalType": "uint256",
              "name": "price",
              "type": "uint256"
            },
            {
              "internalType": "bool",
              "name": "isForSale",
              "type": "bool"
            },
            {
              "internalType": "address payable",
              "name": "owner",
              "type": "address"
            }
          ],
          "internalType": "struct Transaction.Product",
          "name": "",
          "type": "tuple"
        }
      ],
      "stateMutability": "nonpayable",
      "type": "function"
    },
    {
      "inputs": [
        {
          "internalType": "bytes32",
          "name": "productHash",
          "type": "bytes32"
        }
      ],
      "name": "setProductForSale",
      "outputs": [
        {
          "internalType": "bool",
          "name": "",
          "type": "bool"
        }
      ],
      "stateMutability": "nonpayable",
      "type": "function"
    },
    {
      "inputs": [
        {
          "internalType": "address",
          "name": "ownerAddress",
          "type": "address"
        },
        {
          "internalType": "bytes32",
          "name": "productHash",
          "type": "bytes32"
        },
        {
          "internalType": "uint256",
          "name": "timestamp",
          "type": "uint256"
        }
      ],
      "name": "verifyOwner",
      "outputs": [
        {
          "internalType": "bool",
          "name": "",
          "type": "bool"
        }
      ],
      "stateMutability": "nonpayable",
      "type": "function"
    }
  ],
  "bytecode": "0x60806040525f80555f600155348015610016575f80fd5b50613aed806100245f395ff3fe6080604052600436106100fd575f3560e01c80639623136a11610094578063d562966f11610063578063d562966f146103c2578063dabd2eb2146103fe578063dee3c9281461043a578063e0f6ef871461047a578063e3549459146104a4576100fd565b80639623136a146102cf578063c0c4a20f1461030b578063c871f7fa14610348578063cc2a205214610386576100fd565b8063672fec82116100d0578063672fec82146101df5780636886d5521461021b57806389436481146102575780638a8f63b014610293576100fd565b80630db02622146101015780633f81dd8a1461012b57806355442bae1461016757806360750a4f146101a3575b5f80fd5b34801561010c575f80fd5b506101156104d4565b60405161012291906124e7565b60405180910390f35b348015610136575f80fd5b50610151600480360381019061014c9190612544565b6104da565b60405161015e91906125ae565b60405180910390f35b348015610172575f80fd5b5061018d600480360381019061018891906125f1565b6105e6565b60405161019a919061282c565b60405180910390f35b3480156101ae575f80fd5b506101c960048036038101906101c49190612876565b6108e7565b6040516101d691906128c3565b60405180910390f35b3480156101ea575f80fd5b5061020560048036038101906102009190612544565b610924565b604051610212919061294f565b60405180910390f35b348015610226575f80fd5b50610241600480360381019061023c9190612a9b565b610b87565b60405161024e9190612b04565b60405180910390f35b348015610262575f80fd5b5061027d60048036038101906102789190612b1d565b610e62565b60405161028a9190612b04565b60405180910390f35b34801561029e575f80fd5b506102b960048036038101906102b491906125f1565b611054565b6040516102c69190612c84565b60405180910390f35b3480156102da575f80fd5b506102f560048036038101906102f09190612ca4565b611226565b6040516103029190612b04565b60405180910390f35b348015610316575f80fd5b50610331600480360381019061032c91906125f1565b611533565b60405161033f929190612d67565b60405180910390f35b348015610353575f80fd5b5061036e60048036038101906103699190612876565b6115f8565b60405161037d93929190612d95565b60405180910390f35b348015610391575f80fd5b506103ac60048036038101906103a79190612dd1565b6116fc565b6040516103b99190612b04565b60405180910390f35b3480156103cd575f80fd5b506103e860048036038101906103e39190612544565b611892565b6040516103f59190612b04565b60405180910390f35b348015610409575f80fd5b50610424600480360381019061041f9190612e2b565b611a19565b6040516104319190612b04565b60405180910390f35b348015610445575f80fd5b50610460600480360381019061045b9190612544565b611ba6565b604051610471959493929190612e69565b60405180910390f35b348015610485575f80fd5b5061048e611c8a565b60405161049b91906124e7565b60405180910390f35b6104be60048036038101906104b99190612ec1565b611c8f565b6040516104cb9190612b04565b60405180910390f35b60015481565b5f805f1b60035f8481526020019081526020015f205f015403610532576040517f08c379a000000000000000000000000000000000000000000000000000000000815260040161052990612f6f565b60405180910390fd5b60035f8381526020019081526020015f2060030160019054906101000a900473ffffffffffffffffffffffffffffffffffffffff1673ffffffffffffffffffffffffffffffffffffffff16827f43d76ed462540701b46a7eafbea4ecce1ce351b570622a75fd025a8a57eb169a60405160405180910390a360035f8381526020019081526020015f2060030160019054906101000a900473ffffffffffffffffffffffffffffffffffffffff169050919050565b60605f73ffffffffffffffffffffffffffffffffffffffff1660025f8473ffffffffffffffffffffffffffffffffffffffff1673ffffffffffffffffffffffffffffffffffffffff1681526020019081526020015f206001015f9054906101000a900473ffffffffffffffffffffffffffffffffffffffff1673ffffffffffffffffffffffffffffffffffffffff16036106b5576040517f08c379a00000000000000000000000000000000000000000000000000000000081526004016106ac90612fd7565b60405180910390fd5b5f60025f8473ffffffffffffffffffffffffffffffffffffffff1673ffffffffffffffffffffffffffffffffffffffff1681526020019081526020015f2060020190505f818054905067ffffffffffffffff81111561071757610716612977565b5b60405190808252806020026020018201604052801561075057816020015b61073d612423565b8152602001906001900390816107355790505b5090505f5b82805490508110156108dc5760035f84838154811061077757610776612ff5565b5b905f5260205f20015481526020019081526020015f206040518060a00160405290815f82015481526020016001820180546107b19061304f565b80601f01602080910402602001604051908101604052809291908181526020018280546107dd9061304f565b80156108285780601f106107ff57610100808354040283529160200191610828565b820191905f5260205f20905b81548152906001019060200180831161080b57829003601f168201915b5050505050815260200160028201548152602001600382015f9054906101000a900460ff161515151581526020016003820160019054906101000a900473ffffffffffffffffffffffffffffffffffffffff1673ffffffffffffffffffffffffffffffffffffffff1673ffffffffffffffffffffffffffffffffffffffff16815250508282815181106108be576108bd612ff5565b5b602002602001018190525080806108d4906130ac565b915050610755565b508092505050919050565b5f8282836108f591906130f3565b604051602001610906929190613199565b60405160208183030381529060405280519060200120905092915050565b61092c612423565b3373ffffffffffffffffffffffffffffffffffffffff1660035f8481526020019081526020015f2060030160019054906101000a900473ffffffffffffffffffffffffffffffffffffffff1673ffffffffffffffffffffffffffffffffffffffff16146109ce576040517f08c379a00000000000000000000000000000000000000000000000000000000081526004016109c590613234565b60405180910390fd5b5f801b60035f8481526020019081526020015f205f015403610a25576040517f08c379a0000000000000000000000000000000000000000000000000000000008152600401610a1c90612f6f565b60405180910390fd5b600160035f8481526020019081526020015f206003015f6101000a81548160ff02191690831515021790555060035f8381526020019081526020015f206040518060a00160405290815f8201548152602001600182018054610a869061304f565b80601f0160208091040260200160405190810160405280929190818152602001828054610ab29061304f565b8015610afd5780601f10610ad457610100808354040283529160200191610afd565b820191905f5260205f20905b815481529060010190602001808311610ae057829003601f168201915b5050505050815260200160028201548152602001600382015f9054906101000a900460ff161515151581526020016003820160019054906101000a900473ffffffffffffffffffffffffffffffffffffffff1673ffffffffffffffffffffffffffffffffffffffff1673ffffffffffffffffffffffffffffffffffffffff16815250509050919050565b5f8073ffffffffffffffffffffffffffffffffffffffff168373ffffffffffffffffffffffffffffffffffffffff1603610bf6576040517f08c379a0000000000000000000000000000000000000000000000000000000008152600401610bed9061329c565b60405180910390fd5b5f73ffffffffffffffffffffffffffffffffffffffff1660025f8573ffffffffffffffffffffffffffffffffffffffff1673ffffffffffffffffffffffffffffffffffffffff1681526020019081526020015f206001015f9054906101000a900473ffffffffffffffffffffffffffffffffffffffff1673ffffffffffffffffffffffffffffffffffffffff1614610cc3576040517f08c379a0000000000000000000000000000000000000000000000000000000008152600401610cba90613304565b60405180910390fd5b60015f815480929190610cd5906130ac565b919050555060405180606001604052808381526020018473ffffffffffffffffffffffffffffffffffffffff1681526020015f67ffffffffffffffff811115610d2157610d20612977565b5b604051908082528060200260200182016040528015610d4f5781602001602082028036833780820191505090505b5081525060025f8573ffffffffffffffffffffffffffffffffffffffff1673ffffffffffffffffffffffffffffffffffffffff1681526020019081526020015f205f820151815f019081610da391906134bf565b506020820151816001015f6101000a81548173ffffffffffffffffffffffffffffffffffffffff021916908373ffffffffffffffffffffffffffffffffffffffff1602179055506040820151816002019080519060200190610e06929190612469565b509050508273ffffffffffffffffffffffffffffffffffffffff167f5f66e430b448d83d46a65ab17a365f04c0c8f1a66ac20bcc38dfde7f2d67514183604051610e50919061358e565b60405180910390a26001905092915050565b5f8073ffffffffffffffffffffffffffffffffffffffff1660025f8673ffffffffffffffffffffffffffffffffffffffff1673ffffffffffffffffffffffffffffffffffffffff1681526020019081526020015f206001015f9054906101000a900473ffffffffffffffffffffffffffffffffffffffff1673ffffffffffffffffffffffffffffffffffffffff1603610f30576040517f08c379a0000000000000000000000000000000000000000000000000000000008152600401610f2790612fd7565b60405180910390fd5b5f801b60035f8581526020019081526020015f205f015403610f87576040517f08c379a0000000000000000000000000000000000000000000000000000000008152600401610f7e90612f6f565b60405180910390fd5b8373ffffffffffffffffffffffffffffffffffffffff1660035f8581526020019081526020015f2060030160019054906101000a900473ffffffffffffffffffffffffffffffffffffffff1673ffffffffffffffffffffffffffffffffffffffff160361104957818473ffffffffffffffffffffffffffffffffffffffff167f50a7b527d0a5844b3341b372456a9cb4a25357559e40eb4424b74a7a3c84c7b08560016040516110389291906135ae565b60405180910390a36001905061104d565b5f90505b9392505050565b606060045f8373ffffffffffffffffffffffffffffffffffffffff1673ffffffffffffffffffffffffffffffffffffffff1681526020019081526020015f20805480602002602001604051908101604052809291908181526020015f905b8282101561121b578382905f5260205f2090600302016040518060600160405290815f82015f9054906101000a900473ffffffffffffffffffffffffffffffffffffffff1673ffffffffffffffffffffffffffffffffffffffff1673ffffffffffffffffffffffffffffffffffffffff168152602001600182015f9054906101000a900473ffffffffffffffffffffffffffffffffffffffff1673ffffffffffffffffffffffffffffffffffffffff1673ffffffffffffffffffffffffffffffffffffffff16815260200160028201805461118c9061304f565b80601f01602080910402602001604051908101604052809291908181526020018280546111b89061304f565b80156112035780601f106111da57610100808354040283529160200191611203565b820191905f5260205f20905b8154815290600101906020018083116111e657829003601f168201915b505050505081525050815260200190600101906110b2565b505050509050919050565b5f8073ffffffffffffffffffffffffffffffffffffffff168473ffffffffffffffffffffffffffffffffffffffff1603611295576040517f08c379a000000000000000000000000000000000000000000000000000000000815260040161128c9061361f565b60405180910390fd5b5f73ffffffffffffffffffffffffffffffffffffffff1660025f8673ffffffffffffffffffffffffffffffffffffffff1673ffffffffffffffffffffffffffffffffffffffff1681526020019081526020015f206001015f9054906101000a900473ffffffffffffffffffffffffffffffffffffffff1673ffffffffffffffffffffffffffffffffffffffff1603611362576040517f08c379a000000000000000000000000000000000000000000000000000000000815260040161135990612fd7565b60405180910390fd5b5f80815480929190611373906130ac565b91905055505f845f5460405160200161138d929190613199565b6040516020818303038152906040528051906020012090505f6040518060a001604052808381526020018681526020018581526020015f151581526020018773ffffffffffffffffffffffffffffffffffffffff1681525090508060035f8481526020019081526020015f205f820151815f0155602082015181600101908161141691906134bf565b50604082015181600201556060820151816003015f6101000a81548160ff02191690831515021790555060808201518160030160016101000a81548173ffffffffffffffffffffffffffffffffffffffff021916908373ffffffffffffffffffffffffffffffffffffffff16021790555090505060025f8773ffffffffffffffffffffffffffffffffffffffff1673ffffffffffffffffffffffffffffffffffffffff1681526020019081526020015f2060020182908060018154018082558091505060019003905f5260205f20015f9091909190915055817fc9484fe818367891478f62bbffa32d87f515bbcb8e28e2106e62c73335747baa8760405161151e91906125ae565b60405180910390a26001925050509392505050565b6002602052805f5260405f205f91509050805f0180546115529061304f565b80601f016020809104026020016040519081016040528092919081815260200182805461157e9061304f565b80156115c95780601f106115a0576101008083540402835291602001916115c9565b820191905f5260205f20905b8154815290600101906020018083116115ac57829003601f168201915b505050505090806001015f9054906101000a900473ffffffffffffffffffffffffffffffffffffffff16905082565b6004602052815f5260405f208181548110611611575f80fd5b905f5260205f2090600302015f9150915050805f015f9054906101000a900473ffffffffffffffffffffffffffffffffffffffff1690806001015f9054906101000a900473ffffffffffffffffffffffffffffffffffffffff169080600201805461167b9061304f565b80601f01602080910402602001604051908101604052809291908181526020018280546116a79061304f565b80156116f25780601f106116c9576101008083540402835291602001916116f2565b820191905f5260205f20905b8154815290600101906020018083116116d557829003601f168201915b5050505050905083565b5f3373ffffffffffffffffffffffffffffffffffffffff1660035f8581526020019081526020015f2060030160019054906101000a900473ffffffffffffffffffffffffffffffffffffffff1673ffffffffffffffffffffffffffffffffffffffff161461179f576040517f08c379a0000000000000000000000000000000000000000000000000000000008152600401611796906136ad565b60405180910390fd5b5f801b60035f8581526020019081526020015f205f0154036117f6576040517f08c379a00000000000000000000000000000000000000000000000000000000081526004016117ed90612f6f565b60405180910390fd5b8160035f8581526020019081526020015f20600101908161181791906134bf565b50827fc9484fe818367891478f62bbffa32d87f515bbcb8e28e2106e62c73335747baa3360405161184891906125ae565b60405180910390a2827f8f1ee0b9d0c8f7a1613c7a2d6c5e375a01421f46eb0ed13b8be3de325f6aede783604051611880919061358e565b60405180910390a26001905092915050565b5f3373ffffffffffffffffffffffffffffffffffffffff1660035f8481526020019081526020015f2060030160019054906101000a900473ffffffffffffffffffffffffffffffffffffffff1673ffffffffffffffffffffffffffffffffffffffff1614611935576040517f08c379a000000000000000000000000000000000000000000000000000000000815260040161192c9061373b565b60405180910390fd5b5f801b60035f8481526020019081526020015f205f01540361198c576040517f08c379a000000000000000000000000000000000000000000000000000000000815260040161198390612f6f565b60405180910390fd5b600160035f8481526020019081526020015f206003015f6101000a81548160ff021916908315150217905550817fd98f6f58fc8adebda4634cbb1a786370cbd3632ec5638326be4b17cb6070726d60035f8581526020019081526020015f206003015f9054906101000a900460ff16604051611a089190612b04565b60405180910390a260019050919050565b5f3373ffffffffffffffffffffffffffffffffffffffff1660035f8581526020019081526020015f2060030160019054906101000a900473ffffffffffffffffffffffffffffffffffffffff1673ffffffffffffffffffffffffffffffffffffffff1614611abc576040517f08c379a0000000000000000000000000000000000000000000000000000000008152600401611ab3906137c9565b60405180910390fd5b5f801b60035f8581526020019081526020015f205f015403611b13576040517f08c379a0000000000000000000000000000000000000000000000000000000008152600401611b0a90612f6f565b60405180910390fd5b8160035f8581526020019081526020015f2060020181905550827fc9484fe818367891478f62bbffa32d87f515bbcb8e28e2106e62c73335747baa33604051611b5c91906125ae565b60405180910390a2827f1bdca308ef788205fb10fe896f501fa43d17e5cc6f6b1f52fca7e27c5fee167f83604051611b9491906124e7565b60405180910390a26001905092915050565b6003602052805f5260405f205f91509050805f015490806001018054611bcb9061304f565b80601f0160208091040260200160405190810160405280929190818152602001828054611bf79061304f565b8015611c425780601f10611c1957610100808354040283529160200191611c42565b820191905f5260205f20905b815481529060010190602001808311611c2557829003601f168201915b505050505090806002015490806003015f9054906101000a900460ff16908060030160019054906101000a900473ffffffffffffffffffffffffffffffffffffffff16905085565b5f5481565b5f611c9b858484610e62565b611cda576040517f08c379a0000000000000000000000000000000000000000000000000000000008152600401611cd190613831565b60405180910390fd5b611d19856040518060400160405280600e81526020017f4f776e657220766572696669656400000000000000000000000000000000000081525061216e565b8373ffffffffffffffffffffffffffffffffffffffff168573ffffffffffffffffffffffffffffffffffffffff167f767190ce9fbc3cd9637b5d63df7fe59d779f8a36b937363daded58ac71dd4d55604051611d7490613899565b60405180910390a35f73ffffffffffffffffffffffffffffffffffffffff1660025f8773ffffffffffffffffffffffffffffffffffffffff1673ffffffffffffffffffffffffffffffffffffffff1681526020019081526020015f206001015f9054906101000a900473ffffffffffffffffffffffffffffffffffffffff1673ffffffffffffffffffffffffffffffffffffffff1603611e49576040517f08c379a0000000000000000000000000000000000000000000000000000000008152600401611e4090613901565b60405180910390fd5b5f73ffffffffffffffffffffffffffffffffffffffff1660025f8673ffffffffffffffffffffffffffffffffffffffff1673ffffffffffffffffffffffffffffffffffffffff1681526020019081526020015f206001015f9054906101000a900473ffffffffffffffffffffffffffffffffffffffff1673ffffffffffffffffffffffffffffffffffffffff1603611f16576040517f08c379a0000000000000000000000000000000000000000000000000000000008152600401611f0d90613969565b60405180910390fd5b60035f8481526020019081526020015f206003015f9054906101000a900460ff16611f76576040517f08c379a0000000000000000000000000000000000000000000000000000000008152600401611f6d906139d1565b60405180910390fd5b60035f8481526020019081526020015f20600201543414611fcc576040517f08c379a0000000000000000000000000000000000000000000000000000000008152600401611fc390613a39565b60405180910390fd5b8360035f8581526020019081526020015f2060030160016101000a81548173ffffffffffffffffffffffffffffffffffffffff021916908373ffffffffffffffffffffffffffffffffffffffff1602179055505f60035f8581526020019081526020015f206003015f6101000a81548160ff0219169083151502179055506120548584612323565b60025f8573ffffffffffffffffffffffffffffffffffffffff1673ffffffffffffffffffffffffffffffffffffffff1681526020019081526020015f2060020183908060018154018082558091505060019003905f5260205f20015f90919091909150558473ffffffffffffffffffffffffffffffffffffffff166108fc3490811502906040515f60405180830381858888f193505050501580156120fb573d5f803e3d5ffd5b50828473ffffffffffffffffffffffffffffffffffffffff168673ffffffffffffffffffffffffffffffffffffffff167ff7cffcad6931cf18fda74a4607f3fd0cb400aeae1431c4a9b54b1db30eee738a3460405161215a91906124e7565b60405180910390a460019050949350505050565b60045f8373ffffffffffffffffffffffffffffffffffffffff1673ffffffffffffffffffffffffffffffffffffffff1681526020019081526020015f2060405180606001604052803373ffffffffffffffffffffffffffffffffffffffff1681526020018473ffffffffffffffffffffffffffffffffffffffff16815260200183815250908060018154018082558091505060019003905f5260205f2090600302015f909190919091505f820151815f015f6101000a81548173ffffffffffffffffffffffffffffffffffffffff021916908373ffffffffffffffffffffffffffffffffffffffff1602179055506020820151816001015f6101000a81548173ffffffffffffffffffffffffffffffffffffffff021916908373ffffffffffffffffffffffffffffffffffffffff16021790555060408201518160020190816122b791906134bf565b5050508173ffffffffffffffffffffffffffffffffffffffff163373ffffffffffffffffffffffffffffffffffffffff167f767190ce9fbc3cd9637b5d63df7fe59d779f8a36b937363daded58ac71dd4d5583604051612317919061358e565b60405180910390a35050565b5f60025f8473ffffffffffffffffffffffffffffffffffffffff1673ffffffffffffffffffffffffffffffffffffffff1681526020019081526020015f2060020190505f5b818054905081101561241d578282828154811061238857612387612ff5565b5b905f5260205f2001540361240a5781600183805490506123a89190613a57565b815481106123b9576123b8612ff5565b5b905f5260205f2001548282815481106123d5576123d4612ff5565b5b905f5260205f200181905550818054806123f2576123f1613a8a565b5b600190038181905f5260205f20015f9055905561241d565b8080612415906130ac565b915050612368565b50505050565b6040518060a001604052805f8019168152602001606081526020015f81526020015f151581526020015f73ffffffffffffffffffffffffffffffffffffffff1681525090565b828054828255905f5260205f209081019282156124a3579160200282015b828111156124a2578251825591602001919060010190612487565b5b5090506124b091906124b4565b5090565b5b808211156124cb575f815f9055506001016124b5565b5090565b5f819050919050565b6124e1816124cf565b82525050565b5f6020820190506124fa5f8301846124d8565b92915050565b5f604051905090565b5f80fd5b5f80fd5b5f819050919050565b61252381612511565b811461252d575f80fd5b50565b5f8135905061253e8161251a565b92915050565b5f6020828403121561255957612558612509565b5b5f61256684828501612530565b91505092915050565b5f73ffffffffffffffffffffffffffffffffffffffff82169050919050565b5f6125988261256f565b9050919050565b6125a88161258e565b82525050565b5f6020820190506125c15f83018461259f565b92915050565b6125d08161258e565b81146125da575f80fd5b50565b5f813590506125eb816125c7565b92915050565b5f6020828403121561260657612605612509565b5b5f612613848285016125dd565b91505092915050565b5f81519050919050565b5f82825260208201905092915050565b5f819050602082019050919050565b61264e81612511565b82525050565b5f81519050919050565b5f82825260208201905092915050565b5f5b8381101561268b578082015181840152602081019050612670565b5f8484015250505050565b5f601f19601f8301169050919050565b5f6126b082612654565b6126ba818561265e565b93506126ca81856020860161266e565b6126d381612696565b840191505092915050565b6126e7816124cf565b82525050565b5f8115159050919050565b612701816126ed565b82525050565b5f6127118261256f565b9050919050565b61272181612707565b82525050565b5f60a083015f83015161273c5f860182612645565b506020830151848203602086015261275482826126a6565b915050604083015161276960408601826126de565b50606083015161277c60608601826126f8565b50608083015161278f6080860182612718565b508091505092915050565b5f6127a58383612727565b905092915050565b5f602082019050919050565b5f6127c38261261c565b6127cd8185612626565b9350836020820285016127df85612636565b805f5b8581101561281a57848403895281516127fb858261279a565b9450612806836127ad565b925060208a019950506001810190506127e2565b50829750879550505050505092915050565b5f6020820190508181035f83015261284481846127b9565b905092915050565b612855816124cf565b811461285f575f80fd5b50565b5f813590506128708161284c565b92915050565b5f806040838503121561288c5761288b612509565b5b5f612899858286016125dd565b92505060206128aa85828601612862565b9150509250929050565b6128bd81612511565b82525050565b5f6020820190506128d65f8301846128b4565b92915050565b5f60a083015f8301516128f15f860182612645565b506020830151848203602086015261290982826126a6565b915050604083015161291e60408601826126de565b50606083015161293160608601826126f8565b5060808301516129446080860182612718565b508091505092915050565b5f6020820190508181035f83015261296781846128dc565b905092915050565b5f80fd5b5f80fd5b7f4e487b71000000000000000000000000000000000000000000000000000000005f52604160045260245ffd5b6129ad82612696565b810181811067ffffffffffffffff821117156129cc576129cb612977565b5b80604052505050565b5f6129de612500565b90506129ea82826129a4565b919050565b5f67ffffffffffffffff821115612a0957612a08612977565b5b612a1282612696565b9050602081019050919050565b828183375f83830152505050565b5f612a3f612a3a846129ef565b6129d5565b905082815260208101848484011115612a5b57612a5a612973565b5b612a66848285612a1f565b509392505050565b5f82601f830112612a8257612a8161296f565b5b8135612a92848260208601612a2d565b91505092915050565b5f8060408385031215612ab157612ab0612509565b5b5f612abe858286016125dd565b925050602083013567ffffffffffffffff811115612adf57612ade61250d565b5b612aeb85828601612a6e565b9150509250929050565b612afe816126ed565b82525050565b5f602082019050612b175f830184612af5565b92915050565b5f805f60608486031215612b3457612b33612509565b5b5f612b41868287016125dd565b9350506020612b5286828701612530565b9250506040612b6386828701612862565b9150509250925092565b5f81519050919050565b5f82825260208201905092915050565b5f819050602082019050919050565b612b9f8161258e565b82525050565b5f606083015f830151612bba5f860182612b96565b506020830151612bcd6020860182612b96565b5060408301518482036040860152612be582826126a6565b9150508091505092915050565b5f612bfd8383612ba5565b905092915050565b5f602082019050919050565b5f612c1b82612b6d565b612c258185612b77565b935083602082028501612c3785612b87565b805f5b85811015612c725784840389528151612c538582612bf2565b9450612c5e83612c05565b925060208a01995050600181019050612c3a565b50829750879550505050505092915050565b5f6020820190508181035f830152612c9c8184612c11565b905092915050565b5f805f60608486031215612cbb57612cba612509565b5b5f612cc8868287016125dd565b935050602084013567ffffffffffffffff811115612ce957612ce861250d565b5b612cf586828701612a6e565b9250506040612d0686828701612862565b9150509250925092565b5f82825260208201905092915050565b5f612d2a82612654565b612d348185612d10565b9350612d4481856020860161266e565b612d4d81612696565b840191505092915050565b612d6181612707565b82525050565b5f6040820190508181035f830152612d7f8185612d20565b9050612d8e6020830184612d58565b9392505050565b5f606082019050612da85f83018661259f565b612db5602083018561259f565b8181036040830152612dc78184612d20565b9050949350505050565b5f8060408385031215612de757612de6612509565b5b5f612df485828601612530565b925050602083013567ffffffffffffffff811115612e1557612e1461250d565b5b612e2185828601612a6e565b9150509250929050565b5f8060408385031215612e4157612e40612509565b5b5f612e4e85828601612530565b9250506020612e5f85828601612862565b9150509250929050565b5f60a082019050612e7c5f8301886128b4565b8181036020830152612e8e8187612d20565b9050612e9d60408301866124d8565b612eaa6060830185612af5565b612eb76080830184612d58565b9695505050505050565b5f805f8060808587031215612ed957612ed8612509565b5b5f612ee6878288016125dd565b9450506020612ef7878288016125dd565b9350506040612f0887828801612530565b9250506060612f1987828801612862565b91505092959194509250565b7f50726f6475637420646f6573206e6f74206578697374000000000000000000005f82015250565b5f612f59601683612d10565b9150612f6482612f25565b602082019050919050565b5f6020820190508181035f830152612f8681612f4d565b9050919050565b7f4f776e6572206e6f7420726567697374657265640000000000000000000000005f82015250565b5f612fc1601483612d10565b9150612fcc82612f8d565b602082019050919050565b5f6020820190508181035f830152612fee81612fb5565b9050919050565b7f4e487b71000000000000000000000000000000000000000000000000000000005f52603260045260245ffd5b7f4e487b71000000000000000000000000000000000000000000000000000000005f52602260045260245ffd5b5f600282049050600182168061306657607f821691505b60208210810361307957613078613022565b5b50919050565b7f4e487b71000000000000000000000000000000000000000000000000000000005f52601160045260245ffd5b5f6130b6826124cf565b91507fffffffffffffffffffffffffffffffffffffffffffffffffffffffffffffffff82036130e8576130e761307f565b5b600182019050919050565b5f6130fd826124cf565b9150613108836124cf565b9250828202613116816124cf565b9150828204841483151761312d5761312c61307f565b5b5092915050565b5f8160601b9050919050565b5f61314a82613134565b9050919050565b5f61315b82613140565b9050919050565b61317361316e8261258e565b613151565b82525050565b5f819050919050565b61319361318e826124cf565b613179565b82525050565b5f6131a48285613162565b6014820191506131b48284613182565b6020820191508190509392505050565b7f4f6e6c7920746865206f776e65722063616e207363616e207468652070726f645f8201527f7563740000000000000000000000000000000000000000000000000000000000602082015250565b5f61321e602383612d10565b9150613229826131c4565b604082019050919050565b5f6020820190508181035f83015261324b81613212565b9050919050565b7f496e76616c6964206164647265737300000000000000000000000000000000005f82015250565b5f613286600f83612d10565b915061329182613252565b602082019050919050565b5f6020820190508181035f8301526132b38161327a565b9050919050565b7f4f776e657220616c7265616479207265676973746572656400000000000000005f82015250565b5f6132ee601883612d10565b91506132f9826132ba565b602082019050919050565b5f6020820190508181035f83015261331b816132e2565b9050919050565b5f819050815f5260205f209050919050565b5f6020601f8301049050919050565b5f82821b905092915050565b5f6008830261337e7fffffffffffffffffffffffffffffffffffffffffffffffffffffffffffffffff82613343565b6133888683613343565b95508019841693508086168417925050509392505050565b5f819050919050565b5f6133c36133be6133b9846124cf565b6133a0565b6124cf565b9050919050565b5f819050919050565b6133dc836133a9565b6133f06133e8826133ca565b84845461334f565b825550505050565b5f90565b6134046133f8565b61340f8184846133d3565b505050565b5b81811015613432576134275f826133fc565b600181019050613415565b5050565b601f8211156134775761344881613322565b61345184613334565b81016020851015613460578190505b61347461346c85613334565b830182613414565b50505b505050565b5f82821c905092915050565b5f6134975f198460080261347c565b1980831691505092915050565b5f6134af8383613488565b9150826002028217905092915050565b6134c882612654565b67ffffffffffffffff8111156134e1576134e0612977565b5b6134eb825461304f565b6134f6828285613436565b5f60209050601f831160018114613527575f8415613515578287015190505b61351f85826134a4565b865550613586565b601f19841661353586613322565b5f5b8281101561355c57848901518255600182019150602085019450602081019050613537565b868310156135795784890151613575601f891682613488565b8355505b6001600288020188555050505b505050505050565b5f6020820190508181035f8301526135a68184612d20565b905092915050565b5f6040820190506135c15f8301856128b4565b6135ce6020830184612af5565b9392505050565b7f496e76616c6964206f776e6572206164647265737300000000000000000000005f82015250565b5f613609601583612d10565b9150613614826135d5565b602082019050919050565b5f6020820190508181035f830152613636816135fd565b9050919050565b7f4f6e6c7920746865206f776e65722063616e206368616e6765207468652064655f8201527f736372697074696f6e0000000000000000000000000000000000000000000000602082015250565b5f613697602983612d10565b91506136a28261363d565b604082019050919050565b5f6020820190508181035f8301526136c48161368b565b9050919050565b7f4f6e6c7920746865206f776e65722063616e20736574207468652070726f64755f8201527f637420666f722073616c65000000000000000000000000000000000000000000602082015250565b5f613725602b83612d10565b9150613730826136cb565b604082019050919050565b5f6020820190508181035f83015261375281613719565b9050919050565b7f4f6e6c7920746865206f776e65722063616e206368616e6765207468652070725f8201527f6963650000000000000000000000000000000000000000000000000000000000602082015250565b5f6137b3602383612d10565b91506137be82613759565b604082019050919050565b5f6020820190508181035f8301526137e0816137a7565b9050919050565b7f53656c6c6572206973206e6f7420746865206f776e65720000000000000000005f82015250565b5f61381b601783612d10565b9150613826826137e7565b602082019050919050565b5f6020820190508181035f8301526138488161380f565b9050919050565b7f4f776e65722076657269666965640000000000000000000000000000000000005f82015250565b5f613883600e83612d10565b915061388e8261384f565b602082019050919050565b5f6020820190508181035f8301526138b081613877565b9050919050565b7f53656c6c6572206e6f74207265676973746572656400000000000000000000005f82015250565b5f6138eb601583612d10565b91506138f6826138b7565b602082019050919050565b5f6020820190508181035f830152613918816138df565b9050919050565b7f4275796572206e6f7420726567697374657265640000000000000000000000005f82015250565b5f613953601483612d10565b915061395e8261391f565b602082019050919050565b5f6020820190508181035f83015261398081613947565b9050919050565b7f50726f64756374206973206e6f7420666f722073616c650000000000000000005f82015250565b5f6139bb601783612d10565b91506139c682613987565b602082019050919050565b5f6020820190508181035f8301526139e8816139af565b9050919050565b7f496e636f727265637420707269636500000000000000000000000000000000005f82015250565b5f613a23600f83612d10565b9150613a2e826139ef565b602082019050919050565b5f6020820190508181035f830152613a5081613a17565b9050919050565b5f613a61826124cf565b9150613a6c836124cf565b9250828203905081811115613a8457613a8361307f565b5b92915050565b7f4e487b71000000000000000000000000000000000000000000000000000000005f52603160045260245ffdfea264697066735822122024cba60db44904fff79014468b572b84696729d4f0cf626e6b1fb4ef3439180364736f6c63430008140033",
  "linkReferences": {},
  "deployedLinkReferences": {}
}