{
  "_format": "hh-sol-artifact-1",
  "contractName": "Transaction",
  "sourceName": "contracts/Transaction.sol",
  "abi": [
    {
      "anonymous": false,
      "inputs": [
        {
          "indexed": true,
          "internalType": "bytes32",
          "name": "productHash",
          "type": "bytes32"
        },
        {
          "indexed": true,
          "internalType": "address",
          "name": "owner",
          "type": "address"
        }
      ],
      "name": "GetOwnerOfProd",
      "type": "event"
    },
    {
      "anonymous": false,
      "inputs": [
        {
          "indexed": true,
          "internalType": "address",
          "name": "sender",
          "type": "address"
        },
        {
          "indexed": true,
          "internalType": "address",
          "name": "reciever",
          "type": "address"
        },
        {
          "indexed": false,
          "internalType": "string",
          "name": "message",
          "type": "string"
        }
      ],
      "name": "NotificationSent",
      "type": "event"
    },
    {
      "anonymous": false,
      "inputs": [
        {
          "indexed": true,
          "internalType": "address",
          "name": "ownerAddress",
          "type": "address"
        },
        {
          "indexed": false,
          "internalType": "string",
          "name": "ownerName",
          "type": "string"
        }
      ],
      "name": "OwnerRegistered",
      "type": "event"
    },
    {
      "anonymous": false,
      "inputs": [
        {
          "indexed": true,
          "internalType": "address",
          "name": "ownerAddress",
          "type": "address"
        },
        {
          "indexed": false,
          "internalType": "bytes32",
          "name": "productHash",
          "type": "bytes32"
        },
        {
          "indexed": false,
          "internalType": "bool",
          "name": "verified",
          "type": "bool"
        },
        {
          "indexed": true,
          "internalType": "uint256",
          "name": "timestamp",
          "type": "uint256"
        }
      ],
      "name": "OwnerVerified",
      "type": "event"
    },
    {
      "anonymous": false,
      "inputs": [
        {
          "indexed": true,
          "internalType": "bytes32",
          "name": "productHash",
          "type": "bytes32"
        },
        {
          "indexed": false,
          "internalType": "string",
          "name": "newDescription",
          "type": "string"
        }
      ],
      "name": "ProductDescriptionChanged",
      "type": "event"
    },
    {
      "anonymous": false,
      "inputs": [
        {
          "indexed": true,
          "internalType": "bytes32",
          "name": "productHash",
          "type": "bytes32"
        },
        {
          "indexed": false,
          "internalType": "bool",
          "name": "forSale",
          "type": "bool"
        }
      ],
      "name": "ProductForSaleSet",
      "type": "event"
    },
    {
      "anonymous": false,
      "inputs": [
        {
          "indexed": true,
          "internalType": "bytes32",
          "name": "productHash",
          "type": "bytes32"
        },
        {
          "indexed": false,
          "internalType": "uint256",
          "name": "newPrice",
          "type": "uint256"
        }
      ],
      "name": "ProductPriceChanged",
      "type": "event"
    },
    {
      "anonymous": false,
      "inputs": [
        {
          "indexed": true,
          "internalType": "bytes32",
          "name": "productHash",
          "type": "bytes32"
        },
        {
          "indexed": false,
          "internalType": "address",
          "name": "ownerAddress",
          "type": "address"
        }
      ],
      "name": "ProductRegistered",
      "type": "event"
    },
    {
      "anonymous": false,
      "inputs": [
        {
          "indexed": true,
          "internalType": "address",
          "name": "seller",
          "type": "address"
        },
        {
          "indexed": true,
          "internalType": "address",
          "name": "buyer",
          "type": "address"
        },
        {
          "indexed": true,
          "internalType": "bytes32",
          "name": "productHash",
          "type": "bytes32"
        },
        {
          "indexed": false,
          "internalType": "uint256",
          "name": "price",
          "type": "uint256"
        }
      ],
      "name": "ProductSold",
      "type": "event"
    },
    {
      "inputs": [
        {
          "internalType": "address",
          "name": "",
          "type": "address"
        }
      ],
      "name": "OwnersList",
      "outputs": [
        {
          "internalType": "string",
          "name": "ownerName",
          "type": "string"
        },
        {
          "internalType": "address payable",
          "name": "ownerAddress",
          "type": "address"
        }
      ],
      "stateMutability": "view",
      "type": "function"
    },
    {
      "inputs": [
        {
          "internalType": "bytes32",
          "name": "",
          "type": "bytes32"
        }
      ],
      "name": "ProductsList",
      "outputs": [
        {
          "internalType": "bytes32",
          "name": "productHash",
          "type": "bytes32"
        },
        {
          "internalType": "string",
          "name": "description",
          "type": "string"
        },
        {
          "internalType": "uint256",
          "name": "price",
          "type": "uint256"
        },
        {
          "internalType": "bool",
          "name": "isForSale",
          "type": "bool"
        },
        {
          "internalType": "address payable",
          "name": "owner",
          "type": "address"
        }
      ],
      "stateMutability": "view",
      "type": "function"
    },
    {
      "inputs": [
        {
          "internalType": "address",
          "name": "seller",
          "type": "address"
        },
        {
          "internalType": "address",
          "name": "buyer",
          "type": "address"
        },
        {
          "internalType": "bytes32",
          "name": "productHash",
          "type": "bytes32"
        },
        {
          "internalType": "uint256",
          "name": "timestamp",
          "type": "uint256"
        }
      ],
      "name": "buyProduct",
      "outputs": [
        {
          "internalType": "bool",
          "name": "",
          "type": "bool"
        }
      ],
      "stateMutability": "payable",
      "type": "function"
    },
    {
      "inputs": [
        {
          "internalType": "bytes32",
          "name": "productHash",
          "type": "bytes32"
        },
        {
          "internalType": "string",
          "name": "newDescription",
          "type": "string"
        }
      ],
      "name": "changeDescription",
      "outputs": [
        {
          "internalType": "bool",
          "name": "",
          "type": "bool"
        }
      ],
      "stateMutability": "nonpayable",
      "type": "function"
    },
    {
      "inputs": [
        {
          "internalType": "bytes32",
          "name": "productHash",
          "type": "bytes32"
        },
        {
          "internalType": "uint256",
          "name": "newPrice",
          "type": "uint256"
        }
      ],
      "name": "changePrice",
      "outputs": [
        {
          "internalType": "bool",
          "name": "",
          "type": "bool"
        }
      ],
      "stateMutability": "nonpayable",
      "type": "function"
    },
    {
      "inputs": [
        {
          "internalType": "address",
          "name": "ownerAddress",
          "type": "address"
        },
        {
          "internalType": "uint256",
          "name": "number",
          "type": "uint256"
        }
      ],
      "name": "generateHash",
      "outputs": [
        {
          "internalType": "bytes32",
          "name": "",
          "type": "bytes32"
        }
      ],
      "stateMutability": "pure",
      "type": "function"
    },
    {
      "inputs": [
        {
          "internalType": "address",
          "name": "ownerAddress",
          "type": "address"
        }
      ],
      "name": "getAllProductsByOwner",
      "outputs": [
        {
          "components": [
            {
              "internalType": "bytes32",
              "name": "productHash",
              "type": "bytes32"
            },
            {
              "internalType": "string",
              "name": "description",
              "type": "string"
            },
            {
              "internalType": "uint256",
              "name": "price",
              "type": "uint256"
            },
            {
              "internalType": "bool",
              "name": "isForSale",
              "type": "bool"
            },
            {
              "internalType": "address payable",
              "name": "owner",
              "type": "address"
            }
          ],
          "internalType": "struct Transaction.Product[]",
          "name": "",
          "type": "tuple[]"
        }
      ],
      "stateMutability": "view",
      "type": "function"
    },
    {
      "inputs": [
        {
          "internalType": "address",
          "name": "user",
          "type": "address"
        }
      ],
      "name": "getNotifications",
      "outputs": [
        {
          "components": [
            {
              "internalType": "address",
              "name": "sender",
              "type": "address"
            },
            {
              "internalType": "address",
              "name": "reciever",
              "type": "address"
            },
            {
              "internalType": "string",
              "name": "message",
              "type": "string"
            }
          ],
          "internalType": "struct Transaction.NotificationInfo[]",
          "name": "",
          "type": "tuple[]"
        }
      ],
      "stateMutability": "view",
      "type": "function"
    },
    {
      "inputs": [
        {
          "internalType": "bytes32",
          "name": "productHash",
          "type": "bytes32"
        }
      ],
      "name": "getOwnerOfProduct",
      "outputs": [
        {
          "internalType": "address",
          "name": "",
          "type": "address"
        }
      ],
      "stateMutability": "nonpayable",
      "type": "function"
    },
    {
      "inputs": [
        {
          "internalType": "address",
          "name": "",
          "type": "address"
        },
        {
          "internalType": "uint256",
          "name": "",
          "type": "uint256"
        }
      ],
      "name": "notificationsList",
      "outputs": [
        {
          "internalType": "address",
          "name": "sender",
          "type": "address"
        },
        {
          "internalType": "address",
          "name": "reciever",
          "type": "address"
        },
        {
          "internalType": "string",
          "name": "message",
          "type": "string"
        }
      ],
      "stateMutability": "view",
      "type": "function"
    },
    {
      "inputs": [],
      "name": "ownerCount",
      "outputs": [
        {
          "internalType": "uint256",
          "name": "",
          "type": "uint256"
        }
      ],
      "stateMutability": "view",
      "type": "function"
    },
    {
      "inputs": [],
      "name": "productCount",
      "outputs": [
        {
          "internalType": "uint256",
          "name": "",
          "type": "uint256"
        }
      ],
      "stateMutability": "view",
      "type": "function"
    },
    {
      "inputs": [
        {
          "internalType": "address",
          "name": "ownerAddress",
          "type": "address"
        },
        {
          "internalType": "string",
          "name": "ownerName",
          "type": "string"
        }
      ],
      "name": "registerOwner",
      "outputs": [
        {
          "internalType": "bool",
          "name": "",
          "type": "bool"
        }
      ],
      "stateMutability": "nonpayable",
      "type": "function"
    },
    {
      "inputs": [
        {
          "internalType": "address",
          "name": "ownerAddress",
          "type": "address"
        },
        {
          "internalType": "string",
          "name": "desc",
          "type": "string"
        },
        {
          "internalType": "uint256",
          "name": "price",
          "type": "uint256"
        }
      ],
      "name": "registerProduct",
      "outputs": [
        {
          "internalType": "bool",
          "name": "",
          "type": "bool"
        }
      ],
      "stateMutability": "nonpayable",
      "type": "function"
    },
    {
      "inputs": [
        {
          "internalType": "bytes32",
          "name": "productHash",
          "type": "bytes32"
        }
      ],
      "name": "sellerScan",
      "outputs": [
        {
          "components": [
            {
              "internalType": "bytes32",
              "name": "productHash",
              "type": "bytes32"
            },
            {
              "internalType": "string",
              "name": "description",
              "type": "string"
            },
            {
              "internalType": "uint256",
              "name": "price",
              "type": "uint256"
            },
            {
              "internalType": "bool",
              "name": "isForSale",
              "type": "bool"
            },
            {
              "internalType": "address payable",
              "name": "owner",
              "type": "address"
            }
          ],
          "internalType": "struct Transaction.Product",
          "name": "",
          "type": "tuple"
        }
      ],
      "stateMutability": "nonpayable",
      "type": "function"
    },
    {
      "inputs": [
        {
          "internalType": "bytes32",
          "name": "productHash",
          "type": "bytes32"
        }
      ],
      "name": "setProductForSale",
      "outputs": [
        {
          "internalType": "bool",
          "name": "",
          "type": "bool"
        }
      ],
      "stateMutability": "nonpayable",
      "type": "function"
    },
    {
      "inputs": [
        {
          "internalType": "address",
          "name": "ownerAddress",
          "type": "address"
        },
        {
          "internalType": "bytes32",
          "name": "productHash",
          "type": "bytes32"
        },
        {
          "internalType": "uint256",
          "name": "timestamp",
          "type": "uint256"
        }
      ],
      "name": "verifyOwner",
      "outputs": [
        {
          "internalType": "bool",
          "name": "",
          "type": "bool"
        }
      ],
      "stateMutability": "nonpayable",
      "type": "function"
    }
  ],
  "bytecode": "0x608060405260008055600060015534801561001957600080fd5b50613b07806100296000396000f3fe6080604052600436106100fe5760003560e01c80639623136a11610095578063d562966f11610064578063d562966f146103d0578063dabd2eb21461040d578063dee3c9281461044a578063e0f6ef871461048b578063e3549459146104b6576100fe565b80639623136a146102d9578063c0c4a20f14610316578063c871f7fa14610354578063cc2a205214610393576100fe565b8063672fec82116100d1578063672fec82146101e55780636886d55214610222578063894364811461025f5780638a8f63b01461029c576100fe565b80630db02622146101035780633f81dd8a1461012e57806355442bae1461016b57806360750a4f146101a8575b600080fd5b34801561010f57600080fd5b506101186104e6565b6040516101259190613352565b60405180910390f35b34801561013a57600080fd5b5061015560048036038101906101509190612922565b6104ec565b6040516101629190612fa8565b60405180910390f35b34801561017757600080fd5b50610192600480360381019061018d9190612730565b610602565b60405161019f9190613023565b60405180910390f35b3480156101b457600080fd5b506101cf60048036038101906101ca91906128e2565b610915565b6040516101dc9190613060565b60405180910390f35b3480156101f157600080fd5b5061020c60048036038101906102079190612922565b610953565b6040516102199190613330565b60405180910390f35b34801561022e57600080fd5b5061024960048036038101906102449190612817565b610bc6565b6040516102569190613045565b60405180910390f35b34801561026b57600080fd5b50610286600480360381019061028191906127c4565b610eb5565b6040516102939190613045565b60405180910390f35b3480156102a857600080fd5b506102c360048036038101906102be9190612730565b6110b5565b6040516102d09190613001565b60405180910390f35b3480156102e557600080fd5b5061030060048036038101906102fb9190612873565b611291565b60405161030d9190613045565b60405180910390f35b34801561032257600080fd5b5061033d60048036038101906103389190612730565b6115bb565b60405161034b929190613120565b60405180910390f35b34801561036057600080fd5b5061037b600480360381019061037691906128e2565b611687565b60405161038a93929190612fc3565b60405180910390f35b34801561039f57600080fd5b506103ba60048036038101906103b5919061294f565b611796565b6040516103c79190613045565b60405180910390f35b3480156103dc57600080fd5b506103f760048036038101906103f29190612922565b61193d565b6040516104049190613045565b60405180910390f35b34801561041957600080fd5b50610434600480360381019061042f91906129ab565b611ad2565b6040516104419190613045565b60405180910390f35b34801561045657600080fd5b50610471600480360381019061046c9190612922565b611c69565b6040516104829594939291906130a4565b60405180910390f35b34801561049757600080fd5b506104a0611d54565b6040516104ad9190613352565b60405180910390f35b6104d060048036038101906104cb919061275d565b611d5a565b6040516104dd9190613045565b60405180910390f35b60015481565b60008060001b6003600084815260200190815260200160002060000154141561054a576040517f08c379a000000000000000000000000000000000000000000000000000000000815260040161054190613150565b60405180910390fd5b6003600083815260200190815260200160002060030160019054906101000a900473ffffffffffffffffffffffffffffffffffffffff1673ffffffffffffffffffffffffffffffffffffffff16827f43d76ed462540701b46a7eafbea4ecce1ce351b570622a75fd025a8a57eb169a60405160405180910390a36003600083815260200190815260200160002060030160019054906101000a900473ffffffffffffffffffffffffffffffffffffffff169050919050565b6060600073ffffffffffffffffffffffffffffffffffffffff16600260008473ffffffffffffffffffffffffffffffffffffffff1673ffffffffffffffffffffffffffffffffffffffff16815260200190815260200160002060010160009054906101000a900473ffffffffffffffffffffffffffffffffffffffff1673ffffffffffffffffffffffffffffffffffffffff1614156106d6576040517f08c379a00000000000000000000000000000000000000000000000000000000081526004016106cd90613230565b60405180910390fd5b6000600260008473ffffffffffffffffffffffffffffffffffffffff1673ffffffffffffffffffffffffffffffffffffffff16815260200190815260200160002060020190506000818054905067ffffffffffffffff81111561073c5761073b61372c565b5b60405190808252806020026020018201604052801561077557816020015b61076261252a565b81526020019060019003908161075a5790505b50905060005b828054905081101561090a576003600084838154811061079e5761079d6136fd565b5b906000526020600020015481526020019081526020016000206040518060a0016040529081600082015481526020016001820180546107dc90613596565b80601f016020809104026020016040519081016040528092919081815260200182805461080890613596565b80156108555780601f1061082a57610100808354040283529160200191610855565b820191906000526020600020905b81548152906001019060200180831161083857829003601f168201915b50505050508152602001600282015481526020016003820160009054906101000a900460ff161515151581526020016003820160019054906101000a900473ffffffffffffffffffffffffffffffffffffffff1673ffffffffffffffffffffffffffffffffffffffff1673ffffffffffffffffffffffffffffffffffffffff16815250508282815181106108ec576108eb6136fd565b5b60200260200101819052508080610902906135f9565b91505061077b565b508092505050919050565b60008282836109249190613462565b604051602001610935929190612f7c565b60405160208183030381529060405280519060200120905092915050565b61095b61252a565b3373ffffffffffffffffffffffffffffffffffffffff166003600084815260200190815260200160002060030160019054906101000a900473ffffffffffffffffffffffffffffffffffffffff1673ffffffffffffffffffffffffffffffffffffffff16146109ff576040517f08c379a00000000000000000000000000000000000000000000000000000000081526004016109f6906132d0565b60405180910390fd5b6000801b60036000848152602001908152602001600020600001541415610a5b576040517f08c379a0000000000000000000000000000000000000000000000000000000008152600401610a5290613150565b60405180910390fd5b60016003600084815260200190815260200160002060030160006101000a81548160ff021916908315150217905550600360008381526020019081526020016000206040518060a001604052908160008201548152602001600182018054610ac290613596565b80601f0160208091040260200160405190810160405280929190818152602001828054610aee90613596565b8015610b3b5780601f10610b1057610100808354040283529160200191610b3b565b820191906000526020600020905b815481529060010190602001808311610b1e57829003601f168201915b50505050508152602001600282015481526020016003820160009054906101000a900460ff161515151581526020016003820160019054906101000a900473ffffffffffffffffffffffffffffffffffffffff1673ffffffffffffffffffffffffffffffffffffffff1673ffffffffffffffffffffffffffffffffffffffff16815250509050919050565b60008073ffffffffffffffffffffffffffffffffffffffff168373ffffffffffffffffffffffffffffffffffffffff161415610c37576040517f08c379a0000000000000000000000000000000000000000000000000000000008152600401610c2e90613170565b60405180910390fd5b600073ffffffffffffffffffffffffffffffffffffffff16600260008573ffffffffffffffffffffffffffffffffffffffff1673ffffffffffffffffffffffffffffffffffffffff16815260200190815260200160002060010160009054906101000a900473ffffffffffffffffffffffffffffffffffffffff1673ffffffffffffffffffffffffffffffffffffffff1614610d08576040517f08c379a0000000000000000000000000000000000000000000000000000000008152600401610cff90613190565b60405180910390fd5b60016000815480929190610d1b906135f9565b919050555060405180606001604052808381526020018473ffffffffffffffffffffffffffffffffffffffff168152602001600067ffffffffffffffff811115610d6857610d6761372c565b5b604051908082528060200260200182016040528015610d965781602001602082028036833780820191505090505b50815250600260008573ffffffffffffffffffffffffffffffffffffffff1673ffffffffffffffffffffffffffffffffffffffff1681526020019081526020016000206000820151816000019080519060200190610df5929190612574565b5060208201518160010160006101000a81548173ffffffffffffffffffffffffffffffffffffffff021916908373ffffffffffffffffffffffffffffffffffffffff1602179055506040820151816002019080519060200190610e599291906125fa565b509050508273ffffffffffffffffffffffffffffffffffffffff167f5f66e430b448d83d46a65ab17a365f04c0c8f1a66ac20bcc38dfde7f2d67514183604051610ea391906130fe565b60405180910390a26001905092915050565b60008073ffffffffffffffffffffffffffffffffffffffff16600260008673ffffffffffffffffffffffffffffffffffffffff1673ffffffffffffffffffffffffffffffffffffffff16815260200190815260200160002060010160009054906101000a900473ffffffffffffffffffffffffffffffffffffffff1673ffffffffffffffffffffffffffffffffffffffff161415610f88576040517f08c379a0000000000000000000000000000000000000000000000000000000008152600401610f7f90613230565b60405180910390fd5b6000801b60036000858152602001908152602001600020600001541415610fe4576040517f08c379a0000000000000000000000000000000000000000000000000000000008152600401610fdb90613150565b60405180910390fd5b8373ffffffffffffffffffffffffffffffffffffffff166003600085815260200190815260200160002060030160019054906101000a900473ffffffffffffffffffffffffffffffffffffffff1673ffffffffffffffffffffffffffffffffffffffff1614156110a957818473ffffffffffffffffffffffffffffffffffffffff167f50a7b527d0a5844b3341b372456a9cb4a25357559e40eb4424b74a7a3c84c7b085600160405161109892919061307b565b60405180910390a3600190506110ae565b600090505b9392505050565b6060600460008373ffffffffffffffffffffffffffffffffffffffff1673ffffffffffffffffffffffffffffffffffffffff168152602001908152602001600020805480602002602001604051908101604052809291908181526020016000905b8282101561128657838290600052602060002090600302016040518060600160405290816000820160009054906101000a900473ffffffffffffffffffffffffffffffffffffffff1673ffffffffffffffffffffffffffffffffffffffff1673ffffffffffffffffffffffffffffffffffffffff1681526020016001820160009054906101000a900473ffffffffffffffffffffffffffffffffffffffff1673ffffffffffffffffffffffffffffffffffffffff1673ffffffffffffffffffffffffffffffffffffffff1681526020016002820180546111f590613596565b80601f016020809104026020016040519081016040528092919081815260200182805461122190613596565b801561126e5780601f106112435761010080835404028352916020019161126e565b820191906000526020600020905b81548152906001019060200180831161125157829003601f168201915b50505050508152505081526020019060010190611116565b505050509050919050565b60008073ffffffffffffffffffffffffffffffffffffffff168473ffffffffffffffffffffffffffffffffffffffff161415611302576040517f08c379a00000000000000000000000000000000000000000000000000000000081526004016112f990613250565b60405180910390fd5b600073ffffffffffffffffffffffffffffffffffffffff16600260008673ffffffffffffffffffffffffffffffffffffffff1673ffffffffffffffffffffffffffffffffffffffff16815260200190815260200160002060010160009054906101000a900473ffffffffffffffffffffffffffffffffffffffff1673ffffffffffffffffffffffffffffffffffffffff1614156113d4576040517f08c379a00000000000000000000000000000000000000000000000000000000081526004016113cb90613230565b60405180910390fd5b6000808154809291906113e6906135f9565b9190505550600084600054604051602001611402929190612f7c565b60405160208183030381529060405280519060200120905060006040518060a001604052808381526020018681526020018581526020016000151581526020018773ffffffffffffffffffffffffffffffffffffffff1681525090508060036000848152602001908152602001600020600082015181600001556020820151816001019080519060200190611498929190612574565b506040820151816002015560608201518160030160006101000a81548160ff02191690831515021790555060808201518160030160016101000a81548173ffffffffffffffffffffffffffffffffffffffff021916908373ffffffffffffffffffffffffffffffffffffffff160217905550905050600260008773ffffffffffffffffffffffffffffffffffffffff1673ffffffffffffffffffffffffffffffffffffffff168152602001908152602001600020600201829080600181540180825580915050600190039060005260206000200160009091909190915055817fc9484fe818367891478f62bbffa32d87f515bbcb8e28e2106e62c73335747baa876040516115a69190612fa8565b60405180910390a26001925050509392505050565b60026020528060005260406000206000915090508060000180546115de90613596565b80601f016020809104026020016040519081016040528092919081815260200182805461160a90613596565b80156116575780601f1061162c57610100808354040283529160200191611657565b820191906000526020600020905b81548152906001019060200180831161163a57829003601f168201915b5050505050908060010160009054906101000a900473ffffffffffffffffffffffffffffffffffffffff16905082565b600460205281600052604060002081815481106116a357600080fd5b9060005260206000209060030201600091509150508060000160009054906101000a900473ffffffffffffffffffffffffffffffffffffffff16908060010160009054906101000a900473ffffffffffffffffffffffffffffffffffffffff169080600201805461171390613596565b80601f016020809104026020016040519081016040528092919081815260200182805461173f90613596565b801561178c5780601f106117615761010080835404028352916020019161178c565b820191906000526020600020905b81548152906001019060200180831161176f57829003601f168201915b5050505050905083565b60003373ffffffffffffffffffffffffffffffffffffffff166003600085815260200190815260200160002060030160019054906101000a900473ffffffffffffffffffffffffffffffffffffffff1673ffffffffffffffffffffffffffffffffffffffff161461183c576040517f08c379a000000000000000000000000000000000000000000000000000000000815260040161183390613210565b60405180910390fd5b6000801b60036000858152602001908152602001600020600001541415611898576040517f08c379a000000000000000000000000000000000000000000000000000000000815260040161188f90613150565b60405180910390fd5b816003600085815260200190815260200160002060010190805190602001906118c2929190612574565b50827fc9484fe818367891478f62bbffa32d87f515bbcb8e28e2106e62c73335747baa336040516118f39190612fa8565b60405180910390a2827f8f1ee0b9d0c8f7a1613c7a2d6c5e375a01421f46eb0ed13b8be3de325f6aede78360405161192b91906130fe565b60405180910390a26001905092915050565b60003373ffffffffffffffffffffffffffffffffffffffff166003600084815260200190815260200160002060030160019054906101000a900473ffffffffffffffffffffffffffffffffffffffff1673ffffffffffffffffffffffffffffffffffffffff16146119e3576040517f08c379a00000000000000000000000000000000000000000000000000000000081526004016119da906131d0565b60405180910390fd5b6000801b60036000848152602001908152602001600020600001541415611a3f576040517f08c379a0000000000000000000000000000000000000000000000000000000008152600401611a3690613150565b60405180910390fd5b60016003600084815260200190815260200160002060030160006101000a81548160ff021916908315150217905550817fd98f6f58fc8adebda4634cbb1a786370cbd3632ec5638326be4b17cb6070726d6003600085815260200190815260200160002060030160009054906101000a900460ff16604051611ac19190613045565b60405180910390a260019050919050565b60003373ffffffffffffffffffffffffffffffffffffffff166003600085815260200190815260200160002060030160019054906101000a900473ffffffffffffffffffffffffffffffffffffffff1673ffffffffffffffffffffffffffffffffffffffff1614611b78576040517f08c379a0000000000000000000000000000000000000000000000000000000008152600401611b6f90613310565b60405180910390fd5b6000801b60036000858152602001908152602001600020600001541415611bd4576040517f08c379a0000000000000000000000000000000000000000000000000000000008152600401611bcb90613150565b60405180910390fd5b816003600085815260200190815260200160002060020181905550827fc9484fe818367891478f62bbffa32d87f515bbcb8e28e2106e62c73335747baa33604051611c1f9190612fa8565b60405180910390a2827f1bdca308ef788205fb10fe896f501fa43d17e5cc6f6b1f52fca7e27c5fee167f83604051611c579190613352565b60405180910390a26001905092915050565b6003602052806000526040600020600091509050806000015490806001018054611c9290613596565b80601f0160208091040260200160405190810160405280929190818152602001828054611cbe90613596565b8015611d0b5780601f10611ce057610100808354040283529160200191611d0b565b820191906000526020600020905b815481529060010190602001808311611cee57829003601f168201915b5050505050908060020154908060030160009054906101000a900460ff16908060030160019054906101000a900473ffffffffffffffffffffffffffffffffffffffff16905085565b60005481565b6000611d67858484610eb5565b611da6576040517f08c379a0000000000000000000000000000000000000000000000000000000008152600401611d9d906132b0565b60405180910390fd5b611de5856040518060400160405280600e81526020017f4f776e6572207665726966696564000000000000000000000000000000000000815250612257565b8373ffffffffffffffffffffffffffffffffffffffff168573ffffffffffffffffffffffffffffffffffffffff167f767190ce9fbc3cd9637b5d63df7fe59d779f8a36b937363daded58ac71dd4d55604051611e40906131f0565b60405180910390a3600073ffffffffffffffffffffffffffffffffffffffff16600260008773ffffffffffffffffffffffffffffffffffffffff1673ffffffffffffffffffffffffffffffffffffffff16815260200190815260200160002060010160009054906101000a900473ffffffffffffffffffffffffffffffffffffffff1673ffffffffffffffffffffffffffffffffffffffff161415611f1a576040517f08c379a0000000000000000000000000000000000000000000000000000000008152600401611f1190613270565b60405180910390fd5b600073ffffffffffffffffffffffffffffffffffffffff16600260008673ffffffffffffffffffffffffffffffffffffffff1673ffffffffffffffffffffffffffffffffffffffff16815260200190815260200160002060010160009054906101000a900473ffffffffffffffffffffffffffffffffffffffff1673ffffffffffffffffffffffffffffffffffffffff161415611fec576040517f08c379a0000000000000000000000000000000000000000000000000000000008152600401611fe3906132f0565b60405180910390fd5b6003600084815260200190815260200160002060030160009054906101000a900460ff1661204f576040517f08c379a000000000000000000000000000000000000000000000000000000000815260040161204690613290565b60405180910390fd5b600360008481526020019081526020016000206002015434146120a7576040517f08c379a000000000000000000000000000000000000000000000000000000000815260040161209e906131b0565b60405180910390fd5b836003600085815260200190815260200160002060030160016101000a81548173ffffffffffffffffffffffffffffffffffffffff021916908373ffffffffffffffffffffffffffffffffffffffff16021790555060006003600085815260200190815260200160002060030160006101000a81548160ff021916908315150217905550612135858461241c565b600260008573ffffffffffffffffffffffffffffffffffffffff1673ffffffffffffffffffffffffffffffffffffffff1681526020019081526020016000206002018390806001815401808255809150506001900390600052602060002001600090919091909150558473ffffffffffffffffffffffffffffffffffffffff166108fc349081150290604051600060405180830381858888f193505050501580156121e4573d6000803e3d6000fd5b50828473ffffffffffffffffffffffffffffffffffffffff168673ffffffffffffffffffffffffffffffffffffffff167ff7cffcad6931cf18fda74a4607f3fd0cb400aeae1431c4a9b54b1db30eee738a346040516122439190613352565b60405180910390a460019050949350505050565b600460008373ffffffffffffffffffffffffffffffffffffffff1673ffffffffffffffffffffffffffffffffffffffff16815260200190815260200160002060405180606001604052803373ffffffffffffffffffffffffffffffffffffffff1681526020018473ffffffffffffffffffffffffffffffffffffffff16815260200183815250908060018154018082558091505060019003906000526020600020906003020160009091909190915060008201518160000160006101000a81548173ffffffffffffffffffffffffffffffffffffffff021916908373ffffffffffffffffffffffffffffffffffffffff16021790555060208201518160010160006101000a81548173ffffffffffffffffffffffffffffffffffffffff021916908373ffffffffffffffffffffffffffffffffffffffff16021790555060408201518160020190805190602001906123b0929190612574565b5050508173ffffffffffffffffffffffffffffffffffffffff163373ffffffffffffffffffffffffffffffffffffffff167f767190ce9fbc3cd9637b5d63df7fe59d779f8a36b937363daded58ac71dd4d558360405161241091906130fe565b60405180910390a35050565b6000600260008473ffffffffffffffffffffffffffffffffffffffff1673ffffffffffffffffffffffffffffffffffffffff168152602001908152602001600020600201905060005b81805490508110156125245782828281548110612485576124846136fd565b5b906000526020600020015414156125115781600183805490506124a891906134bc565b815481106124b9576124b86136fd565b5b90600052602060002001548282815481106124d7576124d66136fd565b5b9060005260206000200181905550818054806124f6576124f56136ce565b5b60019003818190600052602060002001600090559055612524565b808061251c906135f9565b915050612465565b50505050565b6040518060a00160405280600080191681526020016060815260200160008152602001600015158152602001600073ffffffffffffffffffffffffffffffffffffffff1681525090565b82805461258090613596565b90600052602060002090601f0160209004810192826125a257600085556125e9565b82601f106125bb57805160ff19168380011785556125e9565b828001600101855582156125e9579182015b828111156125e85782518255916020019190600101906125cd565b5b5090506125f69190612647565b5090565b828054828255906000526020600020908101928215612636579160200282015b8281111561263557825182559160200191906001019061261a565b5b5090506126439190612664565b5090565b5b80821115612660576000816000905550600101612648565b5090565b5b8082111561267d576000816000905550600101612665565b5090565b600061269461268f84613392565b61336d565b9050828152602081018484840111156126b0576126af613760565b5b6126bb848285613554565b509392505050565b6000813590506126d281613a8c565b92915050565b6000813590506126e781613aa3565b92915050565b600082601f8301126127025761270161375b565b5b8135612712848260208601612681565b91505092915050565b60008135905061272a81613aba565b92915050565b6000602082840312156127465761274561376a565b5b6000612754848285016126c3565b91505092915050565b600080600080608085870312156127775761277661376a565b5b6000612785878288016126c3565b9450506020612796878288016126c3565b93505060406127a7878288016126d8565b92505060606127b88782880161271b565b91505092959194509250565b6000806000606084860312156127dd576127dc61376a565b5b60006127eb868287016126c3565b93505060206127fc868287016126d8565b925050604061280d8682870161271b565b9150509250925092565b6000806040838503121561282e5761282d61376a565b5b600061283c858286016126c3565b925050602083013567ffffffffffffffff81111561285d5761285c613765565b5b612869858286016126ed565b9150509250929050565b60008060006060848603121561288c5761288b61376a565b5b600061289a868287016126c3565b935050602084013567ffffffffffffffff8111156128bb576128ba613765565b5b6128c7868287016126ed565b92505060406128d88682870161271b565b9150509250925092565b600080604083850312156128f9576128f861376a565b5b6000612907858286016126c3565b92505060206129188582860161271b565b9150509250929050565b6000602082840312156129385761293761376a565b5b6000612946848285016126d8565b91505092915050565b600080604083850312156129665761296561376a565b5b6000612974858286016126d8565b925050602083013567ffffffffffffffff81111561299557612994613765565b5b6129a1858286016126ed565b9150509250929050565b600080604083850312156129c2576129c161376a565b5b60006129d0858286016126d8565b92505060206129e18582860161271b565b9150509250929050565b60006129f78383612e0b565b905092915050565b6000612a0b8383612e5b565b905092915050565b612a1c81613502565b82525050565b612a2b81613502565b82525050565b612a3a816134f0565b82525050565b612a49816134f0565b82525050565b612a60612a5b826134f0565b613642565b82525050565b6000612a71826133e3565b612a7b818561341e565b935083602082028501612a8d856133c3565b8060005b85811015612ac95784840389528151612aaa85826129eb565b9450612ab583613404565b925060208a01995050600181019050612a91565b50829750879550505050505092915050565b6000612ae6826133ee565b612af0818561342f565b935083602082028501612b02856133d3565b8060005b85811015612b3e5784840389528151612b1f85826129ff565b9450612b2a83613411565b925060208a01995050600181019050612b06565b50829750879550505050505092915050565b612b5981613514565b82525050565b612b6881613514565b82525050565b612b7781613520565b82525050565b612b8681613520565b82525050565b6000612b97826133f9565b612ba18185613440565b9350612bb1818560208601613563565b612bba8161376f565b840191505092915050565b6000612bd0826133f9565b612bda8185613451565b9350612bea818560208601613563565b612bf38161376f565b840191505092915050565b6000612c0b601683613451565b9150612c168261378d565b602082019050919050565b6000612c2e600f83613451565b9150612c39826137b6565b602082019050919050565b6000612c51601883613451565b9150612c5c826137df565b602082019050919050565b6000612c74600f83613451565b9150612c7f82613808565b602082019050919050565b6000612c97602b83613451565b9150612ca282613831565b604082019050919050565b6000612cba600e83613451565b9150612cc582613880565b602082019050919050565b6000612cdd602983613451565b9150612ce8826138a9565b604082019050919050565b6000612d00601483613451565b9150612d0b826138f8565b602082019050919050565b6000612d23601583613451565b9150612d2e82613921565b602082019050919050565b6000612d46601583613451565b9150612d518261394a565b602082019050919050565b6000612d69601783613451565b9150612d7482613973565b602082019050919050565b6000612d8c601783613451565b9150612d978261399c565b602082019050919050565b6000612daf602383613451565b9150612dba826139c5565b604082019050919050565b6000612dd2601483613451565b9150612ddd82613a14565b602082019050919050565b6000612df5602383613451565b9150612e0082613a3d565b604082019050919050565b6000606083016000830151612e236000860182612a31565b506020830151612e366020860182612a31565b5060408301518482036040860152612e4e8282612b8c565b9150508091505092915050565b600060a083016000830151612e736000860182612b6e565b5060208301518482036020860152612e8b8282612b8c565b9150506040830151612ea06040860182612f47565b506060830151612eb36060860182612b50565b506080830151612ec66080860182612a13565b508091505092915050565b600060a083016000830151612ee96000860182612b6e565b5060208301518482036020860152612f018282612b8c565b9150506040830151612f166040860182612f47565b506060830151612f296060860182612b50565b506080830151612f3c6080860182612a13565b508091505092915050565b612f508161354a565b82525050565b612f5f8161354a565b82525050565b612f76612f718261354a565b613666565b82525050565b6000612f888285612a4f565b601482019150612f988284612f65565b6020820191508190509392505050565b6000602082019050612fbd6000830184612a40565b92915050565b6000606082019050612fd86000830186612a40565b612fe56020830185612a40565b8181036040830152612ff78184612bc5565b9050949350505050565b6000602082019050818103600083015261301b8184612a66565b905092915050565b6000602082019050818103600083015261303d8184612adb565b905092915050565b600060208201905061305a6000830184612b5f565b92915050565b60006020820190506130756000830184612b7d565b92915050565b60006040820190506130906000830185612b7d565b61309d6020830184612b5f565b9392505050565b600060a0820190506130b96000830188612b7d565b81810360208301526130cb8187612bc5565b90506130da6040830186612f56565b6130e76060830185612b5f565b6130f46080830184612a22565b9695505050505050565b600060208201905081810360008301526131188184612bc5565b905092915050565b6000604082019050818103600083015261313a8185612bc5565b90506131496020830184612a22565b9392505050565b6000602082019050818103600083015261316981612bfe565b9050919050565b6000602082019050818103600083015261318981612c21565b9050919050565b600060208201905081810360008301526131a981612c44565b9050919050565b600060208201905081810360008301526131c981612c67565b9050919050565b600060208201905081810360008301526131e981612c8a565b9050919050565b6000602082019050818103600083015261320981612cad565b9050919050565b6000602082019050818103600083015261322981612cd0565b9050919050565b6000602082019050818103600083015261324981612cf3565b9050919050565b6000602082019050818103600083015261326981612d16565b9050919050565b6000602082019050818103600083015261328981612d39565b9050919050565b600060208201905081810360008301526132a981612d5c565b9050919050565b600060208201905081810360008301526132c981612d7f565b9050919050565b600060208201905081810360008301526132e981612da2565b9050919050565b6000602082019050818103600083015261330981612dc5565b9050919050565b6000602082019050818103600083015261332981612de8565b9050919050565b6000602082019050818103600083015261334a8184612ed1565b905092915050565b60006020820190506133676000830184612f56565b92915050565b6000613377613388565b905061338382826135c8565b919050565b6000604051905090565b600067ffffffffffffffff8211156133ad576133ac61372c565b5b6133b68261376f565b9050602081019050919050565b6000819050602082019050919050565b6000819050602082019050919050565b600081519050919050565b600081519050919050565b600081519050919050565b6000602082019050919050565b6000602082019050919050565b600082825260208201905092915050565b600082825260208201905092915050565b600082825260208201905092915050565b600082825260208201905092915050565b600061346d8261354a565b91506134788361354a565b9250817fffffffffffffffffffffffffffffffffffffffffffffffffffffffffffffffff04831182151516156134b1576134b0613670565b5b828202905092915050565b60006134c78261354a565b91506134d28361354a565b9250828210156134e5576134e4613670565b5b828203905092915050565b60006134fb8261352a565b9050919050565b600061350d8261352a565b9050919050565b60008115159050919050565b6000819050919050565b600073ffffffffffffffffffffffffffffffffffffffff82169050919050565b6000819050919050565b82818337600083830152505050565b60005b83811015613581578082015181840152602081019050613566565b83811115613590576000848401525b50505050565b600060028204905060018216806135ae57607f821691505b602082108114156135c2576135c161369f565b5b50919050565b6135d18261376f565b810181811067ffffffffffffffff821117156135f0576135ef61372c565b5b80604052505050565b60006136048261354a565b91507fffffffffffffffffffffffffffffffffffffffffffffffffffffffffffffffff82141561363757613636613670565b5b600182019050919050565b600061364d82613654565b9050919050565b600061365f82613780565b9050919050565b6000819050919050565b7f4e487b7100000000000000000000000000000000000000000000000000000000600052601160045260246000fd5b7f4e487b7100000000000000000000000000000000000000000000000000000000600052602260045260246000fd5b7f4e487b7100000000000000000000000000000000000000000000000000000000600052603160045260246000fd5b7f4e487b7100000000000000000000000000000000000000000000000000000000600052603260045260246000fd5b7f4e487b7100000000000000000000000000000000000000000000000000000000600052604160045260246000fd5b600080fd5b600080fd5b600080fd5b600080fd5b6000601f19601f8301169050919050565b60008160601b9050919050565b7f50726f6475637420646f6573206e6f7420657869737400000000000000000000600082015250565b7f496e76616c696420616464726573730000000000000000000000000000000000600082015250565b7f4f776e657220616c726561647920726567697374657265640000000000000000600082015250565b7f496e636f72726563742070726963650000000000000000000000000000000000600082015250565b7f4f6e6c7920746865206f776e65722063616e20736574207468652070726f647560008201527f637420666f722073616c65000000000000000000000000000000000000000000602082015250565b7f4f776e6572207665726966696564000000000000000000000000000000000000600082015250565b7f4f6e6c7920746865206f776e65722063616e206368616e67652074686520646560008201527f736372697074696f6e0000000000000000000000000000000000000000000000602082015250565b7f4f776e6572206e6f742072656769737465726564000000000000000000000000600082015250565b7f496e76616c6964206f776e657220616464726573730000000000000000000000600082015250565b7f53656c6c6572206e6f7420726567697374657265640000000000000000000000600082015250565b7f50726f64756374206973206e6f7420666f722073616c65000000000000000000600082015250565b7f53656c6c6572206973206e6f7420746865206f776e6572000000000000000000600082015250565b7f4f6e6c7920746865206f776e65722063616e207363616e207468652070726f6460008201527f7563740000000000000000000000000000000000000000000000000000000000602082015250565b7f4275796572206e6f742072656769737465726564000000000000000000000000600082015250565b7f4f6e6c7920746865206f776e65722063616e206368616e67652074686520707260008201527f6963650000000000000000000000000000000000000000000000000000000000602082015250565b613a95816134f0565b8114613aa057600080fd5b50565b613aac81613520565b8114613ab757600080fd5b50565b613ac38161354a565b8114613ace57600080fd5b5056fea2646970667358221220df0449450a224cce63ffe6d284284fef2bbad2b7d02ed04a3256d23d57e0e6c464736f6c63430008070033",
  "linkReferences": {},
  "deployedLinkReferences": {}
}