{
  "_format": "hh-sol-artifact-1",
  "contractName": "Transaction",
  "sourceName": "contracts/Transaction.sol",
  "abi": [
    {
      "anonymous": false,
      "inputs": [
        {
          "indexed": true,
          "internalType": "bytes32",
          "name": "productHash",
          "type": "bytes32"
        },
        {
          "indexed": true,
          "internalType": "address",
          "name": "owner",
          "type": "address"
        }
      ],
      "name": "GetOwnerOfProd",
      "type": "event"
    },
    {
      "anonymous": false,
      "inputs": [
        {
          "indexed": true,
          "internalType": "address",
          "name": "sender",
          "type": "address"
        },
        {
          "indexed": true,
          "internalType": "address",
          "name": "reciever",
          "type": "address"
        },
        {
          "indexed": false,
          "internalType": "string",
          "name": "message",
          "type": "string"
        }
      ],
      "name": "NotificationSent",
      "type": "event"
    },
    {
      "anonymous": false,
      "inputs": [
        {
          "indexed": true,
          "internalType": "address",
          "name": "ownerAddress",
          "type": "address"
        },
        {
          "indexed": false,
          "internalType": "string",
          "name": "ownerName",
          "type": "string"
        }
      ],
      "name": "OwnerRegistered",
      "type": "event"
    },
    {
      "anonymous": false,
      "inputs": [
        {
          "indexed": true,
          "internalType": "address",
          "name": "ownerAddress",
          "type": "address"
        },
        {
          "indexed": false,
          "internalType": "bytes32",
          "name": "productHash",
          "type": "bytes32"
        },
        {
          "indexed": false,
          "internalType": "bool",
          "name": "verified",
          "type": "bool"
        },
        {
          "indexed": true,
          "internalType": "uint256",
          "name": "timestamp",
          "type": "uint256"
        }
      ],
      "name": "OwnerVerified",
      "type": "event"
    },
    {
      "anonymous": false,
      "inputs": [
        {
          "indexed": true,
          "internalType": "bytes32",
          "name": "productHash",
          "type": "bytes32"
        },
        {
          "indexed": false,
          "internalType": "string",
          "name": "newDescription",
          "type": "string"
        }
      ],
      "name": "ProductDescriptionChanged",
      "type": "event"
    },
    {
      "anonymous": false,
      "inputs": [
        {
          "indexed": true,
          "internalType": "bytes32",
          "name": "productHash",
          "type": "bytes32"
        },
        {
          "indexed": false,
          "internalType": "bool",
          "name": "forSale",
          "type": "bool"
        }
      ],
      "name": "ProductForSaleSet",
      "type": "event"
    },
    {
      "anonymous": false,
      "inputs": [
        {
          "indexed": true,
          "internalType": "bytes32",
          "name": "productHash",
          "type": "bytes32"
        },
        {
          "indexed": false,
          "internalType": "uint256",
          "name": "newPrice",
          "type": "uint256"
        }
      ],
      "name": "ProductPriceChanged",
      "type": "event"
    },
    {
      "anonymous": false,
      "inputs": [
        {
          "indexed": true,
          "internalType": "bytes32",
          "name": "productHash",
          "type": "bytes32"
        },
        {
          "indexed": false,
          "internalType": "address",
          "name": "ownerAddress",
          "type": "address"
        }
      ],
      "name": "ProductRegistered",
      "type": "event"
    },
    {
      "anonymous": false,
      "inputs": [
        {
          "indexed": true,
          "internalType": "address",
          "name": "seller",
          "type": "address"
        },
        {
          "indexed": true,
          "internalType": "address",
          "name": "buyer",
          "type": "address"
        },
        {
          "indexed": true,
          "internalType": "bytes32",
          "name": "productHash",
          "type": "bytes32"
        },
        {
          "indexed": false,
          "internalType": "uint256",
          "name": "price",
          "type": "uint256"
        }
      ],
      "name": "ProductSold",
      "type": "event"
    },
    {
      "inputs": [
        {
          "internalType": "address",
          "name": "",
          "type": "address"
        }
      ],
      "name": "OwnersList",
      "outputs": [
        {
          "internalType": "string",
          "name": "ownerName",
          "type": "string"
        },
        {
          "internalType": "address payable",
          "name": "ownerAddress",
          "type": "address"
        }
      ],
      "stateMutability": "view",
      "type": "function"
    },
    {
      "inputs": [
        {
          "internalType": "bytes32",
          "name": "",
          "type": "bytes32"
        }
      ],
      "name": "ProductsList",
      "outputs": [
        {
          "internalType": "bytes32",
          "name": "productHash",
          "type": "bytes32"
        },
        {
          "internalType": "string",
          "name": "description",
          "type": "string"
        },
        {
          "internalType": "uint256",
          "name": "price",
          "type": "uint256"
        },
        {
          "internalType": "bool",
          "name": "isForSale",
          "type": "bool"
        },
        {
          "internalType": "address payable",
          "name": "owner",
          "type": "address"
        }
      ],
      "stateMutability": "view",
      "type": "function"
    },
    {
      "inputs": [
        {
          "internalType": "string",
          "name": "addr",
          "type": "string"
        }
      ],
      "name": "SendEther",
      "outputs": [],
      "stateMutability": "payable",
      "type": "function"
    },
    {
      "inputs": [
        {
          "internalType": "string",
          "name": "sellerAddr",
          "type": "string"
        },
        {
          "internalType": "bytes32[]",
          "name": "productHashes",
          "type": "bytes32[]"
        },
        {
          "internalType": "uint256",
          "name": "totalPrice",
          "type": "uint256"
        }
      ],
      "name": "buyManyProducts",
      "outputs": [],
      "stateMutability": "payable",
      "type": "function"
    },
    {
      "inputs": [
        {
          "internalType": "string",
          "name": "sellerAddr",
          "type": "string"
        },
        {
          "internalType": "bytes32",
          "name": "productHash",
          "type": "bytes32"
        }
      ],
      "name": "buyProduct",
      "outputs": [
        {
          "internalType": "bool",
          "name": "",
          "type": "bool"
        }
      ],
      "stateMutability": "payable",
      "type": "function"
    },
    {
      "inputs": [
        {
          "internalType": "string",
          "name": "addressString",
          "type": "string"
        }
      ],
      "name": "convertToAddress",
      "outputs": [
        {
          "internalType": "address",
          "name": "",
          "type": "address"
        }
      ],
      "stateMutability": "pure",
      "type": "function"
    },
    {
      "inputs": [
        {
          "internalType": "string",
          "name": "addr",
          "type": "string"
        },
        {
          "internalType": "uint256",
          "name": "number",
          "type": "uint256"
        }
      ],
      "name": "generateHash",
      "outputs": [
        {
          "internalType": "bytes32",
          "name": "",
          "type": "bytes32"
        }
      ],
      "stateMutability": "pure",
      "type": "function"
    },
    {
      "inputs": [
        {
          "internalType": "string",
          "name": "owner",
          "type": "string"
        }
      ],
      "name": "getAllProductsByOwner",
      "outputs": [
        {
          "components": [
            {
              "internalType": "bytes32",
              "name": "productHash",
              "type": "bytes32"
            },
            {
              "internalType": "string",
              "name": "description",
              "type": "string"
            },
            {
              "internalType": "uint256",
              "name": "price",
              "type": "uint256"
            },
            {
              "internalType": "bool",
              "name": "isForSale",
              "type": "bool"
            },
            {
              "internalType": "address payable",
              "name": "owner",
              "type": "address"
            }
          ],
          "internalType": "struct Transaction.Product[]",
          "name": "",
          "type": "tuple[]"
        }
      ],
      "stateMutability": "view",
      "type": "function"
    },
    {
      "inputs": [],
      "name": "ownerCount",
      "outputs": [
        {
          "internalType": "uint256",
          "name": "",
          "type": "uint256"
        }
      ],
      "stateMutability": "view",
      "type": "function"
    },
    {
      "inputs": [],
      "name": "productCount",
      "outputs": [
        {
          "internalType": "uint256",
          "name": "",
          "type": "uint256"
        }
      ],
      "stateMutability": "view",
      "type": "function"
    },
    {
      "inputs": [
        {
          "internalType": "string",
          "name": "ownerAddress",
          "type": "string"
        },
        {
          "internalType": "string",
          "name": "ownerName",
          "type": "string"
        }
      ],
      "name": "registerOwner",
      "outputs": [
        {
          "internalType": "bool",
          "name": "",
          "type": "bool"
        }
      ],
      "stateMutability": "nonpayable",
      "type": "function"
    },
    {
      "inputs": [
        {
          "internalType": "string",
          "name": "addr",
          "type": "string"
        },
        {
          "internalType": "string",
          "name": "desc",
          "type": "string"
        },
        {
          "internalType": "uint256",
          "name": "price",
          "type": "uint256"
        }
      ],
      "name": "registerProduct",
      "outputs": [
        {
          "internalType": "bool",
          "name": "",
          "type": "bool"
        }
      ],
      "stateMutability": "nonpayable",
      "type": "function"
    },
    {
      "inputs": [
        {
          "internalType": "bytes32",
          "name": "productHash",
          "type": "bytes32"
        }
      ],
      "name": "setProductForSale",
      "outputs": [
        {
          "internalType": "bool",
          "name": "",
          "type": "bool"
        }
      ],
      "stateMutability": "nonpayable",
      "type": "function"
    },
    {
      "inputs": [
        {
          "internalType": "string",
          "name": "addr",
          "type": "string"
        },
        {
          "internalType": "bytes32",
          "name": "productHash",
          "type": "bytes32"
        }
      ],
      "name": "verifyOwner",
      "outputs": [
        {
          "internalType": "bool",
          "name": "",
          "type": "bool"
        }
      ],
      "stateMutability": "view",
      "type": "function"
    }
  ],
  "bytecode": "0x6080604052600436106100dc575f3560e01c8063d49da8041161007e578063dee3c92811610058578063dee3c928146102db578063e0f6ef871461031b578063e7527fe014610345578063ec65dc3414610381576100dc565b8063d49da80414610227578063d562966f14610263578063db8aa9881461029f576100dc565b80637dc9d8eb116100ba5780637dc9d8eb14610162578063a4fde7c61461017e578063c0c4a20f146101ba578063c0e94a9d146101f7576100dc565b80630db02622146100e05780633153a15b1461010a57806374a4ef9c14610146575b5f80fd5b3480156100eb575f80fd5b506100f46103bd565b6040516101019190611c7b565b60405180910390f35b348015610115575f80fd5b50610130600480360381019061012b9190611e0b565b6103c3565b60405161013d9190611ead565b60405180910390f35b610160600480360381019061015b9190611fbd565b6106dd565b005b61017c60048036038101906101779190612045565b610946565b005b348015610189575f80fd5b506101a4600480360381019061019f919061208c565b6109dc565b6040516101b19190611ead565b60405180910390f35b3480156101c5575f80fd5b506101e060048036038101906101db919061215c565b610cc4565b6040516101ee929190612221565b60405180910390f35b610211600480360381019061020c919061224f565b610d89565b60405161021e9190611ead565b60405180910390f35b348015610232575f80fd5b5061024d60048036038101906102489190612045565b611106565b60405161025a919061245b565b60405180910390f35b34801561026e575f80fd5b506102896004803603810190610284919061247b565b611414565b6040516102969190611ead565b60405180910390f35b3480156102aa575f80fd5b506102c560048036038101906102c091906124a6565b61159b565b6040516102d2919061250f565b60405180910390f35b3480156102e6575f80fd5b5061030160048036038101906102fc919061247b565b6115e5565b604051610312959493929190612528565b60405180910390f35b348015610326575f80fd5b5061032f6116c9565b60405161033c9190611c7b565b60405180910390f35b348015610350575f80fd5b5061036b6004803603810190610366919061224f565b6116ce565b6040516103789190611ead565b60405180910390f35b34801561038c575f80fd5b506103a760048036038101906103a29190612045565b61187b565b6040516103b4919061258f565b60405180910390f35b60015481565b5f806103ce8561187b565b90505f73ffffffffffffffffffffffffffffffffffffffff168173ffffffffffffffffffffffffffffffffffffffff160361043e576040517f08c379a0000000000000000000000000000000000000000000000000000000008152600401610435906125f2565b60405180910390fd5b5f73ffffffffffffffffffffffffffffffffffffffff1660025f8373ffffffffffffffffffffffffffffffffffffffff1673ffffffffffffffffffffffffffffffffffffffff1681526020019081526020015f206001015f9054906101000a900473ffffffffffffffffffffffffffffffffffffffff1673ffffffffffffffffffffffffffffffffffffffff160361050b576040517f08c379a00000000000000000000000000000000000000000000000000000000081526004016105029061265a565b60405180910390fd5b5f8081548092919061051c906126a5565b91905055505f815f54604051602001610536929190612751565b6040516020818303038152906040528051906020012090505f6040518060a001604052808381526020018781526020018681526020015f151581526020018473ffffffffffffffffffffffffffffffffffffffff1681525090508060035f8481526020019081526020015f205f820151815f015560208201518160010190816105bf9190612976565b50604082015181600201556060820151816003015f6101000a81548160ff02191690831515021790555060808201518160030160016101000a81548173ffffffffffffffffffffffffffffffffffffffff021916908373ffffffffffffffffffffffffffffffffffffffff16021790555090505060025f8473ffffffffffffffffffffffffffffffffffffffff1673ffffffffffffffffffffffffffffffffffffffff1681526020019081526020015f2060020182908060018154018082558091505060019003905f5260205f20015f9091909190915055817fc9484fe818367891478f62bbffa32d87f515bbcb8e28e2106e62c73335747baa846040516106c7919061258f565b60405180910390a2600193505050509392505050565b5f6106e78461187b565b905081341461072b576040517f08c379a000000000000000000000000000000000000000000000000000000000815260040161072290612a8f565b60405180910390fd5b5f5b83518110156108fb575f84828151811061074a57610749612aad565b5b602002602001015190505f60035f8381526020019081526020015f2090508373ffffffffffffffffffffffffffffffffffffffff168160030160019054906101000a900473ffffffffffffffffffffffffffffffffffffffff1673ffffffffffffffffffffffffffffffffffffffff16146107fa576040517f08c379a00000000000000000000000000000000000000000000000000000000081526004016107f190612b24565b60405180910390fd5b6108048783611aaa565b3360035f8481526020019081526020015f2060030160016101000a81548173ffffffffffffffffffffffffffffffffffffffff021916908373ffffffffffffffffffffffffffffffffffffffff1602179055505f60035f8481526020019081526020015f206003015f6101000a81548160ff02191690831515021790555060025f3373ffffffffffffffffffffffffffffffffffffffff1673ffffffffffffffffffffffffffffffffffffffff1681526020019081526020015f2060020182908060018154018082558091505060019003905f5260205f20015f9091909190915055505080806108f3906126a5565b91505061072d565b508073ffffffffffffffffffffffffffffffffffffffff166108fc3490811502906040515f60405180830381858888f1935050505015801561093f573d5f803e3d5ffd5b5050505050565b5f3411610988576040517f08c379a000000000000000000000000000000000000000000000000000000000815260040161097f90612b8c565b60405180910390fd5b5f6109928261187b565b90508073ffffffffffffffffffffffffffffffffffffffff166108fc3490811502906040515f60405180830381858888f193505050501580156109d7573d5f803e3d5ffd5b505050565b5f806109e78461187b565b90505f73ffffffffffffffffffffffffffffffffffffffff168173ffffffffffffffffffffffffffffffffffffffff1603610a57576040517f08c379a0000000000000000000000000000000000000000000000000000000008152600401610a4e90612bf4565b60405180910390fd5b5f73ffffffffffffffffffffffffffffffffffffffff1660025f8373ffffffffffffffffffffffffffffffffffffffff1673ffffffffffffffffffffffffffffffffffffffff1681526020019081526020015f206001015f9054906101000a900473ffffffffffffffffffffffffffffffffffffffff1673ffffffffffffffffffffffffffffffffffffffff1614610b24576040517f08c379a0000000000000000000000000000000000000000000000000000000008152600401610b1b90612c5c565b60405180910390fd5b60015f815480929190610b36906126a5565b919050555060405180606001604052808481526020018273ffffffffffffffffffffffffffffffffffffffff1681526020015f67ffffffffffffffff811115610b8257610b81611cbd565b5b604051908082528060200260200182016040528015610bb05781602001602082028036833780820191505090505b5081525060025f8373ffffffffffffffffffffffffffffffffffffffff1673ffffffffffffffffffffffffffffffffffffffff1681526020019081526020015f205f820151815f019081610c049190612976565b506020820151816001015f6101000a81548173ffffffffffffffffffffffffffffffffffffffff021916908373ffffffffffffffffffffffffffffffffffffffff1602179055506040820151816002019080519060200190610c67929190611bb7565b509050508073ffffffffffffffffffffffffffffffffffffffff167f5f66e430b448d83d46a65ab17a365f04c0c8f1a66ac20bcc38dfde7f2d67514184604051610cb19190612c7a565b60405180910390a2600191505092915050565b6002602052805f5260405f205f91509050805f018054610ce3906127a9565b80601f0160208091040260200160405190810160405280929190818152602001828054610d0f906127a9565b8015610d5a5780601f10610d3157610100808354040283529160200191610d5a565b820191905f5260205f20905b815481529060010190602001808311610d3d57829003601f168201915b505050505090806001015f9054906101000a900473ffffffffffffffffffffffffffffffffffffffff16905082565b5f80610d948461187b565b90508073ffffffffffffffffffffffffffffffffffffffff1660035f8581526020019081526020015f2060030160019054906101000a900473ffffffffffffffffffffffffffffffffffffffff1673ffffffffffffffffffffffffffffffffffffffff1614610e38576040517f08c379a0000000000000000000000000000000000000000000000000000000008152600401610e2f90612ce4565b60405180910390fd5b5f73ffffffffffffffffffffffffffffffffffffffff1660025f8373ffffffffffffffffffffffffffffffffffffffff1673ffffffffffffffffffffffffffffffffffffffff1681526020019081526020015f206001015f9054906101000a900473ffffffffffffffffffffffffffffffffffffffff1673ffffffffffffffffffffffffffffffffffffffff1603610f05576040517f08c379a0000000000000000000000000000000000000000000000000000000008152600401610efc90612d4c565b60405180910390fd5b60035f8481526020019081526020015f206003015f9054906101000a900460ff16610f65576040517f08c379a0000000000000000000000000000000000000000000000000000000008152600401610f5c90612db4565b60405180910390fd5b610f6f8484611aaa565b3360035f8581526020019081526020015f2060030160016101000a81548173ffffffffffffffffffffffffffffffffffffffff021916908373ffffffffffffffffffffffffffffffffffffffff1602179055505f60035f8581526020019081526020015f206003015f6101000a81548160ff02191690831515021790555060025f3373ffffffffffffffffffffffffffffffffffffffff1673ffffffffffffffffffffffffffffffffffffffff1681526020019081526020015f2060020183908060018154018082558091505060019003905f5260205f20015f90919091909150558073ffffffffffffffffffffffffffffffffffffffff166108fc3490811502906040515f60405180830381858888f19350505050158015611094573d5f803e3d5ffd5b50823373ffffffffffffffffffffffffffffffffffffffff168273ffffffffffffffffffffffffffffffffffffffff167ff7cffcad6931cf18fda74a4607f3fd0cb400aeae1431c4a9b54b1db30eee738a346040516110f39190611c7b565b60405180910390a4600191505092915050565b60605f6111128361187b565b90505f73ffffffffffffffffffffffffffffffffffffffff1660025f8373ffffffffffffffffffffffffffffffffffffffff1673ffffffffffffffffffffffffffffffffffffffff1681526020019081526020015f206001015f9054906101000a900473ffffffffffffffffffffffffffffffffffffffff1673ffffffffffffffffffffffffffffffffffffffff16036111e1576040517f08c379a00000000000000000000000000000000000000000000000000000000081526004016111d89061265a565b60405180910390fd5b5f60025f8373ffffffffffffffffffffffffffffffffffffffff1673ffffffffffffffffffffffffffffffffffffffff1681526020019081526020015f2060020190505f818054905067ffffffffffffffff81111561124357611242611cbd565b5b60405190808252806020026020018201604052801561127c57816020015b611269611c02565b8152602001906001900390816112615790505b5090505f5b82805490508110156114085760035f8483815481106112a3576112a2612aad565b5b905f5260205f20015481526020019081526020015f206040518060a00160405290815f82015481526020016001820180546112dd906127a9565b80601f0160208091040260200160405190810160405280929190818152602001828054611309906127a9565b80156113545780601f1061132b57610100808354040283529160200191611354565b820191905f5260205f20905b81548152906001019060200180831161133757829003601f168201915b5050505050815260200160028201548152602001600382015f9054906101000a900460ff161515151581526020016003820160019054906101000a900473ffffffffffffffffffffffffffffffffffffffff1673ffffffffffffffffffffffffffffffffffffffff1673ffffffffffffffffffffffffffffffffffffffff16815250508282815181106113ea576113e9612aad565b5b60200260200101819052508080611400906126a5565b915050611281565b50809350505050919050565b5f3373ffffffffffffffffffffffffffffffffffffffff1660035f8481526020019081526020015f2060030160019054906101000a900473ffffffffffffffffffffffffffffffffffffffff1673ffffffffffffffffffffffffffffffffffffffff16146114b7576040517f08c379a00000000000000000000000000000000000000000000000000000000081526004016114ae90612e42565b60405180910390fd5b5f801b60035f8481526020019081526020015f205f01540361150e576040517f08c379a000000000000000000000000000000000000000000000000000000000815260040161150590612eaa565b60405180910390fd5b600160035f8481526020019081526020015f206003015f6101000a81548160ff021916908315150217905550817fd98f6f58fc8adebda4634cbb1a786370cbd3632ec5638326be4b17cb6070726d60035f8581526020019081526020015f206003015f9054906101000a900460ff1660405161158a9190611ead565b60405180910390a260019050919050565b5f806115a68461187b565b90508083846115b59190612ec8565b6040516020016115c6929190612751565b6040516020818303038152906040528051906020012091505092915050565b6003602052805f5260405f205f91509050805f01549080600101805461160a906127a9565b80601f0160208091040260200160405190810160405280929190818152602001828054611636906127a9565b80156116815780601f1061165857610100808354040283529160200191611681565b820191905f5260205f20905b81548152906001019060200180831161166457829003601f168201915b505050505090806002015490806003015f9054906101000a900460ff16908060030160019054906101000a900473ffffffffffffffffffffffffffffffffffffffff16905085565b5f5481565b5f806116d98461187b565b90505f73ffffffffffffffffffffffffffffffffffffffff1660025f8373ffffffffffffffffffffffffffffffffffffffff1673ffffffffffffffffffffffffffffffffffffffff1681526020019081526020015f206001015f9054906101000a900473ffffffffffffffffffffffffffffffffffffffff1673ffffffffffffffffffffffffffffffffffffffff16036117a8576040517f08c379a000000000000000000000000000000000000000000000000000000000815260040161179f9061265a565b60405180910390fd5b5f801b60035f8581526020019081526020015f205f0154036117ff576040517f08c379a00000000000000000000000000000000000000000000000000000000081526004016117f690612eaa565b60405180910390fd5b8073ffffffffffffffffffffffffffffffffffffffff1660035f8581526020019081526020015f2060030160019054906101000a900473ffffffffffffffffffffffffffffffffffffffff1673ffffffffffffffffffffffffffffffffffffffff1603611870576001915050611875565b5f9150505b92915050565b5f80829050602a8151146118c4576040517f08c379a00000000000000000000000000000000000000000000000000000000081526004016118bb90612f53565b60405180910390fd5b5f80600290505b602a811015611a9f575f8382815181106118e8576118e7612aad565b5b602001015160f81c60f81b60f81c60ff16905060308173ffffffffffffffffffffffffffffffffffffffff1610158015611939575060398173ffffffffffffffffffffffffffffffffffffffff1611155b1561196c5760108361194b9190612f71565b925060308161195a9190612fb2565b836119659190612ff9565b9250611a8b565b60418173ffffffffffffffffffffffffffffffffffffffff16101580156119aa575060468173ffffffffffffffffffffffffffffffffffffffff1611155b156119dd576010836119bc9190612f71565b92506037816119cb9190612fb2565b836119d69190612ff9565b9250611a8a565b60618173ffffffffffffffffffffffffffffffffffffffff1610158015611a1b575060668173ffffffffffffffffffffffffffffffffffffffff1611155b15611a4e57601083611a2d9190612f71565b9250605781611a3c9190612fb2565b83611a479190612ff9565b9250611a89565b6040517f08c379a0000000000000000000000000000000000000000000000000000000008152600401611a809061308a565b60405180910390fd5b5b5b508080611a97906126a5565b9150506118cb565b508092505050919050565b5f611ab48361187b565b90505f60025f8373ffffffffffffffffffffffffffffffffffffffff1673ffffffffffffffffffffffffffffffffffffffff1681526020019081526020015f2060020190505f5b8180549050811015611bb05783828281548110611b1b57611b1a612aad565b5b905f5260205f20015403611b9d578160018380549050611b3b91906130a8565b81548110611b4c57611b4b612aad565b5b905f5260205f200154828281548110611b6857611b67612aad565b5b905f5260205f20018190555081805480611b8557611b846130db565b5b600190038181905f5260205f20015f90559055611bb0565b8080611ba8906126a5565b915050611afb565b5050505050565b828054828255905f5260205f20908101928215611bf1579160200282015b82811115611bf0578251825591602001919060010190611bd5565b5b509050611bfe9190611c48565b5090565b6040518060a001604052805f8019168152602001606081526020015f81526020015f151581526020015f73ffffffffffffffffffffffffffffffffffffffff1681525090565b5b80821115611c5f575f815f905550600101611c49565b5090565b5f819050919050565b611c7581611c63565b82525050565b5f602082019050611c8e5f830184611c6c565b92915050565b5f604051905090565b5f80fd5b5f80fd5b5f80fd5b5f80fd5b5f601f19601f8301169050919050565b7f4e487b71000000000000000000000000000000000000000000000000000000005f52604160045260245ffd5b611cf382611cad565b810181811067ffffffffffffffff82111715611d1257611d11611cbd565b5b80604052505050565b5f611d24611c94565b9050611d308282611cea565b919050565b5f67ffffffffffffffff821115611d4f57611d4e611cbd565b5b611d5882611cad565b9050602081019050919050565b828183375f83830152505050565b5f611d85611d8084611d35565b611d1b565b905082815260208101848484011115611da157611da0611ca9565b5b611dac848285611d65565b509392505050565b5f82601f830112611dc857611dc7611ca5565b5b8135611dd8848260208601611d73565b91505092915050565b611dea81611c63565b8114611df4575f80fd5b50565b5f81359050611e0581611de1565b92915050565b5f805f60608486031215611e2257611e21611c9d565b5b5f84013567ffffffffffffffff811115611e3f57611e3e611ca1565b5b611e4b86828701611db4565b935050602084013567ffffffffffffffff811115611e6c57611e6b611ca1565b5b611e7886828701611db4565b9250506040611e8986828701611df7565b9150509250925092565b5f8115159050919050565b611ea781611e93565b82525050565b5f602082019050611ec05f830184611e9e565b92915050565b5f67ffffffffffffffff821115611ee057611edf611cbd565b5b602082029050602081019050919050565b5f80fd5b5f819050919050565b611f0781611ef5565b8114611f11575f80fd5b50565b5f81359050611f2281611efe565b92915050565b5f611f3a611f3584611ec6565b611d1b565b90508083825260208201905060208402830185811115611f5d57611f5c611ef1565b5b835b81811015611f865780611f728882611f14565b845260208401935050602081019050611f5f565b5050509392505050565b5f82601f830112611fa457611fa3611ca5565b5b8135611fb4848260208601611f28565b91505092915050565b5f805f60608486031215611fd457611fd3611c9d565b5b5f84013567ffffffffffffffff811115611ff157611ff0611ca1565b5b611ffd86828701611db4565b935050602084013567ffffffffffffffff81111561201e5761201d611ca1565b5b61202a86828701611f90565b925050604061203b86828701611df7565b9150509250925092565b5f6020828403121561205a57612059611c9d565b5b5f82013567ffffffffffffffff81111561207757612076611ca1565b5b61208384828501611db4565b91505092915050565b5f80604083850312156120a2576120a1611c9d565b5b5f83013567ffffffffffffffff8111156120bf576120be611ca1565b5b6120cb85828601611db4565b925050602083013567ffffffffffffffff8111156120ec576120eb611ca1565b5b6120f885828601611db4565b9150509250929050565b5f73ffffffffffffffffffffffffffffffffffffffff82169050919050565b5f61212b82612102565b9050919050565b61213b81612121565b8114612145575f80fd5b50565b5f8135905061215681612132565b92915050565b5f6020828403121561217157612170611c9d565b5b5f61217e84828501612148565b91505092915050565b5f81519050919050565b5f82825260208201905092915050565b5f5b838110156121be5780820151818401526020810190506121a3565b5f8484015250505050565b5f6121d382612187565b6121dd8185612191565b93506121ed8185602086016121a1565b6121f681611cad565b840191505092915050565b5f61220b82612102565b9050919050565b61221b81612201565b82525050565b5f6040820190508181035f83015261223981856121c9565b90506122486020830184612212565b9392505050565b5f806040838503121561226557612264611c9d565b5b5f83013567ffffffffffffffff81111561228257612281611ca1565b5b61228e85828601611db4565b925050602061229f85828601611f14565b9150509250929050565b5f81519050919050565b5f82825260208201905092915050565b5f819050602082019050919050565b6122db81611ef5565b82525050565b5f82825260208201905092915050565b5f6122fb82612187565b61230581856122e1565b93506123158185602086016121a1565b61231e81611cad565b840191505092915050565b61233281611c63565b82525050565b61234181611e93565b82525050565b61235081612201565b82525050565b5f60a083015f83015161236b5f8601826122d2565b506020830151848203602086015261238382826122f1565b91505060408301516123986040860182612329565b5060608301516123ab6060860182612338565b5060808301516123be6080860182612347565b508091505092915050565b5f6123d48383612356565b905092915050565b5f602082019050919050565b5f6123f2826122a9565b6123fc81856122b3565b93508360208202850161240e856122c3565b805f5b85811015612449578484038952815161242a85826123c9565b9450612435836123dc565b925060208a01995050600181019050612411565b50829750879550505050505092915050565b5f6020820190508181035f83015261247381846123e8565b905092915050565b5f602082840312156124905761248f611c9d565b5b5f61249d84828501611f14565b91505092915050565b5f80604083850312156124bc576124bb611c9d565b5b5f83013567ffffffffffffffff8111156124d9576124d8611ca1565b5b6124e585828601611db4565b92505060206124f685828601611df7565b9150509250929050565b61250981611ef5565b82525050565b5f6020820190506125225f830184612500565b92915050565b5f60a08201905061253b5f830188612500565b818103602083015261254d81876121c9565b905061255c6040830186611c6c565b6125696060830185611e9e565b6125766080830184612212565b9695505050505050565b61258981612121565b82525050565b5f6020820190506125a25f830184612580565b92915050565b7f496e76616c6964206f776e6572206164647265737300000000000000000000005f82015250565b5f6125dc601583612191565b91506125e7826125a8565b602082019050919050565b5f6020820190508181035f830152612609816125d0565b9050919050565b7f4f776e6572206e6f7420726567697374657265640000000000000000000000005f82015250565b5f612644601483612191565b915061264f82612610565b602082019050919050565b5f6020820190508181035f83015261267181612638565b9050919050565b7f4e487b71000000000000000000000000000000000000000000000000000000005f52601160045260245ffd5b5f6126af82611c63565b91507fffffffffffffffffffffffffffffffffffffffffffffffffffffffffffffffff82036126e1576126e0612678565b5b600182019050919050565b5f8160601b9050919050565b5f612702826126ec565b9050919050565b5f612713826126f8565b9050919050565b61272b61272682612121565b612709565b82525050565b5f819050919050565b61274b61274682611c63565b612731565b82525050565b5f61275c828561271a565b60148201915061276c828461273a565b6020820191508190509392505050565b7f4e487b71000000000000000000000000000000000000000000000000000000005f52602260045260245ffd5b5f60028204905060018216806127c057607f821691505b6020821081036127d3576127d261277c565b5b50919050565b5f819050815f5260205f209050919050565b5f6020601f8301049050919050565b5f82821b905092915050565b5f600883026128357fffffffffffffffffffffffffffffffffffffffffffffffffffffffffffffffff826127fa565b61283f86836127fa565b95508019841693508086168417925050509392505050565b5f819050919050565b5f61287a61287561287084611c63565b612857565b611c63565b9050919050565b5f819050919050565b61289383612860565b6128a761289f82612881565b848454612806565b825550505050565b5f90565b6128bb6128af565b6128c681848461288a565b505050565b5b818110156128e9576128de5f826128b3565b6001810190506128cc565b5050565b601f82111561292e576128ff816127d9565b612908846127eb565b81016020851015612917578190505b61292b612923856127eb565b8301826128cb565b50505b505050565b5f82821c905092915050565b5f61294e5f1984600802612933565b1980831691505092915050565b5f612966838361293f565b9150826002028217905092915050565b61297f82612187565b67ffffffffffffffff81111561299857612997611cbd565b5b6129a282546127a9565b6129ad8282856128ed565b5f60209050601f8311600181146129de575f84156129cc578287015190505b6129d6858261295b565b865550612a3d565b601f1984166129ec866127d9565b5f5b82811015612a13578489015182556001820191506020850194506020810190506129ee565b86831015612a305784890151612a2c601f89168261293f565b8355505b6001600288020188555050505b505050505050565b7f696e636f7272656374207061796d656e7420616d6f756e7400000000000000005f82015250565b5f612a79601883612191565b9150612a8482612a45565b602082019050919050565b5f6020820190508181035f830152612aa681612a6d565b9050919050565b7f4e487b71000000000000000000000000000000000000000000000000000000005f52603260045260245ffd5b7f73656c6c657220646f6573206e6f74206f776e207468652070726f64756374005f82015250565b5f612b0e601f83612191565b9150612b1982612ada565b602082019050919050565b5f6020820190508181035f830152612b3b81612b02565b9050919050565b7f416d6f756e742073686f756c642062652067726561746572207468616e2030005f82015250565b5f612b76601f83612191565b9150612b8182612b42565b602082019050919050565b5f6020820190508181035f830152612ba381612b6a565b9050919050565b7f496e76616c6964206164647265737300000000000000000000000000000000005f82015250565b5f612bde600f83612191565b9150612be982612baa565b602082019050919050565b5f6020820190508181035f830152612c0b81612bd2565b9050919050565b7f4f776e657220616c7265616479207265676973746572656400000000000000005f82015250565b5f612c46601883612191565b9150612c5182612c12565b602082019050919050565b5f6020820190508181035f830152612c7381612c3a565b9050919050565b5f6020820190508181035f830152612c9281846121c9565b905092915050565b7f53656c6c6572206973206e6f7420746865206f776e65720000000000000000005f82015250565b5f612cce601783612191565b9150612cd982612c9a565b602082019050919050565b5f6020820190508181035f830152612cfb81612cc2565b9050919050565b7f53656c6c6572206e6f74207265676973746572656400000000000000000000005f82015250565b5f612d36601583612191565b9150612d4182612d02565b602082019050919050565b5f6020820190508181035f830152612d6381612d2a565b9050919050565b7f50726f64756374206973206e6f7420666f722073616c650000000000000000005f82015250565b5f612d9e601783612191565b9150612da982612d6a565b602082019050919050565b5f6020820190508181035f830152612dcb81612d92565b9050919050565b7f4f6e6c7920746865206f776e65722063616e20736574207468652070726f64755f8201527f637420666f722073616c65000000000000000000000000000000000000000000602082015250565b5f612e2c602b83612191565b9150612e3782612dd2565b604082019050919050565b5f6020820190508181035f830152612e5981612e20565b9050919050565b7f50726f6475637420646f6573206e6f74206578697374000000000000000000005f82015250565b5f612e94601683612191565b9150612e9f82612e60565b602082019050919050565b5f6020820190508181035f830152612ec181612e88565b9050919050565b5f612ed282611c63565b9150612edd83611c63565b9250828202612eeb81611c63565b91508282048414831517612f0257612f01612678565b5b5092915050565b7f496e76616c69642061646472657373206c656e677468000000000000000000005f82015250565b5f612f3d601683612191565b9150612f4882612f09565b602082019050919050565b5f6020820190508181035f830152612f6a81612f31565b9050919050565b5f612f7b82612102565b9150612f8683612102565b9250828202612f9481612102565b91508282048414831517612fab57612faa612678565b5b5092915050565b5f612fbc82612102565b9150612fc783612102565b9250828203905073ffffffffffffffffffffffffffffffffffffffff811115612ff357612ff2612678565b5b92915050565b5f61300382612102565b915061300e83612102565b9250828201905073ffffffffffffffffffffffffffffffffffffffff81111561303a57613039612678565b5b92915050565b7f496e76616c69642063686172616374657220696e2061646472657373000000005f82015250565b5f613074601c83612191565b915061307f82613040565b602082019050919050565b5f6020820190508181035f8301526130a181613068565b9050919050565b5f6130b282611c63565b91506130bd83611c63565b92508282039050818111156130d5576130d4612678565b5b92915050565b7f4e487b71000000000000000000000000000000000000000000000000000000005f52603160045260245ffdfea26469706673582212201e07cc8cb5fca34c85a8085a48ef6eaf882176d16d852136676118351af90c9664736f6c63430008140033",
  "deployedBytecode": "",
  "linkReferences": {},
  "deployedLinkReferences": {}
}