{
  "_format": "hh-sol-artifact-1",
  "contractName": "Transaction",
  "sourceName": "contracts/Transaction.sol",
  "abi": [
    {
      "anonymous": false,
      "inputs": [
        {
          "indexed": false,
          "internalType": "address",
          "name": "owner",
          "type": "address"
        }
      ],
      "name": "OwnerRegistered",
      "type": "event"
    },
    {
      "anonymous": false,
      "inputs": [
        {
          "indexed": false,
          "internalType": "bytes32",
          "name": "productHash",
          "type": "bytes32"
        },
        {
          "indexed": false,
          "internalType": "bool",
          "name": "forSale",
          "type": "bool"
        }
      ],
      "name": "ProductForSaleSet",
      "type": "event"
    },
    {
      "anonymous": false,
      "inputs": [
        {
          "indexed": false,
          "internalType": "bytes32",
          "name": "productHash",
          "type": "bytes32"
        },
        {
          "indexed": false,
          "internalType": "address",
          "name": "owner",
          "type": "address"
        }
      ],
      "name": "ProductRegistered",
      "type": "event"
    },
    {
      "anonymous": false,
      "inputs": [
        {
          "indexed": false,
          "internalType": "address",
          "name": "buyer",
          "type": "address"
        },
        {
          "indexed": false,
          "internalType": "bytes32",
          "name": "productHash",
          "type": "bytes32"
        },
        {
          "indexed": false,
          "internalType": "uint256",
          "name": "price",
          "type": "uint256"
        }
      ],
      "name": "ProductSold",
      "type": "event"
    },
    {
      "inputs": [
        {
          "internalType": "address",
          "name": "",
          "type": "address"
        }
      ],
      "name": "OwnersList",
      "outputs": [
        {
          "internalType": "address",
          "name": "ownerAddress",
          "type": "address"
        }
      ],
      "stateMutability": "view",
      "type": "function"
    },
    {
      "inputs": [
        {
          "internalType": "bytes32",
          "name": "",
          "type": "bytes32"
        }
      ],
      "name": "ProductsList",
      "outputs": [
        {
          "internalType": "bytes32",
          "name": "productHash",
          "type": "bytes32"
        },
        {
          "internalType": "string",
          "name": "description",
          "type": "string"
        },
        {
          "internalType": "uint256",
          "name": "price",
          "type": "uint256"
        },
        {
          "internalType": "bool",
          "name": "isForSale",
          "type": "bool"
        },
        {
          "internalType": "address",
          "name": "owner",
          "type": "address"
        }
      ],
      "stateMutability": "view",
      "type": "function"
    },
    {
      "inputs": [
        {
          "internalType": "address",
          "name": "seller",
          "type": "address"
        },
        {
          "internalType": "address",
          "name": "buyer",
          "type": "address"
        },
        {
          "internalType": "bytes32",
          "name": "productHash",
          "type": "bytes32"
        }
      ],
      "name": "buyProduct",
      "outputs": [
        {
          "internalType": "bool",
          "name": "",
          "type": "bool"
        }
      ],
      "stateMutability": "payable",
      "type": "function"
    },
    {
      "inputs": [
        {
          "internalType": "address",
          "name": "ownerAddress",
          "type": "address"
        },
        {
          "internalType": "uint256",
          "name": "number",
          "type": "uint256"
        }
      ],
      "name": "generateHash",
      "outputs": [
        {
          "internalType": "bytes32",
          "name": "",
          "type": "bytes32"
        }
      ],
      "stateMutability": "pure",
      "type": "function"
    },
    {
      "inputs": [
        {
          "internalType": "address",
          "name": "ownerAddress",
          "type": "address"
        }
      ],
      "name": "getAllProductsByOwner",
      "outputs": [
        {
          "components": [
            {
              "internalType": "bytes32",
              "name": "productHash",
              "type": "bytes32"
            },
            {
              "internalType": "string",
              "name": "description",
              "type": "string"
            },
            {
              "internalType": "uint256",
              "name": "price",
              "type": "uint256"
            },
            {
              "internalType": "bool",
              "name": "isForSale",
              "type": "bool"
            },
            {
              "internalType": "address",
              "name": "owner",
              "type": "address"
            }
          ],
          "internalType": "struct Transaction.Product[]",
          "name": "",
          "type": "tuple[]"
        }
      ],
      "stateMutability": "view",
      "type": "function"
    },
    {
      "inputs": [],
      "name": "ownerCount",
      "outputs": [
        {
          "internalType": "uint256",
          "name": "",
          "type": "uint256"
        }
      ],
      "stateMutability": "view",
      "type": "function"
    },
    {
      "inputs": [],
      "name": "productCount",
      "outputs": [
        {
          "internalType": "uint256",
          "name": "",
          "type": "uint256"
        }
      ],
      "stateMutability": "view",
      "type": "function"
    },
    {
      "inputs": [
        {
          "internalType": "address",
          "name": "ownerAddress",
          "type": "address"
        }
      ],
      "name": "registerOwner",
      "outputs": [
        {
          "internalType": "bool",
          "name": "",
          "type": "bool"
        }
      ],
      "stateMutability": "nonpayable",
      "type": "function"
    },
    {
      "inputs": [
        {
          "internalType": "address",
          "name": "ownerAddress",
          "type": "address"
        },
        {
          "internalType": "string",
          "name": "desc",
          "type": "string"
        },
        {
          "internalType": "uint256",
          "name": "price",
          "type": "uint256"
        }
      ],
      "name": "registerProduct",
      "outputs": [
        {
          "internalType": "bool",
          "name": "",
          "type": "bool"
        }
      ],
      "stateMutability": "nonpayable",
      "type": "function"
    },
    {
      "inputs": [
        {
          "internalType": "bytes32",
          "name": "productHash",
          "type": "bytes32"
        },
        {
          "internalType": "bool",
          "name": "forSale",
          "type": "bool"
        }
      ],
      "name": "setProductForSale",
      "outputs": [
        {
          "internalType": "bool",
          "name": "",
          "type": "bool"
        }
      ],
      "stateMutability": "nonpayable",
      "type": "function"
    }
  ],
  "bytecode": "0x608060405260008055600060015534801561001957600080fd5b50612301806100296000396000f3fe6080604052600436106100915760003560e01c80639623136a116100595780639623136a146101b5578063c0c4a20f146101f2578063dee3c9281461022f578063e0f6ef8714610270578063f954a4c81461029b57610091565b80630db02622146100965780631220c6ed146100c157806322966e6d146100fe57806355442bae1461013b57806360750a4f14610178575b600080fd5b3480156100a257600080fd5b506100ab6102cb565b6040516100b89190611ce8565b60405180910390f35b3480156100cd57600080fd5b506100e860048036038101906100e39190611558565b6102d1565b6040516100f59190611ae6565b60405180910390f35b34801561010a57600080fd5b50610125600480360381019061012091906116b4565b610585565b6040516101329190611ae6565b60405180910390f35b34801561014757600080fd5b50610162600480360381019061015d9190611558565b6106f8565b60405161016f9190611ac4565b60405180910390f35b34801561018457600080fd5b5061019f600480360381019061019a9190611647565b610a0b565b6040516101ac9190611b01565b60405180910390f35b3480156101c157600080fd5b506101dc60048036038101906101d791906115d8565b610a49565b6040516101e99190611ae6565b60405180910390f35b3480156101fe57600080fd5b5061021960048036038101906102149190611558565b610d74565b6040516102269190611a72565b60405180910390f35b34801561023b57600080fd5b5061025660048036038101906102519190611687565b610db2565b604051610267959493929190611b6e565b60405180910390f35b34801561027c57600080fd5b50610285610e9d565b6040516102929190611ce8565b60405180910390f35b6102b560048036038101906102b09190611585565b610ea3565b6040516102c29190611ae6565b60405180910390f35b60015481565b60008073ffffffffffffffffffffffffffffffffffffffff168273ffffffffffffffffffffffffffffffffffffffff161415610342576040517f08c379a000000000000000000000000000000000000000000000000000000000815260040161033990611be8565b60405180910390fd5b600073ffffffffffffffffffffffffffffffffffffffff16600260008473ffffffffffffffffffffffffffffffffffffffff1673ffffffffffffffffffffffffffffffffffffffff16815260200190815260200160002060000160009054906101000a900473ffffffffffffffffffffffffffffffffffffffff1673ffffffffffffffffffffffffffffffffffffffff1614610413576040517f08c379a000000000000000000000000000000000000000000000000000000000815260040161040a90611c08565b60405180910390fd5b6001600081548092919061042690611f44565b919050555060405180604001604052808373ffffffffffffffffffffffffffffffffffffffff168152602001600067ffffffffffffffff81111561046d5761046c612077565b5b60405190808252806020026020018201604052801561049b5781602001602082028036833780820191505090505b50815250600260008473ffffffffffffffffffffffffffffffffffffffff1673ffffffffffffffffffffffffffffffffffffffff16815260200190815260200160002060008201518160000160006101000a81548173ffffffffffffffffffffffffffffffffffffffff021916908373ffffffffffffffffffffffffffffffffffffffff160217905550602082015181600101908051906020019061054192919061133d565b509050507fc86877ade012ddbf21935d8659bf56f8635a21861dfc191a5e417a57fdca8c2a826040516105749190611a72565b60405180910390a160019050919050565b60003373ffffffffffffffffffffffffffffffffffffffff166003600085815260200190815260200160002060030160019054906101000a900473ffffffffffffffffffffffffffffffffffffffff1673ffffffffffffffffffffffffffffffffffffffff161461062b576040517f08c379a000000000000000000000000000000000000000000000000000000000815260040161062290611c28565b60405180910390fd5b6000801b60036000858152602001908152602001600020600001541415610687576040517f08c379a000000000000000000000000000000000000000000000000000000000815260040161067e90611bc8565b60405180910390fd5b816003600085815260200190815260200160002060030160006101000a81548160ff0219169083151502179055507fd98f6f58fc8adebda4634cbb1a786370cbd3632ec5638326be4b17cb6070726d83836040516106e6929190611b45565b60405180910390a16001905092915050565b6060600073ffffffffffffffffffffffffffffffffffffffff16600260008473ffffffffffffffffffffffffffffffffffffffff1673ffffffffffffffffffffffffffffffffffffffff16815260200190815260200160002060000160009054906101000a900473ffffffffffffffffffffffffffffffffffffffff1673ffffffffffffffffffffffffffffffffffffffff1614156107cc576040517f08c379a00000000000000000000000000000000000000000000000000000000081526004016107c390611c48565b60405180910390fd5b6000600260008473ffffffffffffffffffffffffffffffffffffffff1673ffffffffffffffffffffffffffffffffffffffff16815260200190815260200160002060010190506000818054905067ffffffffffffffff81111561083257610831612077565b5b60405190808252806020026020018201604052801561086b57816020015b61085861138a565b8152602001906001900390816108505790505b50905060005b8280549050811015610a00576003600084838154811061089457610893612048565b5b906000526020600020015481526020019081526020016000206040518060a0016040529081600082015481526020016001820180546108d290611ee1565b80601f01602080910402602001604051908101604052809291908181526020018280546108fe90611ee1565b801561094b5780601f106109205761010080835404028352916020019161094b565b820191906000526020600020905b81548152906001019060200180831161092e57829003601f168201915b50505050508152602001600282015481526020016003820160009054906101000a900460ff161515151581526020016003820160019054906101000a900473ffffffffffffffffffffffffffffffffffffffff1673ffffffffffffffffffffffffffffffffffffffff1673ffffffffffffffffffffffffffffffffffffffff16815250508282815181106109e2576109e1612048565b5b602002602001018190525080806109f890611f44565b915050610871565b508092505050919050565b6000828283610a1a9190611dbf565b604051602001610a2b929190611a46565b60405160208183030381529060405280519060200120905092915050565b60008073ffffffffffffffffffffffffffffffffffffffff168473ffffffffffffffffffffffffffffffffffffffff161415610aba576040517f08c379a0000000000000000000000000000000000000000000000000000000008152600401610ab190611c68565b60405180910390fd5b600073ffffffffffffffffffffffffffffffffffffffff16600260008673ffffffffffffffffffffffffffffffffffffffff1673ffffffffffffffffffffffffffffffffffffffff16815260200190815260200160002060000160009054906101000a900473ffffffffffffffffffffffffffffffffffffffff1673ffffffffffffffffffffffffffffffffffffffff161415610b8c576040517f08c379a0000000000000000000000000000000000000000000000000000000008152600401610b8390611c48565b60405180910390fd5b600080815480929190610b9e90611f44565b9190505550600084600054604051602001610bba929190611a46565b60405160208183030381529060405280519060200120905060006040518060a001604052808381526020018681526020018581526020016000151581526020018773ffffffffffffffffffffffffffffffffffffffff1681525090508060036000848152602001908152602001600020600082015181600001556020820151816001019080519060200190610c509291906113d4565b506040820151816002015560608201518160030160006101000a81548160ff02191690831515021790555060808201518160030160016101000a81548173ffffffffffffffffffffffffffffffffffffffff021916908373ffffffffffffffffffffffffffffffffffffffff160217905550905050600260008773ffffffffffffffffffffffffffffffffffffffff1673ffffffffffffffffffffffffffffffffffffffff1681526020019081526020016000206001018290806001815401808255809150506001900390600052602060002001600090919091909150557fc9484fe818367891478f62bbffa32d87f515bbcb8e28e2106e62c73335747baa8287604051610d5f929190611b1c565b60405180910390a16001925050509392505050565b60026020528060005260406000206000915090508060000160009054906101000a900473ffffffffffffffffffffffffffffffffffffffff16905081565b6003602052806000526040600020600091509050806000015490806001018054610ddb90611ee1565b80601f0160208091040260200160405190810160405280929190818152602001828054610e0790611ee1565b8015610e545780601f10610e2957610100808354040283529160200191610e54565b820191906000526020600020905b815481529060010190602001808311610e3757829003601f168201915b5050505050908060020154908060030160009054906101000a900460ff16908060030160019054906101000a900473ffffffffffffffffffffffffffffffffffffffff16905085565b60005481565b60008073ffffffffffffffffffffffffffffffffffffffff16600260008673ffffffffffffffffffffffffffffffffffffffff1673ffffffffffffffffffffffffffffffffffffffff16815260200190815260200160002060000160009054906101000a900473ffffffffffffffffffffffffffffffffffffffff1673ffffffffffffffffffffffffffffffffffffffff161415610f76576040517f08c379a0000000000000000000000000000000000000000000000000000000008152600401610f6d90611c88565b60405180910390fd5b600073ffffffffffffffffffffffffffffffffffffffff16600260008573ffffffffffffffffffffffffffffffffffffffff1673ffffffffffffffffffffffffffffffffffffffff16815260200190815260200160002060000160009054906101000a900473ffffffffffffffffffffffffffffffffffffffff1673ffffffffffffffffffffffffffffffffffffffff161415611048576040517f08c379a000000000000000000000000000000000000000000000000000000000815260040161103f90611cc8565b60405180910390fd5b6003600083815260200190815260200160002060030160009054906101000a900460ff166110ab576040517f08c379a00000000000000000000000000000000000000000000000000000000081526004016110a290611ca8565b60405180910390fd5b826003600084815260200190815260200160002060030160016101000a81548173ffffffffffffffffffffffffffffffffffffffff021916908373ffffffffffffffffffffffffffffffffffffffff16021790555060006003600084815260200190815260200160002060030160006101000a81548160ff021916908315150217905550611139848361122f565b600260008473ffffffffffffffffffffffffffffffffffffffff1673ffffffffffffffffffffffffffffffffffffffff1681526020019081526020016000206001018290806001815401808255809150506001900390600052602060002001600090919091909150558373ffffffffffffffffffffffffffffffffffffffff166108fc349081150290604051600060405180830381858888f193505050501580156111e8573d6000803e3d6000fd5b507f01fe9a01393f3a62ab3fc4eee5aab44dc17f133c129b2b9a7e591ba8c91caf3483833460405161121c93929190611a8d565b60405180910390a1600190509392505050565b6000600260008473ffffffffffffffffffffffffffffffffffffffff1673ffffffffffffffffffffffffffffffffffffffff168152602001908152602001600020600101905060005b8180549050811015611337578282828154811061129857611297612048565b5b906000526020600020015414156113245781600183805490506112bb9190611e19565b815481106112cc576112cb612048565b5b90600052602060002001548282815481106112ea576112e9612048565b5b90600052602060002001819055508180548061130957611308612019565b5b60019003818190600052602060002001600090559055611337565b808061132f90611f44565b915050611278565b50505050565b828054828255906000526020600020908101928215611379579160200282015b8281111561137857825182559160200191906001019061135d565b5b509050611386919061145a565b5090565b6040518060a00160405280600080191681526020016060815260200160008152602001600015158152602001600073ffffffffffffffffffffffffffffffffffffffff1681525090565b8280546113e090611ee1565b90600052602060002090601f0160209004810192826114025760008555611449565b82601f1061141b57805160ff1916838001178555611449565b82800160010185558215611449579182015b8281111561144857825182559160200191906001019061142d565b5b5090506114569190611477565b5090565b5b8082111561147357600081600090555060010161145b565b5090565b5b80821115611490576000816000905550600101611478565b5090565b60006114a76114a284611d28565b611d03565b9050828152602081018484840111156114c3576114c26120ab565b5b6114ce848285611e9f565b509392505050565b6000813590506114e58161226f565b92915050565b6000813590506114fa81612286565b92915050565b60008135905061150f8161229d565b92915050565b600082601f83011261152a576115296120a6565b5b813561153a848260208601611494565b91505092915050565b600081359050611552816122b4565b92915050565b60006020828403121561156e5761156d6120b5565b5b600061157c848285016114d6565b91505092915050565b60008060006060848603121561159e5761159d6120b5565b5b60006115ac868287016114d6565b93505060206115bd868287016114d6565b92505060406115ce86828701611500565b9150509250925092565b6000806000606084860312156115f1576115f06120b5565b5b60006115ff868287016114d6565b935050602084013567ffffffffffffffff8111156116205761161f6120b0565b5b61162c86828701611515565b925050604061163d86828701611543565b9150509250925092565b6000806040838503121561165e5761165d6120b5565b5b600061166c858286016114d6565b925050602061167d85828601611543565b9150509250929050565b60006020828403121561169d5761169c6120b5565b5b60006116ab84828501611500565b91505092915050565b600080604083850312156116cb576116ca6120b5565b5b60006116d985828601611500565b92505060206116ea858286016114eb565b9150509250929050565b6000611700838361199b565b905092915050565b61171181611e4d565b82525050565b61172081611e4d565b82525050565b61173761173282611e4d565b611f8d565b82525050565b600061174882611d69565b6117528185611d8c565b93508360208202850161176485611d59565b8060005b858110156117a0578484038952815161178185826116f4565b945061178c83611d7f565b925060208a01995050600181019050611768565b50829750879550505050505092915050565b6117bb81611e5f565b82525050565b6117ca81611e5f565b82525050565b6117d981611e6b565b82525050565b6117e881611e6b565b82525050565b60006117f982611d74565b6118038185611d9d565b9350611813818560208601611eae565b61181c816120ba565b840191505092915050565b600061183282611d74565b61183c8185611dae565b935061184c818560208601611eae565b611855816120ba565b840191505092915050565b600061186d601683611dae565b9150611878826120d8565b602082019050919050565b6000611890600f83611dae565b915061189b82612101565b602082019050919050565b60006118b3601883611dae565b91506118be8261212a565b602082019050919050565b60006118d6602b83611dae565b91506118e182612153565b604082019050919050565b60006118f9601483611dae565b9150611904826121a2565b602082019050919050565b600061191c601583611dae565b9150611927826121cb565b602082019050919050565b600061193f601583611dae565b915061194a826121f4565b602082019050919050565b6000611962601783611dae565b915061196d8261221d565b602082019050919050565b6000611985601483611dae565b915061199082612246565b602082019050919050565b600060a0830160008301516119b360008601826117d0565b50602083015184820360208601526119cb82826117ee565b91505060408301516119e06040860182611a11565b5060608301516119f360608601826117b2565b506080830151611a066080860182611708565b508091505092915050565b611a1a81611e95565b82525050565b611a2981611e95565b82525050565b611a40611a3b82611e95565b611fb1565b82525050565b6000611a528285611726565b601482019150611a628284611a2f565b6020820191508190509392505050565b6000602082019050611a876000830184611717565b92915050565b6000606082019050611aa26000830186611717565b611aaf60208301856117df565b611abc6040830184611a20565b949350505050565b60006020820190508181036000830152611ade818461173d565b905092915050565b6000602082019050611afb60008301846117c1565b92915050565b6000602082019050611b1660008301846117df565b92915050565b6000604082019050611b3160008301856117df565b611b3e6020830184611717565b9392505050565b6000604082019050611b5a60008301856117df565b611b6760208301846117c1565b9392505050565b600060a082019050611b8360008301886117df565b8181036020830152611b958187611827565b9050611ba46040830186611a20565b611bb160608301856117c1565b611bbe6080830184611717565b9695505050505050565b60006020820190508181036000830152611be181611860565b9050919050565b60006020820190508181036000830152611c0181611883565b9050919050565b60006020820190508181036000830152611c21816118a6565b9050919050565b60006020820190508181036000830152611c41816118c9565b9050919050565b60006020820190508181036000830152611c61816118ec565b9050919050565b60006020820190508181036000830152611c818161190f565b9050919050565b60006020820190508181036000830152611ca181611932565b9050919050565b60006020820190508181036000830152611cc181611955565b9050919050565b60006020820190508181036000830152611ce181611978565b9050919050565b6000602082019050611cfd6000830184611a20565b92915050565b6000611d0d611d1e565b9050611d198282611f13565b919050565b6000604051905090565b600067ffffffffffffffff821115611d4357611d42612077565b5b611d4c826120ba565b9050602081019050919050565b6000819050602082019050919050565b600081519050919050565b600081519050919050565b6000602082019050919050565b600082825260208201905092915050565b600082825260208201905092915050565b600082825260208201905092915050565b6000611dca82611e95565b9150611dd583611e95565b9250817fffffffffffffffffffffffffffffffffffffffffffffffffffffffffffffffff0483118215151615611e0e57611e0d611fbb565b5b828202905092915050565b6000611e2482611e95565b9150611e2f83611e95565b925082821015611e4257611e41611fbb565b5b828203905092915050565b6000611e5882611e75565b9050919050565b60008115159050919050565b6000819050919050565b600073ffffffffffffffffffffffffffffffffffffffff82169050919050565b6000819050919050565b82818337600083830152505050565b60005b83811015611ecc578082015181840152602081019050611eb1565b83811115611edb576000848401525b50505050565b60006002820490506001821680611ef957607f821691505b60208210811415611f0d57611f0c611fea565b5b50919050565b611f1c826120ba565b810181811067ffffffffffffffff82111715611f3b57611f3a612077565b5b80604052505050565b6000611f4f82611e95565b91507fffffffffffffffffffffffffffffffffffffffffffffffffffffffffffffffff821415611f8257611f81611fbb565b5b600182019050919050565b6000611f9882611f9f565b9050919050565b6000611faa826120cb565b9050919050565b6000819050919050565b7f4e487b7100000000000000000000000000000000000000000000000000000000600052601160045260246000fd5b7f4e487b7100000000000000000000000000000000000000000000000000000000600052602260045260246000fd5b7f4e487b7100000000000000000000000000000000000000000000000000000000600052603160045260246000fd5b7f4e487b7100000000000000000000000000000000000000000000000000000000600052603260045260246000fd5b7f4e487b7100000000000000000000000000000000000000000000000000000000600052604160045260246000fd5b600080fd5b600080fd5b600080fd5b600080fd5b6000601f19601f8301169050919050565b60008160601b9050919050565b7f50726f6475637420646f6573206e6f7420657869737400000000000000000000600082015250565b7f496e76616c696420616464726573730000000000000000000000000000000000600082015250565b7f4f776e657220616c726561647920726567697374657265640000000000000000600082015250565b7f4f6e6c7920746865206f776e65722063616e20736574207468652070726f647560008201527f637420666f722073616c65000000000000000000000000000000000000000000602082015250565b7f4f776e6572206e6f742072656769737465726564000000000000000000000000600082015250565b7f496e76616c6964206f776e657220616464726573730000000000000000000000600082015250565b7f53656c6c6572206e6f7420726567697374657265640000000000000000000000600082015250565b7f50726f64756374206973206e6f7420666f722073616c65000000000000000000600082015250565b7f4275796572206e6f742072656769737465726564000000000000000000000000600082015250565b61227881611e4d565b811461228357600080fd5b50565b61228f81611e5f565b811461229a57600080fd5b50565b6122a681611e6b565b81146122b157600080fd5b50565b6122bd81611e95565b81146122c857600080fd5b5056fea2646970667358221220ee4f97393f5101e1a8c779485a497feb710464da12d9e29b555b12bff9f37acd64736f6c63430008070033",
  "linkReferences": {},
  "deployedLinkReferences": {}
}