{
  "_format": "hh-sol-artifact-1",
  "contractName": "RskStarterLogs",
  "sourceName": "contracts/RskStarterLogs.sol",
  "abi": [
    {
      "anonymous": false,
      "inputs": [
        {
          "indexed": true,
          "internalType": "address",
          "name": "source",
          "type": "address"
        },
        {
          "indexed": true,
          "internalType": "bool",
          "name": "isLoud",
          "type": "bool"
        },
        {
          "indexed": false,
          "internalType": "string",
          "name": "text",
          "type": "string"
        }
      ],
      "name": "RskStarterLog",
      "type": "event"
    },
    {
      "inputs": [],
      "name": "count",
      "outputs": [
        {
          "internalType": "uint256",
          "name": "",
          "type": "uint256"
        }
      ],
      "stateMutability": "view",
      "type": "function"
    },
    {
      "inputs": [
        {
          "internalType": "bool",
          "name": "isLoud",
          "type": "bool"
        },
        {
          "internalType": "string",
          "name": "text",
          "type": "string"
        }
      ],
      "name": "doTheThing",
      "outputs": [],
      "stateMutability": "nonpayable",
      "type": "function"
    }
  ],
  "bytecode": "0x608060405234801561001057600080fd5b50610470806100206000396000f3fe608060405234801561001057600080fd5b50600436106100365760003560e01c806306661abd1461003b578063cfb9643b14610059575b600080fd5b610043610075565b6040516100509190610234565b60405180910390f35b610073600480360381019061006e919061016e565b61007b565b005b60005481565b600160008082825461008d91906102c1565b925050819055508115153373ffffffffffffffffffffffffffffffffffffffff167f8cf17ecc057d4ef76609fe19892c5bba3e4a24112588f3ac6453531efced80ab836040516100dd9190610212565b60405180910390a35050565b60006100fc6100f784610274565b61024f565b90508281526020810184848401111561011857610117610403565b5b61012384828561032d565b509392505050565b60008135905061013a81610423565b92915050565b600082601f830112610155576101546103fe565b5b81356101658482602086016100e9565b91505092915050565b600080604083850312156101855761018461040d565b5b60006101938582860161012b565b925050602083013567ffffffffffffffff8111156101b4576101b3610408565b5b6101c085828601610140565b9150509250929050565b60006101d5826102a5565b6101df81856102b0565b93506101ef81856020860161033c565b6101f881610412565b840191505092915050565b61020c81610323565b82525050565b6000602082019050818103600083015261022c81846101ca565b905092915050565b60006020820190506102496000830184610203565b92915050565b600061025961026a565b9050610265828261036f565b919050565b6000604051905090565b600067ffffffffffffffff82111561028f5761028e6103cf565b5b61029882610412565b9050602081019050919050565b600081519050919050565b600082825260208201905092915050565b60006102cc82610323565b91506102d783610323565b9250827fffffffffffffffffffffffffffffffffffffffffffffffffffffffffffffffff0382111561030c5761030b6103a0565b5b828201905092915050565b60008115159050919050565b6000819050919050565b82818337600083830152505050565b60005b8381101561035a57808201518184015260208101905061033f565b83811115610369576000848401525b50505050565b61037882610412565b810181811067ffffffffffffffff82111715610397576103966103cf565b5b80604052505050565b7f4e487b7100000000000000000000000000000000000000000000000000000000600052601160045260246000fd5b7f4e487b7100000000000000000000000000000000000000000000000000000000600052604160045260246000fd5b600080fd5b600080fd5b600080fd5b600080fd5b6000601f19601f8301169050919050565b61042c81610317565b811461043757600080fd5b5056fea2646970667358221220683f9ead87993d331cc67a92cabe12af48c35e31eaf352fdf614cf00acdb4add64736f6c63430008070033",
  "linkReferences": {},
  "deployedLinkReferences": {}
}