{
  "_format": "hh-sol-artifact-1",
  "contractName": "RskStarterLogs",
  "sourceName": "contracts/RskStarterLogs.sol",
  "abi": [
    {
      "anonymous": false,
      "inputs": [
        {
          "indexed": true,
          "internalType": "address",
          "name": "source",
          "type": "address"
        },
        {
          "indexed": true,
          "internalType": "bool",
          "name": "isLoud",
          "type": "bool"
        },
        {
          "indexed": false,
          "internalType": "string",
          "name": "text",
          "type": "string"
        }
      ],
      "name": "RskStarterLog",
      "type": "event"
    },
    {
      "inputs": [],
      "name": "count",
      "outputs": [
        {
          "internalType": "uint256",
          "name": "",
          "type": "uint256"
        }
      ],
      "stateMutability": "view",
      "type": "function"
    },
    {
      "inputs": [
        {
          "internalType": "bool",
          "name": "isLoud",
          "type": "bool"
        },
        {
          "internalType": "string",
          "name": "text",
          "type": "string"
        }
      ],
      "name": "doTheThing",
      "outputs": [],
      "stateMutability": "nonpayable",
      "type": "function"
    }
  ],
  "bytecode": "0x608060405234801561000f575f80fd5b506104218061001d5f395ff3fe608060405234801561000f575f80fd5b5060043610610034575f3560e01c806306661abd14610038578063cfb9643b14610056575b5f80fd5b610040610072565b60405161004d91906100fc565b60405180910390f35b610070600480360381019061006b9190610297565b610077565b005b5f5481565b60015f80828254610088919061031e565b925050819055508115153373ffffffffffffffffffffffffffffffffffffffff167f8cf17ecc057d4ef76609fe19892c5bba3e4a24112588f3ac6453531efced80ab836040516100d891906103cb565b60405180910390a35050565b5f819050919050565b6100f6816100e4565b82525050565b5f60208201905061010f5f8301846100ed565b92915050565b5f604051905090565b5f80fd5b5f80fd5b5f8115159050919050565b61013a81610126565b8114610144575f80fd5b50565b5f8135905061015581610131565b92915050565b5f80fd5b5f80fd5b5f601f19601f8301169050919050565b7f4e487b71000000000000000000000000000000000000000000000000000000005f52604160045260245ffd5b6101a982610163565b810181811067ffffffffffffffff821117156101c8576101c7610173565b5b80604052505050565b5f6101da610115565b90506101e682826101a0565b919050565b5f67ffffffffffffffff82111561020557610204610173565b5b61020e82610163565b9050602081019050919050565b828183375f83830152505050565b5f61023b610236846101eb565b6101d1565b9050828152602081018484840111156102575761025661015f565b5b61026284828561021b565b509392505050565b5f82601f83011261027e5761027d61015b565b5b813561028e848260208601610229565b91505092915050565b5f80604083850312156102ad576102ac61011e565b5b5f6102ba85828601610147565b925050602083013567ffffffffffffffff8111156102db576102da610122565b5b6102e78582860161026a565b9150509250929050565b7f4e487b71000000000000000000000000000000000000000000000000000000005f52601160045260245ffd5b5f610328826100e4565b9150610333836100e4565b925082820190508082111561034b5761034a6102f1565b5b92915050565b5f81519050919050565b5f82825260208201905092915050565b5f5b8381101561038857808201518184015260208101905061036d565b5f8484015250505050565b5f61039d82610351565b6103a7818561035b565b93506103b781856020860161036b565b6103c081610163565b840191505092915050565b5f6020820190508181035f8301526103e38184610393565b90509291505056fea2646970667358221220b8850793fe35aed16ac67956a7b77feb285b6a9c63b3f959c8906541e8d05fed64736f6c63430008140033",
  "linkReferences": {},
  "deployedLinkReferences": {}
}