{
  "_format": "hh-sol-artifact-1",
  "contractName": "Notification",
  "sourceName": "contracts/Notification.sol",
  "abi": [
    {
      "anonymous": false,
      "inputs": [
        {
          "indexed": true,
          "internalType": "address",
          "name": "from",
          "type": "address"
        },
        {
          "indexed": true,
          "internalType": "address",
          "name": "to",
          "type": "address"
        },
        {
          "indexed": false,
          "internalType": "string",
          "name": "message",
          "type": "string"
        }
      ],
      "name": "NotificationSent",
      "type": "event"
    },
    {
      "inputs": [
        {
          "internalType": "address",
          "name": "user",
          "type": "address"
        }
      ],
      "name": "getNotifications",
      "outputs": [
        {
          "components": [
            {
              "internalType": "address",
              "name": "from",
              "type": "address"
            },
            {
              "internalType": "address",
              "name": "to",
              "type": "address"
            },
            {
              "internalType": "string",
              "name": "message",
              "type": "string"
            }
          ],
          "internalType": "struct Notification.NotificationInfo[]",
          "name": "",
          "type": "tuple[]"
        }
      ],
      "stateMutability": "view",
      "type": "function"
    },
    {
      "inputs": [
        {
          "internalType": "address",
          "name": "",
          "type": "address"
        },
        {
          "internalType": "uint256",
          "name": "",
          "type": "uint256"
        }
      ],
      "name": "notifications",
      "outputs": [
        {
          "internalType": "address",
          "name": "from",
          "type": "address"
        },
        {
          "internalType": "address",
          "name": "to",
          "type": "address"
        },
        {
          "internalType": "string",
          "name": "message",
          "type": "string"
        }
      ],
      "stateMutability": "view",
      "type": "function"
    },
    {
      "inputs": [
        {
          "internalType": "address",
          "name": "to",
          "type": "address"
        },
        {
          "internalType": "string",
          "name": "message",
          "type": "string"
        }
      ],
      "name": "sendNotification",
      "outputs": [],
      "stateMutability": "nonpayable",
      "type": "function"
    }
  ],
  "bytecode": "0x608060405234801561001057600080fd5b50610be7806100206000396000f3fe608060405234801561001057600080fd5b50600436106100415760003560e01c806349f66a2c1461004657806365d0bddd146100625780638a8f63b014610094575b600080fd5b610060600480360381019061005b91906106dc565b6100c4565b005b61007c60048036038101906100779190610738565b610288565b60405161008b939291906108e1565b60405180910390f35b6100ae60048036038101906100a991906106af565b610397565b6040516100bb919061091f565b60405180910390f35b6000808373ffffffffffffffffffffffffffffffffffffffff1673ffffffffffffffffffffffffffffffffffffffff16815260200190815260200160002060405180606001604052803373ffffffffffffffffffffffffffffffffffffffff1681526020018473ffffffffffffffffffffffffffffffffffffffff16815260200183815250908060018154018082558091505060019003906000526020600020906003020160009091909190915060008201518160000160006101000a81548173ffffffffffffffffffffffffffffffffffffffff021916908373ffffffffffffffffffffffffffffffffffffffff16021790555060208201518160010160006101000a81548173ffffffffffffffffffffffffffffffffffffffff021916908373ffffffffffffffffffffffffffffffffffffffff160217905550604082015181600201908051906020019061021c929190610572565b5050508173ffffffffffffffffffffffffffffffffffffffff163373ffffffffffffffffffffffffffffffffffffffff167f767190ce9fbc3cd9637b5d63df7fe59d779f8a36b937363daded58ac71dd4d558360405161027c9190610941565b60405180910390a35050565b600060205281600052604060002081815481106102a457600080fd5b9060005260206000209060030201600091509150508060000160009054906101000a900473ffffffffffffffffffffffffffffffffffffffff16908060010160009054906101000a900473ffffffffffffffffffffffffffffffffffffffff169080600201805461031490610a9d565b80601f016020809104026020016040519081016040528092919081815260200182805461034090610a9d565b801561038d5780601f106103625761010080835404028352916020019161038d565b820191906000526020600020905b81548152906001019060200180831161037057829003601f168201915b5050505050905083565b60606000808373ffffffffffffffffffffffffffffffffffffffff1673ffffffffffffffffffffffffffffffffffffffff168152602001908152602001600020805480602002602001604051908101604052809291908181526020016000905b8282101561056757838290600052602060002090600302016040518060600160405290816000820160009054906101000a900473ffffffffffffffffffffffffffffffffffffffff1673ffffffffffffffffffffffffffffffffffffffff1673ffffffffffffffffffffffffffffffffffffffff1681526020016001820160009054906101000a900473ffffffffffffffffffffffffffffffffffffffff1673ffffffffffffffffffffffffffffffffffffffff1673ffffffffffffffffffffffffffffffffffffffff1681526020016002820180546104d690610a9d565b80601f016020809104026020016040519081016040528092919081815260200182805461050290610a9d565b801561054f5780601f106105245761010080835404028352916020019161054f565b820191906000526020600020905b81548152906001019060200180831161053257829003601f168201915b505050505081525050815260200190600101906103f7565b505050509050919050565b82805461057e90610a9d565b90600052602060002090601f0160209004810192826105a057600085556105e7565b82601f106105b957805160ff19168380011785556105e7565b828001600101855582156105e7579182015b828111156105e65782518255916020019190600101906105cb565b5b5090506105f491906105f8565b5090565b5b808211156106115760008160009055506001016105f9565b5090565b600061062861062384610988565b610963565b90508281526020810184848401111561064457610643610b63565b5b61064f848285610a5b565b509392505050565b60008135905061066681610b83565b92915050565b600082601f83011261068157610680610b5e565b5b8135610691848260208601610615565b91505092915050565b6000813590506106a981610b9a565b92915050565b6000602082840312156106c5576106c4610b6d565b5b60006106d384828501610657565b91505092915050565b600080604083850312156106f3576106f2610b6d565b5b600061070185828601610657565b925050602083013567ffffffffffffffff81111561072257610721610b68565b5b61072e8582860161066c565b9150509250929050565b6000806040838503121561074f5761074e610b6d565b5b600061075d85828601610657565b925050602061076e8582860161069a565b9150509250929050565b60006107848383610891565b905092915050565b61079581610a1f565b82525050565b6107a481610a1f565b82525050565b60006107b5826109c9565b6107bf81856109ec565b9350836020820285016107d1856109b9565b8060005b8581101561080d57848403895281516107ee8582610778565b94506107f9836109df565b925060208a019950506001810190506107d5565b50829750879550505050505092915050565b600061082a826109d4565b61083481856109fd565b9350610844818560208601610a6a565b61084d81610b72565b840191505092915050565b6000610863826109d4565b61086d8185610a0e565b935061087d818560208601610a6a565b61088681610b72565b840191505092915050565b60006060830160008301516108a9600086018261078c565b5060208301516108bc602086018261078c565b50604083015184820360408601526108d4828261081f565b9150508091505092915050565b60006060820190506108f6600083018661079b565b610903602083018561079b565b81810360408301526109158184610858565b9050949350505050565b6000602082019050818103600083015261093981846107aa565b905092915050565b6000602082019050818103600083015261095b8184610858565b905092915050565b600061096d61097e565b90506109798282610acf565b919050565b6000604051905090565b600067ffffffffffffffff8211156109a3576109a2610b2f565b5b6109ac82610b72565b9050602081019050919050565b6000819050602082019050919050565b600081519050919050565b600081519050919050565b6000602082019050919050565b600082825260208201905092915050565b600082825260208201905092915050565b600082825260208201905092915050565b6000610a2a82610a31565b9050919050565b600073ffffffffffffffffffffffffffffffffffffffff82169050919050565b6000819050919050565b82818337600083830152505050565b60005b83811015610a88578082015181840152602081019050610a6d565b83811115610a97576000848401525b50505050565b60006002820490506001821680610ab557607f821691505b60208210811415610ac957610ac8610b00565b5b50919050565b610ad882610b72565b810181811067ffffffffffffffff82111715610af757610af6610b2f565b5b80604052505050565b7f4e487b7100000000000000000000000000000000000000000000000000000000600052602260045260246000fd5b7f4e487b7100000000000000000000000000000000000000000000000000000000600052604160045260246000fd5b600080fd5b600080fd5b600080fd5b600080fd5b6000601f19601f8301169050919050565b610b8c81610a1f565b8114610b9757600080fd5b50565b610ba381610a51565b8114610bae57600080fd5b5056fea2646970667358221220be004116eb3089439d96d70e65cb0ae454044f0d86974ac0cb5c7ff9bad8abfa64736f6c63430008070033",
  "linkReferences": {},
  "deployedLinkReferences": {}
}