{
  "_format": "hh-sol-artifact-1",
  "contractName": "Notification",
  "sourceName": "contracts/Notification.sol",
  "abi": [
    {
      "anonymous": false,
      "inputs": [
        {
          "indexed": true,
          "internalType": "address",
          "name": "sender",
          "type": "address"
        },
        {
          "indexed": true,
          "internalType": "address",
          "name": "reciever",
          "type": "address"
        },
        {
          "indexed": false,
          "internalType": "string",
          "name": "message",
          "type": "string"
        }
      ],
      "name": "NotificationSent",
      "type": "event"
    },
    {
      "inputs": [
        {
          "internalType": "address",
          "name": "user",
          "type": "address"
        }
      ],
      "name": "getNotifications",
      "outputs": [
        {
          "components": [
            {
              "internalType": "address",
              "name": "sender",
              "type": "address"
            },
            {
              "internalType": "address",
              "name": "reciever",
              "type": "address"
            },
            {
              "internalType": "string",
              "name": "message",
              "type": "string"
            }
          ],
          "internalType": "struct Notification.NotificationInfo[]",
          "name": "",
          "type": "tuple[]"
        }
      ],
      "stateMutability": "view",
      "type": "function"
    },
    {
      "inputs": [
        {
          "internalType": "address",
          "name": "reciever",
          "type": "address"
        },
        {
          "internalType": "string",
          "name": "message",
          "type": "string"
        }
      ],
      "name": "sendNotification",
      "outputs": [],
      "stateMutability": "nonpayable",
      "type": "function"
    }
  ],
  "bytecode": "0x608060405234801561001057600080fd5b50610ad8806100206000396000f3fe608060405234801561001057600080fd5b50600436106100365760003560e01c806349f66a2c1461003b5780638a8f63b014610057575b600080fd5b610055600480360381019061005091906105e9565b610087565b005b610071600480360381019061006c91906105bc565b61024b565b60405161007e91906107c2565b60405180910390f35b6000808373ffffffffffffffffffffffffffffffffffffffff1673ffffffffffffffffffffffffffffffffffffffff16815260200190815260200160002060405180606001604052803373ffffffffffffffffffffffffffffffffffffffff1681526020018473ffffffffffffffffffffffffffffffffffffffff16815260200183815250908060018154018082558091505060019003906000526020600020906003020160009091909190915060008201518160000160006101000a81548173ffffffffffffffffffffffffffffffffffffffff021916908373ffffffffffffffffffffffffffffffffffffffff16021790555060208201518160010160006101000a81548173ffffffffffffffffffffffffffffffffffffffff021916908373ffffffffffffffffffffffffffffffffffffffff16021790555060408201518160020190805190602001906101df929190610494565b5050508173ffffffffffffffffffffffffffffffffffffffff163373ffffffffffffffffffffffffffffffffffffffff167f767190ce9fbc3cd9637b5d63df7fe59d779f8a36b937363daded58ac71dd4d558360405161023f91906107e4565b60405180910390a35050565b60608173ffffffffffffffffffffffffffffffffffffffff163373ffffffffffffffffffffffffffffffffffffffff16146102bb576040517f08c379a00000000000000000000000000000000000000000000000000000000081526004016102b290610806565b60405180910390fd5b6000808373ffffffffffffffffffffffffffffffffffffffff1673ffffffffffffffffffffffffffffffffffffffff168152602001908152602001600020805480602002602001604051908101604052809291908181526020016000905b8282101561048957838290600052602060002090600302016040518060600160405290816000820160009054906101000a900473ffffffffffffffffffffffffffffffffffffffff1673ffffffffffffffffffffffffffffffffffffffff1673ffffffffffffffffffffffffffffffffffffffff1681526020016001820160009054906101000a900473ffffffffffffffffffffffffffffffffffffffff1673ffffffffffffffffffffffffffffffffffffffff1673ffffffffffffffffffffffffffffffffffffffff1681526020016002820180546103f890610956565b80601f016020809104026020016040519081016040528092919081815260200182805461042490610956565b80156104715780601f1061044657610100808354040283529160200191610471565b820191906000526020600020905b81548152906001019060200180831161045457829003601f168201915b50505050508152505081526020019060010190610319565b505050509050919050565b8280546104a090610956565b90600052602060002090601f0160209004810192826104c25760008555610509565b82601f106104db57805160ff1916838001178555610509565b82800160010185558215610509579182015b828111156105085782518255916020019190600101906104ed565b5b509050610516919061051a565b5090565b5b8082111561053357600081600090555060010161051b565b5090565b600061054a6105458461084b565b610826565b90508281526020810184848401111561056657610565610a1c565b5b610571848285610914565b509392505050565b60008135905061058881610a8b565b92915050565b600082601f8301126105a3576105a2610a17565b5b81356105b3848260208601610537565b91505092915050565b6000602082840312156105d2576105d1610a26565b5b60006105e084828501610579565b91505092915050565b60008060408385031215610600576105ff610a26565b5b600061060e85828601610579565b925050602083013567ffffffffffffffff81111561062f5761062e610a21565b5b61063b8582860161058e565b9150509250929050565b60006106518383610772565b905092915050565b610662816108e2565b82525050565b60006106738261088c565b61067d81856108af565b93508360208202850161068f8561087c565b8060005b858110156106cb57848403895281516106ac8582610645565b94506106b7836108a2565b925060208a01995050600181019050610693565b50829750879550505050505092915050565b60006106e882610897565b6106f281856108c0565b9350610702818560208601610923565b61070b81610a2b565b840191505092915050565b600061072182610897565b61072b81856108d1565b935061073b818560208601610923565b61074481610a2b565b840191505092915050565b600061075c6025836108d1565b915061076782610a3c565b604082019050919050565b600060608301600083015161078a6000860182610659565b50602083015161079d6020860182610659565b50604083015184820360408601526107b582826106dd565b9150508091505092915050565b600060208201905081810360008301526107dc8184610668565b905092915050565b600060208201905081810360008301526107fe8184610716565b905092915050565b6000602082019050818103600083015261081f8161074f565b9050919050565b6000610830610841565b905061083c8282610988565b919050565b6000604051905090565b600067ffffffffffffffff821115610866576108656109e8565b5b61086f82610a2b565b9050602081019050919050565b6000819050602082019050919050565b600081519050919050565b600081519050919050565b6000602082019050919050565b600082825260208201905092915050565b600082825260208201905092915050565b600082825260208201905092915050565b60006108ed826108f4565b9050919050565b600073ffffffffffffffffffffffffffffffffffffffff82169050919050565b82818337600083830152505050565b60005b83811015610941578082015181840152602081019050610926565b83811115610950576000848401525b50505050565b6000600282049050600182168061096e57607f821691505b60208210811415610982576109816109b9565b5b50919050565b61099182610a2b565b810181811067ffffffffffffffff821117156109b0576109af6109e8565b5b80604052505050565b7f4e487b7100000000000000000000000000000000000000000000000000000000600052602260045260246000fd5b7f4e487b7100000000000000000000000000000000000000000000000000000000600052604160045260246000fd5b600080fd5b600080fd5b600080fd5b600080fd5b6000601f19601f8301169050919050565b7f6f6e6c79206120757365722063616e2067657420686973206e6f74696669636160008201527f74696f6e73000000000000000000000000000000000000000000000000000000602082015250565b610a94816108e2565b8114610a9f57600080fd5b5056fea264697066735822122011913a6205343b00bb18fca1aa2eb73005509a2177aab4863f2e1d296fcccb4f64736f6c63430008070033",
  "linkReferences": {},
  "deployedLinkReferences": {}
}