{
  "_format": "hh-sol-artifact-1",
  "contractName": "Notification",
  "sourceName": "contracts/Notification.sol",
  "abi": [
    {
      "anonymous": false,
      "inputs": [
        {
          "indexed": true,
          "internalType": "address",
          "name": "sender",
          "type": "address"
        },
        {
          "indexed": true,
          "internalType": "address",
          "name": "reciever",
          "type": "address"
        },
        {
          "indexed": false,
          "internalType": "string",
          "name": "message",
          "type": "string"
        }
      ],
      "name": "NotificationSent",
      "type": "event"
    },
    {
      "inputs": [
        {
          "internalType": "address",
          "name": "user",
          "type": "address"
        }
      ],
      "name": "getNotifications",
      "outputs": [
        {
          "components": [
            {
              "internalType": "address",
              "name": "sender",
              "type": "address"
            },
            {
              "internalType": "address",
              "name": "reciever",
              "type": "address"
            },
            {
              "internalType": "string",
              "name": "message",
              "type": "string"
            }
          ],
          "internalType": "struct Notification.NotificationInfo[]",
          "name": "",
          "type": "tuple[]"
        }
      ],
      "stateMutability": "view",
      "type": "function"
    },
    {
      "inputs": [
        {
          "internalType": "address",
          "name": "reciever",
          "type": "address"
        },
        {
          "internalType": "string",
          "name": "message",
          "type": "string"
        }
      ],
      "name": "sendNotification",
      "outputs": [],
      "stateMutability": "nonpayable",
      "type": "function"
    }
  ],
  "bytecode": "0x608060405234801561000f575f80fd5b50610c528061001d5f395ff3fe608060405234801561000f575f80fd5b5060043610610034575f3560e01c806349f66a2c146100385780638a8f63b014610054575b5f80fd5b610052600480360381019061004d919061061e565b610084565b005b61006e60048036038101906100699190610678565b610238565b60405161007b9190610834565b60405180910390f35b5f808373ffffffffffffffffffffffffffffffffffffffff1673ffffffffffffffffffffffffffffffffffffffff1681526020019081526020015f2060405180606001604052803373ffffffffffffffffffffffffffffffffffffffff1681526020018473ffffffffffffffffffffffffffffffffffffffff16815260200183815250908060018154018082558091505060019003905f5260205f2090600302015f909190919091505f820151815f015f6101000a81548173ffffffffffffffffffffffffffffffffffffffff021916908373ffffffffffffffffffffffffffffffffffffffff1602179055506020820151816001015f6101000a81548173ffffffffffffffffffffffffffffffffffffffff021916908373ffffffffffffffffffffffffffffffffffffffff16021790555060408201518160020190816101cc9190610a57565b5050508173ffffffffffffffffffffffffffffffffffffffff163373ffffffffffffffffffffffffffffffffffffffff167f767190ce9fbc3cd9637b5d63df7fe59d779f8a36b937363daded58ac71dd4d558360405161022c9190610b6e565b60405180910390a35050565b60608173ffffffffffffffffffffffffffffffffffffffff163373ffffffffffffffffffffffffffffffffffffffff16146102a8576040517f08c379a000000000000000000000000000000000000000000000000000000000815260040161029f90610bfe565b60405180910390fd5b5f808373ffffffffffffffffffffffffffffffffffffffff1673ffffffffffffffffffffffffffffffffffffffff1681526020019081526020015f20805480602002602001604051908101604052809291908181526020015f905b8282101561046c578382905f5260205f2090600302016040518060600160405290815f82015f9054906101000a900473ffffffffffffffffffffffffffffffffffffffff1673ffffffffffffffffffffffffffffffffffffffff1673ffffffffffffffffffffffffffffffffffffffff168152602001600182015f9054906101000a900473ffffffffffffffffffffffffffffffffffffffff1673ffffffffffffffffffffffffffffffffffffffff1673ffffffffffffffffffffffffffffffffffffffff1681526020016002820180546103dd90610881565b80601f016020809104026020016040519081016040528092919081815260200182805461040990610881565b80156104545780601f1061042b57610100808354040283529160200191610454565b820191905f5260205f20905b81548152906001019060200180831161043757829003601f168201915b50505050508152505081526020019060010190610303565b505050509050919050565b5f604051905090565b5f80fd5b5f80fd5b5f73ffffffffffffffffffffffffffffffffffffffff82169050919050565b5f6104b182610488565b9050919050565b6104c1816104a7565b81146104cb575f80fd5b50565b5f813590506104dc816104b8565b92915050565b5f80fd5b5f80fd5b5f601f19601f8301169050919050565b7f4e487b71000000000000000000000000000000000000000000000000000000005f52604160045260245ffd5b610530826104ea565b810181811067ffffffffffffffff8211171561054f5761054e6104fa565b5b80604052505050565b5f610561610477565b905061056d8282610527565b919050565b5f67ffffffffffffffff82111561058c5761058b6104fa565b5b610595826104ea565b9050602081019050919050565b828183375f83830152505050565b5f6105c26105bd84610572565b610558565b9050828152602081018484840111156105de576105dd6104e6565b5b6105e98482856105a2565b509392505050565b5f82601f830112610605576106046104e2565b5b81356106158482602086016105b0565b91505092915050565b5f806040838503121561063457610633610480565b5b5f610641858286016104ce565b925050602083013567ffffffffffffffff81111561066257610661610484565b5b61066e858286016105f1565b9150509250929050565b5f6020828403121561068d5761068c610480565b5b5f61069a848285016104ce565b91505092915050565b5f81519050919050565b5f82825260208201905092915050565b5f819050602082019050919050565b6106d5816104a7565b82525050565b5f81519050919050565b5f82825260208201905092915050565b5f5b838110156107125780820151818401526020810190506106f7565b5f8484015250505050565b5f610727826106db565b61073181856106e5565b93506107418185602086016106f5565b61074a816104ea565b840191505092915050565b5f606083015f83015161076a5f8601826106cc565b50602083015161077d60208601826106cc565b5060408301518482036040860152610795828261071d565b9150508091505092915050565b5f6107ad8383610755565b905092915050565b5f602082019050919050565b5f6107cb826106a3565b6107d581856106ad565b9350836020820285016107e7856106bd565b805f5b85811015610822578484038952815161080385826107a2565b945061080e836107b5565b925060208a019950506001810190506107ea565b50829750879550505050505092915050565b5f6020820190508181035f83015261084c81846107c1565b905092915050565b7f4e487b71000000000000000000000000000000000000000000000000000000005f52602260045260245ffd5b5f600282049050600182168061089857607f821691505b6020821081036108ab576108aa610854565b5b50919050565b5f819050815f5260205f209050919050565b5f6020601f8301049050919050565b5f82821b905092915050565b5f6008830261090d7fffffffffffffffffffffffffffffffffffffffffffffffffffffffffffffffff826108d2565b61091786836108d2565b95508019841693508086168417925050509392505050565b5f819050919050565b5f819050919050565b5f61095b6109566109518461092f565b610938565b61092f565b9050919050565b5f819050919050565b61097483610941565b61098861098082610962565b8484546108de565b825550505050565b5f90565b61099c610990565b6109a781848461096b565b505050565b5b818110156109ca576109bf5f82610994565b6001810190506109ad565b5050565b601f821115610a0f576109e0816108b1565b6109e9846108c3565b810160208510156109f8578190505b610a0c610a04856108c3565b8301826109ac565b50505b505050565b5f82821c905092915050565b5f610a2f5f1984600802610a14565b1980831691505092915050565b5f610a478383610a20565b9150826002028217905092915050565b610a60826106db565b67ffffffffffffffff811115610a7957610a786104fa565b5b610a838254610881565b610a8e8282856109ce565b5f60209050601f831160018114610abf575f8415610aad578287015190505b610ab78582610a3c565b865550610b1e565b601f198416610acd866108b1565b5f5b82811015610af457848901518255600182019150602085019450602081019050610acf565b86831015610b115784890151610b0d601f891682610a20565b8355505b6001600288020188555050505b505050505050565b5f82825260208201905092915050565b5f610b40826106db565b610b4a8185610b26565b9350610b5a8185602086016106f5565b610b63816104ea565b840191505092915050565b5f6020820190508181035f830152610b868184610b36565b905092915050565b7f6f6e6c79206120757365722063616e2067657420686973206e6f7469666963615f8201527f74696f6e73000000000000000000000000000000000000000000000000000000602082015250565b5f610be8602583610b26565b9150610bf382610b8e565b604082019050919050565b5f6020820190508181035f830152610c1581610bdc565b905091905056fea264697066735822122056ae2bac665608010bcaafa17d5b148a8b1a9657a70652e82d8f44e38ba7a01064736f6c63430008140033",
  "linkReferences": {},
  "deployedLinkReferences": {}
}